{
	"data": {
		"bytecode": {
			"linkReferences": {},
			"object": "60c06040526509184e72a00060809081525061271060a09081525060006002556127106003553480156200003257600080fd5b506040516200650c3803806200650c8339818101604052810190620000589190620006dd565b826007600160008190555062000083620000776200048060201b60201c565b6200048860201b60201c565b6080516311e1a30062000097919062000772565b60078190555080600f600001819055506064600f60020181905550600f6001016105dc9080600181540180825580915050600190039060005260206000200160009091909190915055600f6001016109c490806001815401808255809150506001900390600052602060002001600090919091909150556200013d608051614e2062000124919062000772565b6002600c6200054e60201b620021bd179092919060201c565b506200016d60805161c35062000154919062000772565b6004600c6200054e60201b620021bd179092919060201c565b506200019e608051620186a062000185919062000772565b6008600c6200054e60201b620021bd179092919060201c565b50620001cf60805162030d40620001b6919062000772565b6010600c6200054e60201b620021bd179092919060201c565b50620002006080516207a120620001e7919062000772565b6020600c6200054e60201b620021bd179092919060201c565b5060c8600f60030160006002815260200190815260200160002081905550610190600f60030160006004815260200190815260200160002081905550610258600f60030160006008815260200190815260200160002081905550610320600f600301600060108152602001908152602001600020819055506103e8600f600301600060208152602001908152602001600020819055505080601460006101000a81548173ffffffffffffffffffffffffffffffffffffffff021916908373ffffffffffffffffffffffffffffffffffffffff1602179055505060805163017d7840620002ed919062000772565b601581905550620003236080516103e862000309919062000772565b61032060166200054e60201b620021bd179092919060201c565b50620003536080516107d06200033a919062000772565b60c860166200054e60201b620021bd179092919060201c565b506102bc60206000600381526020019081526020016000208190555061032060206000600581526020019081526020016000208190555063096601806021600060058152602001908152602001600020819055506305a39a8060216000600381526020019081526020016000208190555081601a60010160006101000a81548173ffffffffffffffffffffffffffffffffffffffff021916908373ffffffffffffffffffffffffffffffffffffffff16021790555080601a60020160006101000a81548173ffffffffffffffffffffffffffffffffffffffff021916908373ffffffffffffffffffffffffffffffffffffffff1602179055506101f4601a6000018190555069021e19e0c9bab2400000601a600301819055506005601a60040181905550505050620007bd565b600033905090565b6000600160009054906101000a900473ffffffffffffffffffffffffffffffffffffffff16905081600160006101000a81548173ffffffffffffffffffffffffffffffffffffffff021916908373ffffffffffffffffffffffffffffffffffffffff1602179055508173ffffffffffffffffffffffffffffffffffffffff168173ffffffffffffffffffffffffffffffffffffffff167f8be0079c531659141344cd1fd0a4f28419497f9722a3daafe3b4186f6b6457e060405160405180910390a35050565b60006200056c846000018460001b8460001b6200057560201b60201c565b90509392505050565b60008184600201600085815260200190815260200160002081905550620005ae8385600001620005b760201b620021dc1790919060201c565b90509392505050565b6000620005ce8360000183620005d660201b60201c565b905092915050565b6000620005ea83836200065060201b60201c565b620006455782600001829080600181540180825580915050600190039060005260206000200160009091909190915055826000018054905083600101600084815260200190815260200160002081905550600190506200064a565b600090505b92915050565b600080836001016000848152602001908152602001600020541415905092915050565b600080fd5b600073ffffffffffffffffffffffffffffffffffffffff82169050919050565b6000620006a58262000678565b9050919050565b620006b78162000698565b8114620006c357600080fd5b50565b600081519050620006d781620006ac565b92915050565b600080600060608486031215620006f957620006f862000673565b5b60006200070986828701620006c6565b93505060206200071c86828701620006c6565b92505060406200072f86828701620006c6565b9150509250925092565b6000819050919050565b7f4e487b7100000000000000000000000000000000000000000000000000000000600052601160045260246000fd5b60006200077f8262000739565b91506200078c8362000739565b92508282026200079c8162000739565b91508282048414831517620007b657620007b562000743565b5b5092915050565b60805160a051615c736200089960003960008181610ae401528181610b0b01528181610eaa01528181610f250152818161181b0152818161186601528181611b6601528181611f4d0152818161230a01528181612a0301528181612a7e015281816132a701528181613d8a01528181613e050152818161443b01528181614739015261486b015260008181611b4001528181612da101528181612dd501528181612e0901528181612e3d01528181612e7101528181612ea501528181612eda01528181612f0f01528181612f440152612f790152615c736000f3fe6080604052600436106102245760003560e01c80638b87634711610123578063c8f33c91116100ab578063df136d651161006f578063df136d65146107be578063e2eb41ff146107e9578063e9fad8ee1461082f578063ebe2b12b14610846578063f2fde38b1461087157610224565b8063c8f33c91146106e8578063cb6cd70514610713578063cd3daf9d1461073f578063d037a6eb1461076a578063d1337f3f146107a757610224565b8063b3321881116100f2578063b3321881146105ef578063b6a531121461061a578063bac61db714610657578063c4a15dbe14610694578063c7e979ec146106d157610224565b80638b876347146105455780638da5cb5b14610582578063a0ef91df146105ad578063a79b7a66146105c457610224565b80635a711fe9116101b1578063715018a611610175578063715018a6146104a557806376a5b275146104bc5780637acb7757146104d35780637b0a47ee146104ef57806380faa57d1461051a57610224565b80635a711fe9146103be5780636434ee0e146103d55780636aed3616146104005780636b31ee011461043d57806370a082311461046857610224565b80631b85c5f4116101f85780631b85c5f4146102f9578063370158ea146103365780633ccfd60b146103655780633d18b9121461037c57806356e4bc1f1461039357610224565b80628cc262146102295780630700037d1461026657806318160ddd146102a35780631abfa629146102ce575b600080fd5b34801561023557600080fd5b50610250600480360381019061024b9190614c97565b61089a565b60405161025d9190614cdd565b60405180910390f35b34801561027257600080fd5b5061028d60048036038101906102889190614c97565b61099c565b60405161029a9190614cdd565b60405180910390f35b3480156102af57600080fd5b506102b86109b4565b6040516102c59190614cdd565b60405180910390f35b3480156102da57600080fd5b506102e36109be565b6040516102f09190614d57565b60405180910390f35b34801561030557600080fd5b50610320600480360381019061031b9190614c97565b6109eb565b60405161032d9190614cdd565b60405180910390f35b34801561034257600080fd5b5061034b610a03565b60405161035c959493929190614d93565b60405180910390f35b34801561037157600080fd5b5061037a610a67565b005b34801561038857600080fd5b50610391610c5c565b005b34801561039f57600080fd5b506103a8610ffb565b6040516103b59190614cdd565b60405180910390f35b3480156103ca57600080fd5b506103d3611001565b005b3480156103e157600080fd5b506103ea611150565b6040516103f79190614de6565b60405180910390f35b34801561040c57600080fd5b5061042760048036038101906104229190614c97565b61117d565b6040516104349190614f01565b60405180910390f35b34801561044957600080fd5b50610452611542565b60405161045f9190614cdd565b60405180910390f35b34801561047457600080fd5b5061048f600480360381019061048a9190614c97565b611548565b60405161049c9190614cdd565b60405180910390f35b3480156104b157600080fd5b506104ba611591565b005b3480156104c857600080fd5b506104d16115a5565b005b6104ed60048036038101906104e89190614f4f565b6116f4565b005b3480156104fb57600080fd5b50610504611a4f565b6040516105119190614cdd565b60405180910390f35b34801561052657600080fd5b5061052f611a55565b60405161053c9190614cdd565b60405180910390f35b34801561055157600080fd5b5061056c60048036038101906105679190614c97565b611a7b565b6040516105799190614cdd565b60405180910390f35b34801561058e57600080fd5b50610597611a93565b6040516105a49190614f9e565b60405180910390f35b3480156105b957600080fd5b506105c2611abd565b005b3480156105d057600080fd5b506105d9611b25565b6040516105e69190614cdd565b60405180910390f35b3480156105fb57600080fd5b50610604611b2b565b6040516106119190614fe8565b60405180910390f35b34801561062657600080fd5b50610641600480360381019061063c9190615003565b611b8d565b60405161064e9190614cdd565b60405180910390f35b34801561066357600080fd5b5061067e60048036038101906106799190614c97565b611ba4565b60405161068b9190615085565b60405180910390f35b3480156106a057600080fd5b506106bb60048036038101906106b69190615003565b611c2a565b6040516106c89190614cdd565b60405180910390f35b3480156106dd57600080fd5b506106e6611dcb565b005b3480156106f457600080fd5b506106fd611f1a565b60405161070a9190614cdd565b60405180910390f35b34801561071f57600080fd5b50610728611f20565b6040516107369291906150a0565b60405180910390f35b34801561074b57600080fd5b50610754611f32565b6040516107619190614cdd565b60405180910390f35b34801561077657600080fd5b50610791600480360381019061078c9190615003565b611fb5565b60405161079e9190614cdd565b60405180910390f35b3480156107b357600080fd5b506107bc611fcd565b005b3480156107ca57600080fd5b506107d36120a8565b6040516107e09190614cdd565b60405180910390f35b3480156107f557600080fd5b50610810600480360381019061080b9190614c97565b6120ae565b6040516108269a999897969594939291906150c9565b60405180910390f35b34801561083b57600080fd5b50610844612122565b005b34801561085257600080fd5b5061085b612134565b6040516108689190614cdd565b60405180910390f35b34801561087d57600080fd5b5061089860048036038101906108939190614c97565b61213a565b005b6000600960008373ffffffffffffffffffffffffffffffffffffffff1673ffffffffffffffffffffffffffffffffffffffff16815260200190815260200160002054670de0b6b3a7640000600860008573ffffffffffffffffffffffffffffffffffffffff1673ffffffffffffffffffffffffffffffffffffffff1681526020019081526020016000205461092d611f32565b6109379190615194565b600b60008673ffffffffffffffffffffffffffffffffffffffff1673ffffffffffffffffffffffffffffffffffffffff1681526020019081526020016000205461098191906151c8565b61098b9190615239565b610995919061526a565b9050919050565b60096020528060005260406000206000915090505481565b6000601f54905090565b6000601a60010160009054906101000a900473ffffffffffffffffffffffffffffffffffffffff16905090565b60196020528060005260406000206000915090505481565b601a8060000154908060010160009054906101000a900473ffffffffffffffffffffffffffffffffffffffff16908060020160009054906101000a900473ffffffffffffffffffffffffffffffffffffffff16908060030154908060040154905085565b6000610a72336121f3565b90506000806000610a8460033361223c565b9250925092506000806000610a9a60053361223c565b925092509250610ab48185610aaf919061526a565b6124bd565b610ac88286610ac3919061526a565b61279d565b3373ffffffffffffffffffffffffffffffffffffffff166108fc7f0000000000000000000000000000000000000000000000000000000000000000601a600001547f0000000000000000000000000000000000000000000000000000000000000000610b349190615194565b8987610b40919061526a565b610b4a91906151c8565b610b549190615239565b9081150290604051600060405180830381858888f19350505050158015610b7f573d6000803e3d6000fd5b508583610b8c919061526a565b602260003373ffffffffffffffffffffffffffffffffffffffff1673ffffffffffffffffffffffffffffffffffffffff1681526020019081526020016000206000828254610bda9190615194565b925050819055508583610bed919061526a565b601f6000828254610bfe9190615194565b925050819055505050505050506000610c16336121f3565b905080821015610c3857610c37338383610c309190615194565b6001612b55565b5b80821115610c5857610c57338284610c509190615194565b6000612b55565b5b5050565b610c64612ce5565b33610c6d611f32565b600581905550610c7b611a55565b600481905550600073ffffffffffffffffffffffffffffffffffffffff168173ffffffffffffffffffffffffffffffffffffffff1614610d4857610cbe8161089a565b600960008373ffffffffffffffffffffffffffffffffffffffff1673ffffffffffffffffffffffffffffffffffffffff16815260200190815260200160002081905550600554600860008373ffffffffffffffffffffffffffffffffffffffff1673ffffffffffffffffffffffffffffffffffffffff168152602001908152602001600020819055505b6000600a549050600060035490506000600960003373ffffffffffffffffffffffffffffffffffffffff1673ffffffffffffffffffffffffffffffffffffffff1681526020019081526020016000205490506000811115610e5c576000600960003373ffffffffffffffffffffffffffffffffffffffff1673ffffffffffffffffffffffffffffffffffffffff168152602001908152602001600020819055508060066000828254610dfa919061526a565b92505081905550610e0d33826001612d34565b3373ffffffffffffffffffffffffffffffffffffffff167fe2403640ba68fed3a2f88b7557551d1993f84b99bb10ff833f0cf8db0c5e048682604051610e539190614cdd565b60405180910390a25b610e6a600354600654612d90565b60038190555050600060035490506000600a5490508084148015610e8d57508183145b15610e9b5750505050610ff0565b600060025403610f0d574282827f000000000000000000000000000000000000000000000000000000000000000062278d00600754610eda91906151c8565b610ee491906151c8565b610eee9190615239565b610ef89190615239565b610f02919061526a565b600281905550610feb565b42600254118015610f1e5750600081145b15610f93577f000000000000000000000000000000000000000000000000000000000000000062278d00858542600254610f589190615194565b610f6291906151c8565b610f6c91906151c8565b610f769190615239565b610f809190615239565b6007819055506000600281905550610fea565b426002541115610fe957428183868642600254610fb09190615194565b610fba91906151c8565b610fc491906151c8565b610fce9190615239565b610fd89190615239565b610fe2919061526a565b6002819055505b5b5b505050505b50610ff9613042565b565b60065481565b6000601360003373ffffffffffffffffffffffffffffffffffffffff1673ffffffffffffffffffffffffffffffffffffffff168152602001908152602001600020600301549050600081111561114d576000601360003373ffffffffffffffffffffffffffffffffffffffff1673ffffffffffffffffffffffffffffffffffffffff1681526020019081526020016000206003018190555080601360003373ffffffffffffffffffffffffffffffffffffffff1673ffffffffffffffffffffffffffffffffffffffff16815260200190815260200160002060040160008282546110eb919061526a565b925050819055506110fe33826000612d34565b3373ffffffffffffffffffffffffffffffffffffffff167f086b3e76754b7bd787a9b9abaff7ce3cfe51e64fc8b344bd2eff5cdbd9580b7a826040516111449190614cdd565b60405180910390a25b50565b6000601a60020160009054906101000a900473ffffffffffffffffffffffffffffffffffffffff16905090565b606060006111da602360008573ffffffffffffffffffffffffffffffffffffffff1673ffffffffffffffffffffffffffffffffffffffff16815260200190815260200160002060006003815260200190815260200160002061304c565b90506000611237602360008673ffffffffffffffffffffffffffffffffffffffff1673ffffffffffffffffffffffffffffffffffffffff16815260200190815260200160002060006005815260200190815260200160002061304c565b90506000611294602360008773ffffffffffffffffffffffffffffffffffffffff1673ffffffffffffffffffffffffffffffffffffffff16815260200190815260200160002060006005815260200190815260200160002061306d565b6112ed602360008873ffffffffffffffffffffffffffffffffffffffff1673ffffffffffffffffffffffffffffffffffffffff16815260200190815260200160002060006003815260200190815260200160002061306d565b6112f7919061526a565b67ffffffffffffffff8111156113105761130f61529e565b5b60405190808252806020026020018201604052801561134957816020015b611336614bd1565b81526020019060019003908161132e5790505b50905060005b835181101561143b576040518060600160405280858381518110611376576113756152cd565b5b60200260200101518152602001611400868481518110611399576113986152cd565b5b6020026020010151602360008b73ffffffffffffffffffffffffffffffffffffffff1673ffffffffffffffffffffffffffffffffffffffff16815260200190815260200160002060006003815260200190815260200160002061308290919063ffffffff16565b8152602001600381525082828151811061141d5761141c6152cd565b5b60200260200101819052508080611433906152fc565b91505061134f565b60005b8351811015611535576040518060600160405280858381518110611465576114646152cd565b5b602002602001015181526020016114ef868481518110611488576114876152cd565b5b6020026020010151602360008c73ffffffffffffffffffffffffffffffffffffffff1673ffffffffffffffffffffffffffffffffffffffff16815260200190815260200160002060006005815260200190815260200160002061308290919063ffffffff16565b81526020016005815250838383611506919061526a565b81518110611517576115166152cd565b5b6020026020010181905250808061152d906152fc565b91505061143e565b5081945050505050919050565b60075481565b6000602260008373ffffffffffffffffffffffffffffffffffffffff1673ffffffffffffffffffffffffffffffffffffffff168152602001908152602001600020549050919050565b61159961309f565b6115a3600061311d565b565b6000601360003373ffffffffffffffffffffffffffffffffffffffff1673ffffffffffffffffffffffffffffffffffffffff16815260200190815260200160002060070154905060008111156116f1576000601360003373ffffffffffffffffffffffffffffffffffffffff1673ffffffffffffffffffffffffffffffffffffffff1681526020019081526020016000206007018190555080601360003373ffffffffffffffffffffffffffffffffffffffff1673ffffffffffffffffffffffffffffffffffffffff168152602001908152602001600020600801600082825461168f919061526a565b925050819055506116a233826000612d34565b3373ffffffffffffffffffffffffffffffffffffffff167fe4cc98e15eaa87f9ca23ba0d792bd019cb64b34cc3a6f43ca50a8e205a040363826040516116e89190614cdd565b60405180910390a25b50565b60006116ff336121f3565b905061176342602360003373ffffffffffffffffffffffffffffffffffffffff1673ffffffffffffffffffffffffffffffffffffffff16815260200190815260200160002060008681526020019081526020016000206131e390919063ffffffff16565b156117a3576040517f08c379a000000000000000000000000000000000000000000000000000000000815260040161179a906153a1565b60405180910390fd5b6000349050601a6004015481101580156117c25750601a600301548111155b611801576040517f08c379a00000000000000000000000000000000000000000000000000000000081526004016117f89061540d565b60405180910390fd5b61180a816131fd565b6118148333613364565b600061185d7f0000000000000000000000000000000000000000000000000000000000000000601a600001548461184b91906151c8565b6118559190615239565b6136d1613756565b925050506118b37f00000000000000000000000000000000000000000000000000000000000000006020600088815260200190815260200160002054846118a491906151c8565b6118ae9190615239565b613b24565b81601f60008282546118c5919061526a565b9250508190555081602260003373ffffffffffffffffffffffffffffffffffffffff1673ffffffffffffffffffffffffffffffffffffffff168152602001908152602001600020600082825461191b919061526a565b925050819055506119a4602160008781526020019081526020016000205442611944919061526a565b83602360003373ffffffffffffffffffffffffffffffffffffffff1673ffffffffffffffffffffffffffffffffffffffff16815260200190815260200160002060008981526020019081526020016000206121bd9092919063ffffffff16565b5080602460003373ffffffffffffffffffffffffffffffffffffffff1673ffffffffffffffffffffffffffffffffffffffff16815260200190815260200160002060004281526020019081526020016000208190555050506000611a07336121f3565b905080821015611a2957611a28338383611a219190615194565b6001612b55565b5b80821115611a4957611a48338284611a419190615194565b6000612b55565b5b50505050565b60035481565b6000806002541480611a68575060025442105b611a7457600254611a76565b425b905090565b60086020528060005260406000206000915090505481565b6000600160009054906101000a900473ffffffffffffffffffffffffffffffffffffffff16905090565b611ac561309f565b3373ffffffffffffffffffffffffffffffffffffffff166108fc3073ffffffffffffffffffffffffffffffffffffffff16319081150290604051600060405180830381858888f19350505050158015611b22573d6000803e3d6000fd5b50565b60155481565b611b33614bf2565b60405180604001604052807f000000000000000000000000000000000000000000000000000000000000000081526020017f0000000000000000000000000000000000000000000000000000000000000000815250905090565b602080528060005260406000206000915090505481565b611bac614c0c565b6040518060800160405280611bc08461089a565b8152602001611bce84611548565b8152602001611bdb6109b4565b8152602001601960008573ffffffffffffffffffffffffffffffffffffffff1673ffffffffffffffffffffffffffffffffffffffff168152602001908152602001600020548152509050919050565b600080611c356109be565b73ffffffffffffffffffffffffffffffffffffffff16630dfe16816040518163ffffffff1660e01b8152600401602060405180830381865afa158015611c7f573d6000803e3d6000fd5b505050506040513d601f19601f82011682018060405250810190611ca39190615442565b73ffffffffffffffffffffffffffffffffffffffff16601460009054906101000a900473ffffffffffffffffffffffffffffffffffffffff1673ffffffffffffffffffffffffffffffffffffffff16149050600080611d006109be565b73ffffffffffffffffffffffffffffffffffffffff16630902f1ac6040518163ffffffff1660e01b8152600401606060405180830381865afa158015611d4a573d6000803e3d6000fd5b505050506040513d601f19601f82011682018060405250810190611d6e91906154f1565b506dffffffffffffffffffffffffffff1691506dffffffffffffffffffffffffffff1691508483611daa578183611da59190615239565b611db7565b8282611db69190615239565b5b611dc191906151c8565b9350505050919050565b6000601360003373ffffffffffffffffffffffffffffffffffffffff1673ffffffffffffffffffffffffffffffffffffffff1681526020019081526020016000206005015490506000811115611f17576000601360003373ffffffffffffffffffffffffffffffffffffffff1673ffffffffffffffffffffffffffffffffffffffff1681526020019081526020016000206005018190555080601360003373ffffffffffffffffffffffffffffffffffffffff1673ffffffffffffffffffffffffffffffffffffffff1681526020019081526020016000206006016000828254611eb5919061526a565b92505081905550611ec833826000612d34565b3373ffffffffffffffffffffffffffffffffffffffff167f894fbfbbd6c1b8fca07d75a3e7ce66ac02eefdbbf01ad90ce9f96e12993ccf2982604051611f0e9190614cdd565b60405180910390a25b50565b60045481565b600f8060000154908060020154905082565b600080600a5403611f47576005549050611fb2565b62278d007f0000000000000000000000000000000000000000000000000000000000000000600354600454611f7a611a55565b611f849190615194565b611f8e91906151c8565b611f989190615239565b611fa29190615239565b600554611faf919061526a565b90505b90565b60216020528060005260406000206000915090505481565b6000601960003373ffffffffffffffffffffffffffffffffffffffff1673ffffffffffffffffffffffffffffffffffffffff16815260200190815260200160002054905060008111612054576040517f08c379a000000000000000000000000000000000000000000000000000000000815260040161204b90615590565b60405180910390fd5b6000601960003373ffffffffffffffffffffffffffffffffffffffff1673ffffffffffffffffffffffffffffffffffffffff168152602001908152602001600020819055506120a533826000612d34565b50565b60055481565b60136020528060005260406000206000915090508060000154908060010154908060020154908060030154908060040154908060050154908060060154908060070154908060080154908060090160009054906101000a900473ffffffffffffffffffffffffffffffffffffffff1690508a565b61212a610a67565b612132610c5c565b565b60025481565b61214261309f565b600073ffffffffffffffffffffffffffffffffffffffff168173ffffffffffffffffffffffffffffffffffffffff16036121b1576040517f08c379a00000000000000000000000000000000000000000000000000000000081526004016121a890615622565b60405180910390fd5b6121ba8161311d565b50565b60006121d3846000018460001b8460001b613edc565b90509392505050565b60006121eb8360000183613f17565b905092915050565b6000602260008373ffffffffffffffffffffffffffffffffffffffff1673ffffffffffffffffffffffffffffffffffffffff168152602001908152602001600020549050919050565b600080600080602360008673ffffffffffffffffffffffffffffffffffffffff1673ffffffffffffffffffffffffffffffffffffffff16815260200190815260200160002060008781526020019081526020016000209050600061229f8261304c565b905060005b81518110156124b357428282815181106122c1576122c06152cd565b5b6020026020010151116124a0576122fb8282815181106122e4576122e36152cd565b5b60200260200101518461308290919063ffffffff16565b86612306919061526a565b95507f0000000000000000000000000000000000000000000000000000000000000000602060008a81526020019081526020016000205461236a848481518110612353576123526152cd565b5b60200260200101518661308290919063ffffffff16565b61237491906151c8565b61237e9190615239565b85612389919061526a565b9450602460008873ffffffffffffffffffffffffffffffffffffffff1673ffffffffffffffffffffffffffffffffffffffff16815260200190815260200160002060008383815181106123df576123de6152cd565b5b602002602001015181526020019081526020016000205484612401919061526a565b9350602460008873ffffffffffffffffffffffffffffffffffffffff1673ffffffffffffffffffffffffffffffffffffffff1681526020019081526020016000206000838381518110612457576124566152cd565b5b602002602001015181526020019081526020016000206000905561249e828281518110612487576124866152cd565b5b602002602001015184613f8790919063ffffffff16565b505b80806124ab906152fc565b9150506122a4565b5050509250925092565b60006124c76109be565b73ffffffffffffffffffffffffffffffffffffffff16630dfe16816040518163ffffffff1660e01b8152600401602060405180830381865afa158015612511573d6000803e3d6000fd5b505050506040513d601f19601f820116820180604052508101906125359190615442565b73ffffffffffffffffffffffffffffffffffffffff16601460009054906101000a900473ffffffffffffffffffffffffffffffffffffffff1673ffffffffffffffffffffffffffffffffffffffff1614612604576125916109be565b73ffffffffffffffffffffffffffffffffffffffff16630dfe16816040518163ffffffff1660e01b8152600401602060405180830381865afa1580156125db573d6000803e3d6000fd5b505050506040513d601f19601f820116820180604052508101906125ff9190615442565b61267b565b61260c6109be565b73ffffffffffffffffffffffffffffffffffffffff1663d21220a76040518163ffffffff1660e01b8152600401602060405180830381865afa158015612656573d6000803e3d6000fd5b505050506040513d601f19601f8201168201806040525081019061267a9190615442565b5b90506126856109be565b73ffffffffffffffffffffffffffffffffffffffff1663095ea7b36126a8611150565b846040518363ffffffff1660e01b81526004016126c6929190615642565b6020604051808303816000875af11580156126e5573d6000803e3d6000fd5b505050506040513d601f19601f8201168201806040525081019061270991906156a3565b50612712611150565b73ffffffffffffffffffffffffffffffffffffffff166302751cec828460008033426040518763ffffffff1660e01b81526004016127559695949392919061570b565b60408051808303816000875af1158015612773573d6000803e3d6000fd5b505050506040513d601f19601f820116820180604052508101906127979190615781565b50505050565b6127a5612ce5565b336127ae611f32565b6005819055506127bc611a55565b600481905550600073ffffffffffffffffffffffffffffffffffffffff168173ffffffffffffffffffffffffffffffffffffffff1614612889576127ff8161089a565b600960008373ffffffffffffffffffffffffffffffffffffffff1673ffffffffffffffffffffffffffffffffffffffff16815260200190815260200160002081905550600554600860008373ffffffffffffffffffffffffffffffffffffffff1673ffffffffffffffffffffffffffffffffffffffff168152602001908152602001600020819055505b6000600a54905060006003549050600084116128da576040517f08c379a00000000000000000000000000000000000000000000000000000000081526004016128d19061580d565b60405180910390fd5b83600a546128e89190615194565b600a8190555083600b60003373ffffffffffffffffffffffffffffffffffffffff1673ffffffffffffffffffffffffffffffffffffffff168152602001908152602001600020546129399190615194565b600b60003373ffffffffffffffffffffffffffffffffffffffff1673ffffffffffffffffffffffffffffffffffffffff168152602001908152602001600020819055503373ffffffffffffffffffffffffffffffffffffffff167f7084f5476618d8e60b11ef0d7d3f06914655adb8793e28ff7f018d4c76d505d5856040516129c29190614cdd565b60405180910390a2600060035490506000600a54905080841480156129e657508183145b156129f45750505050612b49565b600060025403612a66574282827f000000000000000000000000000000000000000000000000000000000000000062278d00600754612a3391906151c8565b612a3d91906151c8565b612a479190615239565b612a519190615239565b612a5b919061526a565b600281905550612b44565b42600254118015612a775750600081145b15612aec577f000000000000000000000000000000000000000000000000000000000000000062278d00858542600254612ab19190615194565b612abb91906151c8565b612ac591906151c8565b612acf9190615239565b612ad99190615239565b6007819055506000600281905550612b43565b426002541115612b4257428183868642600254612b099190615194565b612b1391906151c8565b612b1d91906151c8565b612b279190615239565b612b319190615239565b612b3b919061526a565b6002819055505b5b5b505050505b50612b52613042565b50565b60005b600f60000154811015612cde57600073ffffffffffffffffffffffffffffffffffffffff168473ffffffffffffffffffffffffffffffffffffffff1603612b9f5750612ce0565b8115612c035782601360008673ffffffffffffffffffffffffffffffffffffffff1673ffffffffffffffffffffffffffffffffffffffff1681526020019081526020016000206001016000828254612bf7919061526a565b92505081905550612c5d565b82601360008673ffffffffffffffffffffffffffffffffffffffff1673ffffffffffffffffffffffffffffffffffffffff1681526020019081526020016000206001016000828254612c559190615194565b925050819055505b612c6684613fa1565b601360008573ffffffffffffffffffffffffffffffffffffffff1673ffffffffffffffffffffffffffffffffffffffff16815260200190815260200160002060090160009054906101000a900473ffffffffffffffffffffffffffffffffffffffff1693508080612cd6906152fc565b915050612b58565b505b505050565b600260005403612d2a576040517f08c379a0000000000000000000000000000000000000000000000000000000008152600401612d2190615879565b60405180910390fd5b6002600081905550565b8273ffffffffffffffffffffffffffffffffffffffff166108fc839081150290604051600060405180830381858888f19350505050158015612d7a573d6000803e3d6000fd5b508015612d8b57612d8a8261417f565b5b505050565b6000806040518061014001604052807f0000000000000000000000000000000000000000000000000000000000000000622dc6c0612dce91906151c8565b81526020017f0000000000000000000000000000000000000000000000000000000000000000625b8d80612e0291906151c8565b81526020017f000000000000000000000000000000000000000000000000000000000000000062895440612e3691906151c8565b81526020017f000000000000000000000000000000000000000000000000000000000000000062b71b00612e6a91906151c8565b81526020017f000000000000000000000000000000000000000000000000000000000000000062e4e1c0612e9e91906151c8565b81526020017f00000000000000000000000000000000000000000000000000000000000000006301c9c380612ed391906151c8565b81526020017f00000000000000000000000000000000000000000000000000000000000000006303938700612f0891906151c8565b81526020017f000000000000000000000000000000000000000000000000000000000000000063055d4a80612f3d91906151c8565b81526020017f00000000000000000000000000000000000000000000000000000000000000006307270e00612f7291906151c8565b81526020017f0000000000000000000000000000000000000000000000000000000000000000630bebc200612fa791906151c8565b81525090506000805b600a811015613005576000836001600a8110612fcf57612fce6152cd565b5b602002015186612fdf9190615239565b1115612ff25781612fef906152fc565b91505b8080612ffd906152fc565b915050612fb0565b5080600a61301391906159cc565b81600761302091906159cc565b8661302b91906151c8565b6130359190615239565b9450849250505092915050565b6001600081905550565b6060600061305c83600001614194565b905060608190508092505050919050565b600061307b826000016141a9565b9050919050565b6000613094836000018360001b6141be565b60001c905092915050565b6130a761423a565b73ffffffffffffffffffffffffffffffffffffffff166130c5611a93565b73ffffffffffffffffffffffffffffffffffffffff161461311b576040517f08c379a000000000000000000000000000000000000000000000000000000000815260040161311290615a63565b60405180910390fd5b565b6000600160009054906101000a900473ffffffffffffffffffffffffffffffffffffffff16905081600160006101000a81548173ffffffffffffffffffffffffffffffffffffffff021916908373ffffffffffffffffffffffffffffffffffffffff1602179055508173ffffffffffffffffffffffffffffffffffffffff168173ffffffffffffffffffffffffffffffffffffffff167f8be0079c531659141344cd1fd0a4f28419497f9722a3daafe3b4186f6b6457e060405160405180910390a35050565b60006131f5836000018360001b614242565b905092915050565b6000601554031561336157600080613215601661304c565b905060005b815181101561329357818181518110613236576132356152cd565b5b602002602001015184106132805761327282828151811061325a576132596152cd565b5b6020026020010151601661308290919063ffffffff16565b8361327d919061526a565b92505b808061328b906152fc565b91505061321a565b50600082036132a3575050613361565b60007f000000000000000000000000000000000000000000000000000000000000000083856132d291906151c8565b6132dc9190615239565b90506015548111156132ee5760155490505b80601560008282546133009190615194565b9250508190555080601960003373ffffffffffffffffffffffffffffffffffffffff1673ffffffffffffffffffffffffffffffffffffffff1681526020019081526020016000206000828254613356919061526a565b925050819055505050505b50565b600073ffffffffffffffffffffffffffffffffffffffff168273ffffffffffffffffffffffffffffffffffffffff1614806133cb5750600073ffffffffffffffffffffffffffffffffffffffff168173ffffffffffffffffffffffffffffffffffffffff16145b806134655750600073ffffffffffffffffffffffffffffffffffffffff16601360008373ffffffffffffffffffffffffffffffffffffffff1673ffffffffffffffffffffffffffffffffffffffff16815260200190815260200160002060090160009054906101000a900473ffffffffffffffffffffffffffffffffffffffff1673ffffffffffffffffffffffffffffffffffffffff1614155b806134b357506000601360008373ffffffffffffffffffffffffffffffffffffffff1673ffffffffffffffffffffffffffffffffffffffff1681526020019081526020016000206001015414155b6136cd5781601360008373ffffffffffffffffffffffffffffffffffffffff1673ffffffffffffffffffffffffffffffffffffffff16815260200190815260200160002060090160006101000a81548173ffffffffffffffffffffffffffffffffffffffff021916908373ffffffffffffffffffffffffffffffffffffffff160217905550601360008373ffffffffffffffffffffffffffffffffffffffff1673ffffffffffffffffffffffffffffffffffffffff168152602001908152602001600020600a01819080600181540180825580915050600190039060005260206000200160009091909190916101000a81548173ffffffffffffffffffffffffffffffffffffffff021916908373ffffffffffffffffffffffffffffffffffffffff160217905550601360008373ffffffffffffffffffffffffffffffffffffffff1673ffffffffffffffffffffffffffffffffffffffff168152602001908152602001600020600a0180549050601360008473ffffffffffffffffffffffffffffffffffffffff1673ffffffffffffffffffffffffffffffffffffffff168152602001908152602001600020600201819055508073ffffffffffffffffffffffffffffffffffffffff168273ffffffffffffffffffffffffffffffffffffffff167ff7d9b049880898d8a5cdc76cbb530774d26555d72225625fc63dce6263408052426040516136c49190614cdd565b60405180910390a35b5050565b8173ffffffffffffffffffffffffffffffffffffffff166323b872dd3330846040518463ffffffff1660e01b815260040161370e93929190615a83565b6020604051808303816000875af115801561372d573d6000803e3d6000fd5b505050506040513d601f19601f8201168201806040525081019061375191906156a3565b505050565b6000806000806137646109be565b73ffffffffffffffffffffffffffffffffffffffff16630dfe16816040518163ffffffff1660e01b8152600401602060405180830381865afa1580156137ae573d6000803e3d6000fd5b505050506040513d601f19601f820116820180604052508101906137d29190615442565b73ffffffffffffffffffffffffffffffffffffffff16601460009054906101000a900473ffffffffffffffffffffffffffffffffffffffff1673ffffffffffffffffffffffffffffffffffffffff161490506000816138a6576138336109be565b73ffffffffffffffffffffffffffffffffffffffff16630dfe16816040518163ffffffff1660e01b8152600401602060405180830381865afa15801561387d573d6000803e3d6000fd5b505050506040513d601f19601f820116820180604052508101906138a19190615442565b61391d565b6138ae6109be565b73ffffffffffffffffffffffffffffffffffffffff1663d21220a76040518163ffffffff1660e01b8152600401602060405180830381865afa1580156138f8573d6000803e3d6000fd5b505050506040513d601f19601f8201168201806040525081019061391c9190615442565b5b905060008061392a6109be565b73ffffffffffffffffffffffffffffffffffffffff16630902f1ac6040518163ffffffff1660e01b8152600401606060405180830381865afa158015613974573d6000803e3d6000fd5b505050506040513d601f19601f8201168201806040525081019061399891906154f1565b506dffffffffffffffffffffffffffff1691506dffffffffffffffffffffffffffff169150600089856139d65782846139d19190615239565b6139e3565b83836139e29190615239565b5b6139ed91906151c8565b90506139fd84828b63ffffffff16565b8373ffffffffffffffffffffffffffffffffffffffff1663095ea7b3613a21611150565b836040518363ffffffff1660e01b8152600401613a3f929190615642565b6020604051808303816000875af1158015613a5e573d6000803e3d6000fd5b505050506040513d601f19601f82011682018060405250810190613a8291906156a3565b50613a8b611150565b73ffffffffffffffffffffffffffffffffffffffff1663f305d7198b868460008030426040518863ffffffff1660e01b8152600401613acf9695949392919061570b565b60606040518083038185885af1158015613aed573d6000803e3d6000fd5b50505050506040513d601f19601f82011682018060405250810190613b129190615aba565b97509750975050505050509250925092565b613b2c612ce5565b33613b35611f32565b600581905550613b43611a55565b600481905550600073ffffffffffffffffffffffffffffffffffffffff168173ffffffffffffffffffffffffffffffffffffffff1614613c1057613b868161089a565b600960008373ffffffffffffffffffffffffffffffffffffffff1673ffffffffffffffffffffffffffffffffffffffff16815260200190815260200160002081905550600554600860008373ffffffffffffffffffffffffffffffffffffffff1673ffffffffffffffffffffffffffffffffffffffff168152602001908152602001600020819055505b6000600a5490506000600354905060008411613c61576040517f08c379a0000000000000000000000000000000000000000000000000000000008152600401613c5890615b59565b60405180910390fd5b83600a54613c6f919061526a565b600a8190555083600b60003373ffffffffffffffffffffffffffffffffffffffff1673ffffffffffffffffffffffffffffffffffffffff16815260200190815260200160002054613cc0919061526a565b600b60003373ffffffffffffffffffffffffffffffffffffffff1673ffffffffffffffffffffffffffffffffffffffff168152602001908152602001600020819055503373ffffffffffffffffffffffffffffffffffffffff167f9e71bc8eea02a63969f509818f2dafb9254532904319f9dbda79b67bd34a5f3d85604051613d499190614cdd565b60405180910390a2600060035490506000600a5490508084148015613d6d57508183145b15613d7b5750505050613ed0565b600060025403613ded574282827f000000000000000000000000000000000000000000000000000000000000000062278d00600754613dba91906151c8565b613dc491906151c8565b613dce9190615239565b613dd89190615239565b613de2919061526a565b600281905550613ecb565b42600254118015613dfe5750600081145b15613e73577f000000000000000000000000000000000000000000000000000000000000000062278d00858542600254613e389190615194565b613e4291906151c8565b613e4c91906151c8565b613e569190615239565b613e609190615239565b6007819055506000600281905550613eca565b426002541115613ec957428183868642600254613e909190615194565b613e9a91906151c8565b613ea491906151c8565b613eae9190615239565b613eb89190615239565b613ec2919061526a565b6002819055505b5b5b505050505b50613ed9613042565b50565b60008184600201600085815260200190815260200160002081905550613f0e83856000016121dc90919063ffffffff16565b90509392505050565b6000613f238383614262565b613f7c578260000182908060018154018082558091505060019003906000526020600020016000909190919091505582600001805490508360010160008481526020019081526020016000208190555060019050613f81565b600090505b92915050565b6000613f99836000018360001b614285565b905092915050565b600080600080601360008673ffffffffffffffffffffffffffffffffffffffff1673ffffffffffffffffffffffffffffffffffffffff168152602001908152602001600020600a0180548060200260200160405190810160405280929190818152602001828054801561406957602002820191906000526020600020905b8160009054906101000a900473ffffffffffffffffffffffffffffffffffffffff1673ffffffffffffffffffffffffffffffffffffffff168152602001906001019080831161401f575b5050505050905060005b81518110156141085760136000838381518110614093576140926152cd565b5b602002602001015173ffffffffffffffffffffffffffffffffffffffff1673ffffffffffffffffffffffffffffffffffffffff168152602001908152602001600020600101549250838311156140e7578293505b82856140f3919061526a565b94508080614100906152fc565b915050614073565b5082846141159190615194565b935060008403614128575050505061417c565b614131846142be565b601360008773ffffffffffffffffffffffffffffffffffffffff1673ffffffffffffffffffffffffffffffffffffffff16815260200190815260200160002060000181905550505050505b50565b6141888161437f565b61419181614547565b50565b60606141a28260000161492c565b9050919050565b60006141b78260000161494d565b9050919050565b6000808360020160008481526020019081526020016000205490506000801b811415806141f157506141f08484614242565b5b614230576040517f08c379a000000000000000000000000000000000000000000000000000000000815260040161422790615bc5565b60405180910390fd5b8091505092915050565b600033905090565b600061425a828460000161496290919063ffffffff16565b905092915050565b600080836001016000848152602001908152602001600020541415905092915050565b6000826002016000838152602001908152602001600020600090556142b6828460000161497990919063ffffffff16565b905092915050565b6000806142cb600c61304c565b905060005b8151811015614378578181815181106142ec576142eb6152cd565b5b6020026020010151841015801561432f575061432c828281518110614314576143136152cd565b5b6020026020010151600c61308290919063ffffffff16565b83105b156143655761436282828151811061434a576143496152cd565b5b6020026020010151600c61308290919063ffffffff16565b92505b8080614370906152fc565b9150506142d0565b5050919050565b60003390506000805b600f6001018054905081101561454057601360008473ffffffffffffffffffffffffffffffffffffffff1673ffffffffffffffffffffffffffffffffffffffff16815260200190815260200160002060090160009054906101000a900473ffffffffffffffffffffffffffffffffffffffff169250600073ffffffffffffffffffffffffffffffffffffffff168373ffffffffffffffffffffffffffffffffffffffff160361443957505050614544565b7f0000000000000000000000000000000000000000000000000000000000000000600f6001018281548110614471576144706152cd565b5b90600052602060002001548561448791906151c8565b6144919190615239565b915061449c836121f3565b6144a5336121f3565b106144d4576144b3336121f3565b6144bc846121f3565b836144c791906151c8565b6144d19190615239565b91505b81601360008573ffffffffffffffffffffffffffffffffffffffff1673ffffffffffffffffffffffffffffffffffffffff1681526020019081526020016000206007016000828254614526919061526a565b925050819055508080614538906152fc565b915050614388565b5050505b50565b60003390506000601360008373ffffffffffffffffffffffffffffffffffffffff1673ffffffffffffffffffffffffffffffffffffffff1681526020019081526020016000206000015490506000806005905060005b600f6000015481101561492357601360008673ffffffffffffffffffffffffffffffffffffffff1673ffffffffffffffffffffffffffffffffffffffff168152602001908152602001600020600101549250601360008673ffffffffffffffffffffffffffffffffffffffff1673ffffffffffffffffffffffffffffffffffffffff16815260200190815260200160002060090160009054906101000a900473ffffffffffffffffffffffffffffffffffffffff169450600073ffffffffffffffffffffffffffffffffffffffff168573ffffffffffffffffffffffffffffffffffffffff1603614692575050505050614929565b6146dd601360008773ffffffffffffffffffffffffffffffffffffffff1673ffffffffffffffffffffffffffffffffffffffff168152602001908152602001600020600a0184614990565b6149105783601360008773ffffffffffffffffffffffffffffffffffffffff1673ffffffffffffffffffffffffffffffffffffffff168152602001908152602001600020600001541480156147325750600082115b156147da577f0000000000000000000000000000000000000000000000000000000000000000600f600201548761476991906151c8565b6147739190615239565b601360008773ffffffffffffffffffffffffffffffffffffffff1673ffffffffffffffffffffffffffffffffffffffff16815260200190815260200160002060030160008282546147c4919061526a565b9250508190555081806147d690615be5565b9250505b83601360008773ffffffffffffffffffffffffffffffffffffffff1673ffffffffffffffffffffffffffffffffffffffff16815260200190815260200160002060000154111561490f57601360008673ffffffffffffffffffffffffffffffffffffffff1673ffffffffffffffffffffffffffffffffffffffff1681526020019081526020016000206000015493507f0000000000000000000000000000000000000000000000000000000000000000600f600301600086815260200190815260200160002054876148ac91906151c8565b6148b69190615239565b601360008773ffffffffffffffffffffffffffffffffffffffff1673ffffffffffffffffffffffffffffffffffffffff1681526020019081526020016000206005016000828254614907919061526a565b925050819055505b5b808061491b906152fc565b91505061459d565b50505050505b50565b6060600061493c83600001614a50565b905060608190508092505050919050565b600061495b82600001614aac565b9050919050565b60006149718360000183614262565b905092915050565b60006149888360000183614abd565b905092915050565b6000805b8380549050811015614a445782601360008684815481106149b8576149b76152cd565b5b9060005260206000200160009054906101000a900473ffffffffffffffffffffffffffffffffffffffff1673ffffffffffffffffffffffffffffffffffffffff1673ffffffffffffffffffffffffffffffffffffffff168152602001908152602001600020600101541115614a31576000915050614a4a565b8080614a3c906152fc565b915050614994565b50600190505b92915050565b606081600001805480602002602001604051908101604052809291908181526020018280548015614aa057602002820191906000526020600020905b815481526020019060010190808311614a8c575b50505050509050919050565b600081600001805490509050919050565b60008083600101600084815260200190815260200160002054905060008114614bc5576000600182614aef9190615194565b9050600060018660000180549050614b079190615194565b9050818114614b76576000866000018281548110614b2857614b276152cd565b5b9060005260206000200154905080876000018481548110614b4c57614b4b6152cd565b5b90600052602060002001819055508387600101600083815260200190815260200160002081905550505b85600001805480614b8a57614b89615c0e565b5b600190038181906000526020600020016000905590558560010160008681526020019081526020016000206000905560019350505050614bcb565b60009150505b92915050565b60405180606001604052806000815260200160008152602001600081525090565b604051806040016040528060008152602001600081525090565b6040518060800160405280600081526020016000815260200160008152602001600081525090565b600080fd5b600073ffffffffffffffffffffffffffffffffffffffff82169050919050565b6000614c6482614c39565b9050919050565b614c7481614c59565b8114614c7f57600080fd5b50565b600081359050614c9181614c6b565b92915050565b600060208284031215614cad57614cac614c34565b5b6000614cbb84828501614c82565b91505092915050565b6000819050919050565b614cd781614cc4565b82525050565b6000602082019050614cf26000830184614cce565b92915050565b6000819050919050565b6000614d1d614d18614d1384614c39565b614cf8565b614c39565b9050919050565b6000614d2f82614d02565b9050919050565b6000614d4182614d24565b9050919050565b614d5181614d36565b82525050565b6000602082019050614d6c6000830184614d48565b92915050565b6000614d7d82614d24565b9050919050565b614d8d81614d72565b82525050565b600060a082019050614da86000830188614cce565b614db56020830187614d48565b614dc26040830186614d84565b614dcf6060830185614cce565b614ddc6080830184614cce565b9695505050505050565b6000602082019050614dfb6000830184614d84565b92915050565b600081519050919050565b600082825260208201905092915050565b6000819050602082019050919050565b614e3681614cc4565b82525050565b606082016000820151614e526000850182614e2d565b506020820151614e656020850182614e2d565b506040820151614e786040850182614e2d565b50505050565b6000614e8a8383614e3c565b60608301905092915050565b6000602082019050919050565b6000614eae82614e01565b614eb88185614e0c565b9350614ec383614e1d565b8060005b83811015614ef4578151614edb8882614e7e565b9750614ee683614e96565b925050600181019050614ec7565b5085935050505092915050565b60006020820190508181036000830152614f1b8184614ea3565b905092915050565b614f2c81614cc4565b8114614f3757600080fd5b50565b600081359050614f4981614f23565b92915050565b60008060408385031215614f6657614f65614c34565b5b6000614f7485828601614f3a565b9250506020614f8585828601614c82565b9150509250929050565b614f9881614c59565b82525050565b6000602082019050614fb36000830184614f8f565b92915050565b604082016000820151614fcf6000850182614e2d565b506020820151614fe26020850182614e2d565b50505050565b6000604082019050614ffd6000830184614fb9565b92915050565b60006020828403121561501957615018614c34565b5b600061502784828501614f3a565b91505092915050565b6080820160008201516150466000850182614e2d565b5060208201516150596020850182614e2d565b50604082015161506c6040850182614e2d565b50606082015161507f6060850182614e2d565b50505050565b600060808201905061509a6000830184615030565b92915050565b60006040820190506150b56000830185614cce565b6150c26020830184614cce565b9392505050565b6000610140820190506150df600083018d614cce565b6150ec602083018c614cce565b6150f9604083018b614cce565b615106606083018a614cce565b6151136080830189614cce565b61512060a0830188614cce565b61512d60c0830187614cce565b61513a60e0830186614cce565b615148610100830185614cce565b615156610120830184614f8f565b9b9a5050505050505050505050565b7f4e487b7100000000000000000000000000000000000000000000000000000000600052601160045260246000fd5b600061519f82614cc4565b91506151aa83614cc4565b92508282039050818111156151c2576151c1615165565b5b92915050565b60006151d382614cc4565b91506151de83614cc4565b92508282026151ec81614cc4565b9150828204841483151761520357615202615165565b5b5092915050565b7f4e487b7100000000000000000000000000000000000000000000000000000000600052601260045260246000fd5b600061524482614cc4565b915061524f83614cc4565b92508261525f5761525e61520a565b5b828204905092915050565b600061527582614cc4565b915061528083614cc4565b925082820190508082111561529857615297615165565b5b92915050565b7f4e487b7100000000000000000000000000000000000000000000000000000000600052604160045260246000fd5b7f4e487b7100000000000000000000000000000000000000000000000000000000600052603260045260246000fd5b600061530782614cc4565b91507fffffffffffffffffffffffffffffffffffffffffffffffffffffffffffffffff820361533957615338615165565b5b600182019050919050565b600082825260208201905092915050565b7f6572726f72000000000000000000000000000000000000000000000000000000600082015250565b600061538b600583615344565b915061539682615355565b602082019050919050565b600060208201905081810360008301526153ba8161537e565b9050919050565b7f496e766573746d656e74206c696d697400000000000000000000000000000000600082015250565b60006153f7601083615344565b9150615402826153c1565b602082019050919050565b60006020820190508181036000830152615426816153ea565b9050919050565b60008151905061543c81614c6b565b92915050565b60006020828403121561545857615457614c34565b5b60006154668482850161542d565b91505092915050565b60006dffffffffffffffffffffffffffff82169050919050565b6154928161546f565b811461549d57600080fd5b50565b6000815190506154af81615489565b92915050565b600063ffffffff82169050919050565b6154ce816154b5565b81146154d957600080fd5b50565b6000815190506154eb816154c5565b92915050565b60008060006060848603121561550a57615509614c34565b5b6000615518868287016154a0565b9350506020615529868287016154a0565b925050604061553a868287016154dc565b9150509250925092565b7f726577617264203c203000000000000000000000000000000000000000000000600082015250565b600061557a600a83615344565b915061558582615544565b602082019050919050565b600060208201905081810360008301526155a98161556d565b9050919050565b7f4f776e61626c653a206e6577206f776e657220697320746865207a65726f206160008201527f6464726573730000000000000000000000000000000000000000000000000000602082015250565b600061560c602683615344565b9150615617826155b0565b604082019050919050565b6000602082019050818103600083015261563b816155ff565b9050919050565b60006040820190506156576000830185614f8f565b6156646020830184614cce565b9392505050565b60008115159050919050565b6156808161566b565b811461568b57600080fd5b50565b60008151905061569d81615677565b92915050565b6000602082840312156156b9576156b8614c34565b5b60006156c78482850161568e565b91505092915050565b6000819050919050565b60006156f56156f06156eb846156d0565b614cf8565b614cc4565b9050919050565b615705816156da565b82525050565b600060c0820190506157206000830189614f8f565b61572d6020830188614cce565b61573a60408301876156fc565b61574760608301866156fc565b6157546080830185614f8f565b61576160a0830184614cce565b979650505050505050565b60008151905061577b81614f23565b92915050565b6000806040838503121561579857615797614c34565b5b60006157a68582860161576c565b92505060206157b78582860161576c565b9150509250929050565b7f43616e6e6f742077697468647261772030000000000000000000000000000000600082015250565b60006157f7601183615344565b9150615802826157c1565b602082019050919050565b60006020820190508181036000830152615826816157ea565b9050919050565b7f5265656e7472616e637947756172643a207265656e7472616e742063616c6c00600082015250565b6000615863601f83615344565b915061586e8261582d565b602082019050919050565b6000602082019050818103600083015261589281615856565b9050919050565b60008160011c9050919050565b6000808291508390505b60018511156158f0578086048111156158cc576158cb615165565b5b60018516156158db5780820291505b80810290506158e985615899565b94506158b0565b94509492505050565b60008261590957600190506159c5565b8161591757600090506159c5565b816001811461592d576002811461593757615966565b60019150506159c5565b60ff84111561594957615948615165565b5b8360020a9150848211156159605761595f615165565b5b506159c5565b5060208310610133831016604e8410600b841016171561599b5782820a90508381111561599657615995615165565b5b6159c5565b6159a884848460016158a6565b925090508184048111156159bf576159be615165565b5b81810290505b9392505050565b60006159d782614cc4565b91506159e283614cc4565b9250615a0f7fffffffffffffffffffffffffffffffffffffffffffffffffffffffffffffffff84846158f9565b905092915050565b7f4f776e61626c653a2063616c6c6572206973206e6f7420746865206f776e6572600082015250565b6000615a4d602083615344565b9150615a5882615a17565b602082019050919050565b60006020820190508181036000830152615a7c81615a40565b9050919050565b6000606082019050615a986000830186614f8f565b615aa56020830185614f8f565b615ab26040830184614cce565b949350505050565b600080600060608486031215615ad357615ad2614c34565b5b6000615ae18682870161576c565b9350506020615af28682870161576c565b9250506040615b038682870161576c565b9150509250925092565b7f43616e6e6f74207374616b652030000000000000000000000000000000000000600082015250565b6000615b43600e83615344565b9150615b4e82615b0d565b602082019050919050565b60006020820190508181036000830152615b7281615b36565b9050919050565b7f456e756d657261626c654d61703a206e6f6e6578697374656e74206b65790000600082015250565b6000615baf601e83615344565b9150615bba82615b79565b602082019050919050565b60006020820190508181036000830152615bde81615ba2565b9050919050565b6000615bf082614cc4565b915060008203615c0357615c02615165565b5b600182039050919050565b7f4e487b7100000000000000000000000000000000000000000000000000000000600052603160045260246000fdfea2646970667358221220cd6c502d68467f700bf3a60cf71d9e7bf6064d750913c82de84fc014cc7c735a64736f6c63430008110033",
			"opcodes": "PUSH1 0xC0 PUSH1 0x40 MSTORE PUSH6 0x9184E72A000 PUSH1 0x80 SWAP1 DUP2 MSTORE POP PUSH2 0x2710 PUSH1 0xA0 SWAP1 DUP2 MSTORE POP PUSH1 0x0 PUSH1 0x2 SSTORE PUSH2 0x2710 PUSH1 0x3 SSTORE CALLVALUE DUP1 ISZERO PUSH3 0x32 JUMPI PUSH1 0x0 DUP1 REVERT JUMPDEST POP PUSH1 0x40 MLOAD PUSH3 0x650C CODESIZE SUB DUP1 PUSH3 0x650C DUP4 CODECOPY DUP2 DUP2 ADD PUSH1 0x40 MSTORE DUP2 ADD SWAP1 PUSH3 0x58 SWAP2 SWAP1 PUSH3 0x6DD JUMP JUMPDEST DUP3 PUSH1 0x7 PUSH1 0x1 PUSH1 0x0 DUP2 SWAP1 SSTORE POP PUSH3 0x83 PUSH3 0x77 PUSH3 0x480 PUSH1 0x20 SHL PUSH1 0x20 SHR JUMP JUMPDEST PUSH3 0x488 PUSH1 0x20 SHL PUSH1 0x20 SHR JUMP JUMPDEST PUSH1 0x80 MLOAD PUSH4 0x11E1A300 PUSH3 0x97 SWAP2 SWAP1 PUSH3 0x772 JUMP JUMPDEST PUSH1 0x7 DUP2 SWAP1 SSTORE POP DUP1 PUSH1 0xF PUSH1 0x0 ADD DUP2 SWAP1 SSTORE POP PUSH1 0x64 PUSH1 0xF PUSH1 0x2 ADD DUP2 SWAP1 SSTORE POP PUSH1 0xF PUSH1 0x1 ADD PUSH2 0x5DC SWAP1 DUP1 PUSH1 0x1 DUP2 SLOAD ADD DUP1 DUP3 SSTORE DUP1 SWAP2 POP POP PUSH1 0x1 SWAP1 SUB SWAP1 PUSH1 0x0 MSTORE PUSH1 0x20 PUSH1 0x0 KECCAK256 ADD PUSH1 0x0 SWAP1 SWAP2 SWAP1 SWAP2 SWAP1 SWAP2 POP SSTORE PUSH1 0xF PUSH1 0x1 ADD PUSH2 0x9C4 SWAP1 DUP1 PUSH1 0x1 DUP2 SLOAD ADD DUP1 DUP3 SSTORE DUP1 SWAP2 POP POP PUSH1 0x1 SWAP1 SUB SWAP1 PUSH1 0x0 MSTORE PUSH1 0x20 PUSH1 0x0 KECCAK256 ADD PUSH1 0x0 SWAP1 SWAP2 SWAP1 SWAP2 SWAP1 SWAP2 POP SSTORE PUSH3 0x13D PUSH1 0x80 MLOAD PUSH2 0x4E20 PUSH3 0x124 SWAP2 SWAP1 PUSH3 0x772 JUMP JUMPDEST PUSH1 0x2 PUSH1 0xC PUSH3 0x54E PUSH1 0x20 SHL PUSH3 0x21BD OR SWAP1 SWAP3 SWAP2 SWAP1 PUSH1 0x20 SHR JUMP JUMPDEST POP PUSH3 0x16D PUSH1 0x80 MLOAD PUSH2 0xC350 PUSH3 0x154 SWAP2 SWAP1 PUSH3 0x772 JUMP JUMPDEST PUSH1 0x4 PUSH1 0xC PUSH3 0x54E PUSH1 0x20 SHL PUSH3 0x21BD OR SWAP1 SWAP3 SWAP2 SWAP1 PUSH1 0x20 SHR JUMP JUMPDEST POP PUSH3 0x19E PUSH1 0x80 MLOAD PUSH3 0x186A0 PUSH3 0x185 SWAP2 SWAP1 PUSH3 0x772 JUMP JUMPDEST PUSH1 0x8 PUSH1 0xC PUSH3 0x54E PUSH1 0x20 SHL PUSH3 0x21BD OR SWAP1 SWAP3 SWAP2 SWAP1 PUSH1 0x20 SHR JUMP JUMPDEST POP PUSH3 0x1CF PUSH1 0x80 MLOAD PUSH3 0x30D40 PUSH3 0x1B6 SWAP2 SWAP1 PUSH3 0x772 JUMP JUMPDEST PUSH1 0x10 PUSH1 0xC PUSH3 0x54E PUSH1 0x20 SHL PUSH3 0x21BD OR SWAP1 SWAP3 SWAP2 SWAP1 PUSH1 0x20 SHR JUMP JUMPDEST POP PUSH3 0x200 PUSH1 0x80 MLOAD PUSH3 0x7A120 PUSH3 0x1E7 SWAP2 SWAP1 PUSH3 0x772 JUMP JUMPDEST PUSH1 0x20 PUSH1 0xC PUSH3 0x54E PUSH1 0x20 SHL PUSH3 0x21BD OR SWAP1 SWAP3 SWAP2 SWAP1 PUSH1 0x20 SHR JUMP JUMPDEST POP PUSH1 0xC8 PUSH1 0xF PUSH1 0x3 ADD PUSH1 0x0 PUSH1 0x2 DUP2 MSTORE PUSH1 0x20 ADD SWAP1 DUP2 MSTORE PUSH1 0x20 ADD PUSH1 0x0 KECCAK256 DUP2 SWAP1 SSTORE POP PUSH2 0x190 PUSH1 0xF PUSH1 0x3 ADD PUSH1 0x0 PUSH1 0x4 DUP2 MSTORE PUSH1 0x20 ADD SWAP1 DUP2 MSTORE PUSH1 0x20 ADD PUSH1 0x0 KECCAK256 DUP2 SWAP1 SSTORE POP PUSH2 0x258 PUSH1 0xF PUSH1 0x3 ADD PUSH1 0x0 PUSH1 0x8 DUP2 MSTORE PUSH1 0x20 ADD SWAP1 DUP2 MSTORE PUSH1 0x20 ADD PUSH1 0x0 KECCAK256 DUP2 SWAP1 SSTORE POP PUSH2 0x320 PUSH1 0xF PUSH1 0x3 ADD PUSH1 0x0 PUSH1 0x10 DUP2 MSTORE PUSH1 0x20 ADD SWAP1 DUP2 MSTORE PUSH1 0x20 ADD PUSH1 0x0 KECCAK256 DUP2 SWAP1 SSTORE POP PUSH2 0x3E8 PUSH1 0xF PUSH1 0x3 ADD PUSH1 0x0 PUSH1 0x20 DUP2 MSTORE PUSH1 0x20 ADD SWAP1 DUP2 MSTORE PUSH1 0x20 ADD PUSH1 0x0 KECCAK256 DUP2 SWAP1 SSTORE POP POP DUP1 PUSH1 0x14 PUSH1 0x0 PUSH2 0x100 EXP DUP2 SLOAD DUP2 PUSH20 0xFFFFFFFFFFFFFFFFFFFFFFFFFFFFFFFFFFFFFFFF MUL NOT AND SWAP1 DUP4 PUSH20 0xFFFFFFFFFFFFFFFFFFFFFFFFFFFFFFFFFFFFFFFF AND MUL OR SWAP1 SSTORE POP POP PUSH1 0x80 MLOAD PUSH4 0x17D7840 PUSH3 0x2ED SWAP2 SWAP1 PUSH3 0x772 JUMP JUMPDEST PUSH1 0x15 DUP2 SWAP1 SSTORE POP PUSH3 0x323 PUSH1 0x80 MLOAD PUSH2 0x3E8 PUSH3 0x309 SWAP2 SWAP1 PUSH3 0x772 JUMP JUMPDEST PUSH2 0x320 PUSH1 0x16 PUSH3 0x54E PUSH1 0x20 SHL PUSH3 0x21BD OR SWAP1 SWAP3 SWAP2 SWAP1 PUSH1 0x20 SHR JUMP JUMPDEST POP PUSH3 0x353 PUSH1 0x80 MLOAD PUSH2 0x7D0 PUSH3 0x33A SWAP2 SWAP1 PUSH3 0x772 JUMP JUMPDEST PUSH1 0xC8 PUSH1 0x16 PUSH3 0x54E PUSH1 0x20 SHL PUSH3 0x21BD OR SWAP1 SWAP3 SWAP2 SWAP1 PUSH1 0x20 SHR JUMP JUMPDEST POP PUSH2 0x2BC PUSH1 0x20 PUSH1 0x0 PUSH1 0x3 DUP2 MSTORE PUSH1 0x20 ADD SWAP1 DUP2 MSTORE PUSH1 0x20 ADD PUSH1 0x0 KECCAK256 DUP2 SWAP1 SSTORE POP PUSH2 0x320 PUSH1 0x20 PUSH1 0x0 PUSH1 0x5 DUP2 MSTORE PUSH1 0x20 ADD SWAP1 DUP2 MSTORE PUSH1 0x20 ADD PUSH1 0x0 KECCAK256 DUP2 SWAP1 SSTORE POP PUSH4 0x9660180 PUSH1 0x21 PUSH1 0x0 PUSH1 0x5 DUP2 MSTORE PUSH1 0x20 ADD SWAP1 DUP2 MSTORE PUSH1 0x20 ADD PUSH1 0x0 KECCAK256 DUP2 SWAP1 SSTORE POP PUSH4 0x5A39A80 PUSH1 0x21 PUSH1 0x0 PUSH1 0x3 DUP2 MSTORE PUSH1 0x20 ADD SWAP1 DUP2 MSTORE PUSH1 0x20 ADD PUSH1 0x0 KECCAK256 DUP2 SWAP1 SSTORE POP DUP2 PUSH1 0x1A PUSH1 0x1 ADD PUSH1 0x0 PUSH2 0x100 EXP DUP2 SLOAD DUP2 PUSH20 0xFFFFFFFFFFFFFFFFFFFFFFFFFFFFFFFFFFFFFFFF MUL NOT AND SWAP1 DUP4 PUSH20 0xFFFFFFFFFFFFFFFFFFFFFFFFFFFFFFFFFFFFFFFF AND MUL OR SWAP1 SSTORE POP DUP1 PUSH1 0x1A PUSH1 0x2 ADD PUSH1 0x0 PUSH2 0x100 EXP DUP2 SLOAD DUP2 PUSH20 0xFFFFFFFFFFFFFFFFFFFFFFFFFFFFFFFFFFFFFFFF MUL NOT AND SWAP1 DUP4 PUSH20 0xFFFFFFFFFFFFFFFFFFFFFFFFFFFFFFFFFFFFFFFF AND MUL OR SWAP1 SSTORE POP PUSH2 0x1F4 PUSH1 0x1A PUSH1 0x0 ADD DUP2 SWAP1 SSTORE POP PUSH10 0x21E19E0C9BAB2400000 PUSH1 0x1A PUSH1 0x3 ADD DUP2 SWAP1 SSTORE POP PUSH1 0x5 PUSH1 0x1A PUSH1 0x4 ADD DUP2 SWAP1 SSTORE POP POP POP POP PUSH3 0x7BD JUMP JUMPDEST PUSH1 0x0 CALLER SWAP1 POP SWAP1 JUMP JUMPDEST PUSH1 0x0 PUSH1 0x1 PUSH1 0x0 SWAP1 SLOAD SWAP1 PUSH2 0x100 EXP SWAP1 DIV PUSH20 0xFFFFFFFFFFFFFFFFFFFFFFFFFFFFFFFFFFFFFFFF AND SWAP1 POP DUP2 PUSH1 0x1 PUSH1 0x0 PUSH2 0x100 EXP DUP2 SLOAD DUP2 PUSH20 0xFFFFFFFFFFFFFFFFFFFFFFFFFFFFFFFFFFFFFFFF MUL NOT AND SWAP1 DUP4 PUSH20 0xFFFFFFFFFFFFFFFFFFFFFFFFFFFFFFFFFFFFFFFF AND MUL OR SWAP1 SSTORE POP DUP2 PUSH20 0xFFFFFFFFFFFFFFFFFFFFFFFFFFFFFFFFFFFFFFFF AND DUP2 PUSH20 0xFFFFFFFFFFFFFFFFFFFFFFFFFFFFFFFFFFFFFFFF AND PUSH32 0x8BE0079C531659141344CD1FD0A4F28419497F9722A3DAAFE3B4186F6B6457E0 PUSH1 0x40 MLOAD PUSH1 0x40 MLOAD DUP1 SWAP2 SUB SWAP1 LOG3 POP POP JUMP JUMPDEST PUSH1 0x0 PUSH3 0x56C DUP5 PUSH1 0x0 ADD DUP5 PUSH1 0x0 SHL DUP5 PUSH1 0x0 SHL PUSH3 0x575 PUSH1 0x20 SHL PUSH1 0x20 SHR JUMP JUMPDEST SWAP1 POP SWAP4 SWAP3 POP POP POP JUMP JUMPDEST PUSH1 0x0 DUP2 DUP5 PUSH1 0x2 ADD PUSH1 0x0 DUP6 DUP2 MSTORE PUSH1 0x20 ADD SWAP1 DUP2 MSTORE PUSH1 0x20 ADD PUSH1 0x0 KECCAK256 DUP2 SWAP1 SSTORE POP PUSH3 0x5AE DUP4 DUP6 PUSH1 0x0 ADD PUSH3 0x5B7 PUSH1 0x20 SHL PUSH3 0x21DC OR SWAP1 SWAP2 SWAP1 PUSH1 0x20 SHR JUMP JUMPDEST SWAP1 POP SWAP4 SWAP3 POP POP POP JUMP JUMPDEST PUSH1 0x0 PUSH3 0x5CE DUP4 PUSH1 0x0 ADD DUP4 PUSH3 0x5D6 PUSH1 0x20 SHL PUSH1 0x20 SHR JUMP JUMPDEST SWAP1 POP SWAP3 SWAP2 POP POP JUMP JUMPDEST PUSH1 0x0 PUSH3 0x5EA DUP4 DUP4 PUSH3 0x650 PUSH1 0x20 SHL PUSH1 0x20 SHR JUMP JUMPDEST PUSH3 0x645 JUMPI DUP3 PUSH1 0x0 ADD DUP3 SWAP1 DUP1 PUSH1 0x1 DUP2 SLOAD ADD DUP1 DUP3 SSTORE DUP1 SWAP2 POP POP PUSH1 0x1 SWAP1 SUB SWAP1 PUSH1 0x0 MSTORE PUSH1 0x20 PUSH1 0x0 KECCAK256 ADD PUSH1 0x0 SWAP1 SWAP2 SWAP1 SWAP2 SWAP1 SWAP2 POP SSTORE DUP3 PUSH1 0x0 ADD DUP1 SLOAD SWAP1 POP DUP4 PUSH1 0x1 ADD PUSH1 0x0 DUP5 DUP2 MSTORE PUSH1 0x20 ADD SWAP1 DUP2 MSTORE PUSH1 0x20 ADD PUSH1 0x0 KECCAK256 DUP2 SWAP1 SSTORE POP PUSH1 0x1 SWAP1 POP PUSH3 0x64A JUMP JUMPDEST PUSH1 0x0 SWAP1 POP JUMPDEST SWAP3 SWAP2 POP POP JUMP JUMPDEST PUSH1 0x0 DUP1 DUP4 PUSH1 0x1 ADD PUSH1 0x0 DUP5 DUP2 MSTORE PUSH1 0x20 ADD SWAP1 DUP2 MSTORE PUSH1 0x20 ADD PUSH1 0x0 KECCAK256 SLOAD EQ ISZERO SWAP1 POP SWAP3 SWAP2 POP POP JUMP JUMPDEST PUSH1 0x0 DUP1 REVERT JUMPDEST PUSH1 0x0 PUSH20 0xFFFFFFFFFFFFFFFFFFFFFFFFFFFFFFFFFFFFFFFF DUP3 AND SWAP1 POP SWAP2 SWAP1 POP JUMP JUMPDEST PUSH1 0x0 PUSH3 0x6A5 DUP3 PUSH3 0x678 JUMP JUMPDEST SWAP1 POP SWAP2 SWAP1 POP JUMP JUMPDEST PUSH3 0x6B7 DUP2 PUSH3 0x698 JUMP JUMPDEST DUP2 EQ PUSH3 0x6C3 JUMPI PUSH1 0x0 DUP1 REVERT JUMPDEST POP JUMP JUMPDEST PUSH1 0x0 DUP2 MLOAD SWAP1 POP PUSH3 0x6D7 DUP2 PUSH3 0x6AC JUMP JUMPDEST SWAP3 SWAP2 POP POP JUMP JUMPDEST PUSH1 0x0 DUP1 PUSH1 0x0 PUSH1 0x60 DUP5 DUP7 SUB SLT ISZERO PUSH3 0x6F9 JUMPI PUSH3 0x6F8 PUSH3 0x673 JUMP JUMPDEST JUMPDEST PUSH1 0x0 PUSH3 0x709 DUP7 DUP3 DUP8 ADD PUSH3 0x6C6 JUMP JUMPDEST SWAP4 POP POP PUSH1 0x20 PUSH3 0x71C DUP7 DUP3 DUP8 ADD PUSH3 0x6C6 JUMP JUMPDEST SWAP3 POP POP PUSH1 0x40 PUSH3 0x72F DUP7 DUP3 DUP8 ADD PUSH3 0x6C6 JUMP JUMPDEST SWAP2 POP POP SWAP3 POP SWAP3 POP SWAP3 JUMP JUMPDEST PUSH1 0x0 DUP2 SWAP1 POP SWAP2 SWAP1 POP JUMP JUMPDEST PUSH32 0x4E487B7100000000000000000000000000000000000000000000000000000000 PUSH1 0x0 MSTORE PUSH1 0x11 PUSH1 0x4 MSTORE PUSH1 0x24 PUSH1 0x0 REVERT JUMPDEST PUSH1 0x0 PUSH3 0x77F DUP3 PUSH3 0x739 JUMP JUMPDEST SWAP2 POP PUSH3 0x78C DUP4 PUSH3 0x739 JUMP JUMPDEST SWAP3 POP DUP3 DUP3 MUL PUSH3 0x79C DUP2 PUSH3 0x739 JUMP JUMPDEST SWAP2 POP DUP3 DUP3 DIV DUP5 EQ DUP4 ISZERO OR PUSH3 0x7B6 JUMPI PUSH3 0x7B5 PUSH3 0x743 JUMP JUMPDEST JUMPDEST POP SWAP3 SWAP2 POP POP JUMP JUMPDEST PUSH1 0x80 MLOAD PUSH1 0xA0 MLOAD PUSH2 0x5C73 PUSH3 0x899 PUSH1 0x0 CODECOPY PUSH1 0x0 DUP2 DUP2 PUSH2 0xAE4 ADD MSTORE DUP2 DUP2 PUSH2 0xB0B ADD MSTORE DUP2 DUP2 PUSH2 0xEAA ADD MSTORE DUP2 DUP2 PUSH2 0xF25 ADD MSTORE DUP2 DUP2 PUSH2 0x181B ADD MSTORE DUP2 DUP2 PUSH2 0x1866 ADD MSTORE DUP2 DUP2 PUSH2 0x1B66 ADD MSTORE DUP2 DUP2 PUSH2 0x1F4D ADD MSTORE DUP2 DUP2 PUSH2 0x230A ADD MSTORE DUP2 DUP2 PUSH2 0x2A03 ADD MSTORE DUP2 DUP2 PUSH2 0x2A7E ADD MSTORE DUP2 DUP2 PUSH2 0x32A7 ADD MSTORE DUP2 DUP2 PUSH2 0x3D8A ADD MSTORE DUP2 DUP2 PUSH2 0x3E05 ADD MSTORE DUP2 DUP2 PUSH2 0x443B ADD MSTORE DUP2 DUP2 PUSH2 0x4739 ADD MSTORE PUSH2 0x486B ADD MSTORE PUSH1 0x0 DUP2 DUP2 PUSH2 0x1B40 ADD MSTORE DUP2 DUP2 PUSH2 0x2DA1 ADD MSTORE DUP2 DUP2 PUSH2 0x2DD5 ADD MSTORE DUP2 DUP2 PUSH2 0x2E09 ADD MSTORE DUP2 DUP2 PUSH2 0x2E3D ADD MSTORE DUP2 DUP2 PUSH2 0x2E71 ADD MSTORE DUP2 DUP2 PUSH2 0x2EA5 ADD MSTORE DUP2 DUP2 PUSH2 0x2EDA ADD MSTORE DUP2 DUP2 PUSH2 0x2F0F ADD MSTORE DUP2 DUP2 PUSH2 0x2F44 ADD MSTORE PUSH2 0x2F79 ADD MSTORE PUSH2 0x5C73 PUSH1 0x0 RETURN INVALID PUSH1 0x80 PUSH1 0x40 MSTORE PUSH1 0x4 CALLDATASIZE LT PUSH2 0x224 JUMPI PUSH1 0x0 CALLDATALOAD PUSH1 0xE0 SHR DUP1 PUSH4 0x8B876347 GT PUSH2 0x123 JUMPI DUP1 PUSH4 0xC8F33C91 GT PUSH2 0xAB JUMPI DUP1 PUSH4 0xDF136D65 GT PUSH2 0x6F JUMPI DUP1 PUSH4 0xDF136D65 EQ PUSH2 0x7BE JUMPI DUP1 PUSH4 0xE2EB41FF EQ PUSH2 0x7E9 JUMPI DUP1 PUSH4 0xE9FAD8EE EQ PUSH2 0x82F JUMPI DUP1 PUSH4 0xEBE2B12B EQ PUSH2 0x846 JUMPI DUP1 PUSH4 0xF2FDE38B EQ PUSH2 0x871 JUMPI PUSH2 0x224 JUMP JUMPDEST DUP1 PUSH4 0xC8F33C91 EQ PUSH2 0x6E8 JUMPI DUP1 PUSH4 0xCB6CD705 EQ PUSH2 0x713 JUMPI DUP1 PUSH4 0xCD3DAF9D EQ PUSH2 0x73F JUMPI DUP1 PUSH4 0xD037A6EB EQ PUSH2 0x76A JUMPI DUP1 PUSH4 0xD1337F3F EQ PUSH2 0x7A7 JUMPI PUSH2 0x224 JUMP JUMPDEST DUP1 PUSH4 0xB3321881 GT PUSH2 0xF2 JUMPI DUP1 PUSH4 0xB3321881 EQ PUSH2 0x5EF JUMPI DUP1 PUSH4 0xB6A53112 EQ PUSH2 0x61A JUMPI DUP1 PUSH4 0xBAC61DB7 EQ PUSH2 0x657 JUMPI DUP1 PUSH4 0xC4A15DBE EQ PUSH2 0x694 JUMPI DUP1 PUSH4 0xC7E979EC EQ PUSH2 0x6D1 JUMPI PUSH2 0x224 JUMP JUMPDEST DUP1 PUSH4 0x8B876347 EQ PUSH2 0x545 JUMPI DUP1 PUSH4 0x8DA5CB5B EQ PUSH2 0x582 JUMPI DUP1 PUSH4 0xA0EF91DF EQ PUSH2 0x5AD JUMPI DUP1 PUSH4 0xA79B7A66 EQ PUSH2 0x5C4 JUMPI PUSH2 0x224 JUMP JUMPDEST DUP1 PUSH4 0x5A711FE9 GT PUSH2 0x1B1 JUMPI DUP1 PUSH4 0x715018A6 GT PUSH2 0x175 JUMPI DUP1 PUSH4 0x715018A6 EQ PUSH2 0x4A5 JUMPI DUP1 PUSH4 0x76A5B275 EQ PUSH2 0x4BC JUMPI DUP1 PUSH4 0x7ACB7757 EQ PUSH2 0x4D3 JUMPI DUP1 PUSH4 0x7B0A47EE EQ PUSH2 0x4EF JUMPI DUP1 PUSH4 0x80FAA57D EQ PUSH2 0x51A JUMPI PUSH2 0x224 JUMP JUMPDEST DUP1 PUSH4 0x5A711FE9 EQ PUSH2 0x3BE JUMPI DUP1 PUSH4 0x6434EE0E EQ PUSH2 0x3D5 JUMPI DUP1 PUSH4 0x6AED3616 EQ PUSH2 0x400 JUMPI DUP1 PUSH4 0x6B31EE01 EQ PUSH2 0x43D JUMPI DUP1 PUSH4 0x70A08231 EQ PUSH2 0x468 JUMPI PUSH2 0x224 JUMP JUMPDEST DUP1 PUSH4 0x1B85C5F4 GT PUSH2 0x1F8 JUMPI DUP1 PUSH4 0x1B85C5F4 EQ PUSH2 0x2F9 JUMPI DUP1 PUSH4 0x370158EA EQ PUSH2 0x336 JUMPI DUP1 PUSH4 0x3CCFD60B EQ PUSH2 0x365 JUMPI DUP1 PUSH4 0x3D18B912 EQ PUSH2 0x37C JUMPI DUP1 PUSH4 0x56E4BC1F EQ PUSH2 0x393 JUMPI PUSH2 0x224 JUMP JUMPDEST DUP1 PUSH3 0x8CC262 EQ PUSH2 0x229 JUMPI DUP1 PUSH4 0x700037D EQ PUSH2 0x266 JUMPI DUP1 PUSH4 0x18160DDD EQ PUSH2 0x2A3 JUMPI DUP1 PUSH4 0x1ABFA629 EQ PUSH2 0x2CE JUMPI JUMPDEST PUSH1 0x0 DUP1 REVERT JUMPDEST CALLVALUE DUP1 ISZERO PUSH2 0x235 JUMPI PUSH1 0x0 DUP1 REVERT JUMPDEST POP PUSH2 0x250 PUSH1 0x4 DUP1 CALLDATASIZE SUB DUP2 ADD SWAP1 PUSH2 0x24B SWAP2 SWAP1 PUSH2 0x4C97 JUMP JUMPDEST PUSH2 0x89A JUMP JUMPDEST PUSH1 0x40 MLOAD PUSH2 0x25D SWAP2 SWAP1 PUSH2 0x4CDD JUMP JUMPDEST PUSH1 0x40 MLOAD DUP1 SWAP2 SUB SWAP1 RETURN JUMPDEST CALLVALUE DUP1 ISZERO PUSH2 0x272 JUMPI PUSH1 0x0 DUP1 REVERT JUMPDEST POP PUSH2 0x28D PUSH1 0x4 DUP1 CALLDATASIZE SUB DUP2 ADD SWAP1 PUSH2 0x288 SWAP2 SWAP1 PUSH2 0x4C97 JUMP JUMPDEST PUSH2 0x99C JUMP JUMPDEST PUSH1 0x40 MLOAD PUSH2 0x29A SWAP2 SWAP1 PUSH2 0x4CDD JUMP JUMPDEST PUSH1 0x40 MLOAD DUP1 SWAP2 SUB SWAP1 RETURN JUMPDEST CALLVALUE DUP1 ISZERO PUSH2 0x2AF JUMPI PUSH1 0x0 DUP1 REVERT JUMPDEST POP PUSH2 0x2B8 PUSH2 0x9B4 JUMP JUMPDEST PUSH1 0x40 MLOAD PUSH2 0x2C5 SWAP2 SWAP1 PUSH2 0x4CDD JUMP JUMPDEST PUSH1 0x40 MLOAD DUP1 SWAP2 SUB SWAP1 RETURN JUMPDEST CALLVALUE DUP1 ISZERO PUSH2 0x2DA JUMPI PUSH1 0x0 DUP1 REVERT JUMPDEST POP PUSH2 0x2E3 PUSH2 0x9BE JUMP JUMPDEST PUSH1 0x40 MLOAD PUSH2 0x2F0 SWAP2 SWAP1 PUSH2 0x4D57 JUMP JUMPDEST PUSH1 0x40 MLOAD DUP1 SWAP2 SUB SWAP1 RETURN JUMPDEST CALLVALUE DUP1 ISZERO PUSH2 0x305 JUMPI PUSH1 0x0 DUP1 REVERT JUMPDEST POP PUSH2 0x320 PUSH1 0x4 DUP1 CALLDATASIZE SUB DUP2 ADD SWAP1 PUSH2 0x31B SWAP2 SWAP1 PUSH2 0x4C97 JUMP JUMPDEST PUSH2 0x9EB JUMP JUMPDEST PUSH1 0x40 MLOAD PUSH2 0x32D SWAP2 SWAP1 PUSH2 0x4CDD JUMP JUMPDEST PUSH1 0x40 MLOAD DUP1 SWAP2 SUB SWAP1 RETURN JUMPDEST CALLVALUE DUP1 ISZERO PUSH2 0x342 JUMPI PUSH1 0x0 DUP1 REVERT JUMPDEST POP PUSH2 0x34B PUSH2 0xA03 JUMP JUMPDEST PUSH1 0x40 MLOAD PUSH2 0x35C SWAP6 SWAP5 SWAP4 SWAP3 SWAP2 SWAP1 PUSH2 0x4D93 JUMP JUMPDEST PUSH1 0x40 MLOAD DUP1 SWAP2 SUB SWAP1 RETURN JUMPDEST CALLVALUE DUP1 ISZERO PUSH2 0x371 JUMPI PUSH1 0x0 DUP1 REVERT JUMPDEST POP PUSH2 0x37A PUSH2 0xA67 JUMP JUMPDEST STOP JUMPDEST CALLVALUE DUP1 ISZERO PUSH2 0x388 JUMPI PUSH1 0x0 DUP1 REVERT JUMPDEST POP PUSH2 0x391 PUSH2 0xC5C JUMP JUMPDEST STOP JUMPDEST CALLVALUE DUP1 ISZERO PUSH2 0x39F JUMPI PUSH1 0x0 DUP1 REVERT JUMPDEST POP PUSH2 0x3A8 PUSH2 0xFFB JUMP JUMPDEST PUSH1 0x40 MLOAD PUSH2 0x3B5 SWAP2 SWAP1 PUSH2 0x4CDD JUMP JUMPDEST PUSH1 0x40 MLOAD DUP1 SWAP2 SUB SWAP1 RETURN JUMPDEST CALLVALUE DUP1 ISZERO PUSH2 0x3CA JUMPI PUSH1 0x0 DUP1 REVERT JUMPDEST POP PUSH2 0x3D3 PUSH2 0x1001 JUMP JUMPDEST STOP JUMPDEST CALLVALUE DUP1 ISZERO PUSH2 0x3E1 JUMPI PUSH1 0x0 DUP1 REVERT JUMPDEST POP PUSH2 0x3EA PUSH2 0x1150 JUMP JUMPDEST PUSH1 0x40 MLOAD PUSH2 0x3F7 SWAP2 SWAP1 PUSH2 0x4DE6 JUMP JUMPDEST PUSH1 0x40 MLOAD DUP1 SWAP2 SUB SWAP1 RETURN JUMPDEST CALLVALUE DUP1 ISZERO PUSH2 0x40C JUMPI PUSH1 0x0 DUP1 REVERT JUMPDEST POP PUSH2 0x427 PUSH1 0x4 DUP1 CALLDATASIZE SUB DUP2 ADD SWAP1 PUSH2 0x422 SWAP2 SWAP1 PUSH2 0x4C97 JUMP JUMPDEST PUSH2 0x117D JUMP JUMPDEST PUSH1 0x40 MLOAD PUSH2 0x434 SWAP2 SWAP1 PUSH2 0x4F01 JUMP JUMPDEST PUSH1 0x40 MLOAD DUP1 SWAP2 SUB SWAP1 RETURN JUMPDEST CALLVALUE DUP1 ISZERO PUSH2 0x449 JUMPI PUSH1 0x0 DUP1 REVERT JUMPDEST POP PUSH2 0x452 PUSH2 0x1542 JUMP JUMPDEST PUSH1 0x40 MLOAD PUSH2 0x45F SWAP2 SWAP1 PUSH2 0x4CDD JUMP JUMPDEST PUSH1 0x40 MLOAD DUP1 SWAP2 SUB SWAP1 RETURN JUMPDEST CALLVALUE DUP1 ISZERO PUSH2 0x474 JUMPI PUSH1 0x0 DUP1 REVERT JUMPDEST POP PUSH2 0x48F PUSH1 0x4 DUP1 CALLDATASIZE SUB DUP2 ADD SWAP1 PUSH2 0x48A SWAP2 SWAP1 PUSH2 0x4C97 JUMP JUMPDEST PUSH2 0x1548 JUMP JUMPDEST PUSH1 0x40 MLOAD PUSH2 0x49C SWAP2 SWAP1 PUSH2 0x4CDD JUMP JUMPDEST PUSH1 0x40 MLOAD DUP1 SWAP2 SUB SWAP1 RETURN JUMPDEST CALLVALUE DUP1 ISZERO PUSH2 0x4B1 JUMPI PUSH1 0x0 DUP1 REVERT JUMPDEST POP PUSH2 0x4BA PUSH2 0x1591 JUMP JUMPDEST STOP JUMPDEST CALLVALUE DUP1 ISZERO PUSH2 0x4C8 JUMPI PUSH1 0x0 DUP1 REVERT JUMPDEST POP PUSH2 0x4D1 PUSH2 0x15A5 JUMP JUMPDEST STOP JUMPDEST PUSH2 0x4ED PUSH1 0x4 DUP1 CALLDATASIZE SUB DUP2 ADD SWAP1 PUSH2 0x4E8 SWAP2 SWAP1 PUSH2 0x4F4F JUMP JUMPDEST PUSH2 0x16F4 JUMP JUMPDEST STOP JUMPDEST CALLVALUE DUP1 ISZERO PUSH2 0x4FB JUMPI PUSH1 0x0 DUP1 REVERT JUMPDEST POP PUSH2 0x504 PUSH2 0x1A4F JUMP JUMPDEST PUSH1 0x40 MLOAD PUSH2 0x511 SWAP2 SWAP1 PUSH2 0x4CDD JUMP JUMPDEST PUSH1 0x40 MLOAD DUP1 SWAP2 SUB SWAP1 RETURN JUMPDEST CALLVALUE DUP1 ISZERO PUSH2 0x526 JUMPI PUSH1 0x0 DUP1 REVERT JUMPDEST POP PUSH2 0x52F PUSH2 0x1A55 JUMP JUMPDEST PUSH1 0x40 MLOAD PUSH2 0x53C SWAP2 SWAP1 PUSH2 0x4CDD JUMP JUMPDEST PUSH1 0x40 MLOAD DUP1 SWAP2 SUB SWAP1 RETURN JUMPDEST CALLVALUE DUP1 ISZERO PUSH2 0x551 JUMPI PUSH1 0x0 DUP1 REVERT JUMPDEST POP PUSH2 0x56C PUSH1 0x4 DUP1 CALLDATASIZE SUB DUP2 ADD SWAP1 PUSH2 0x567 SWAP2 SWAP1 PUSH2 0x4C97 JUMP JUMPDEST PUSH2 0x1A7B JUMP JUMPDEST PUSH1 0x40 MLOAD PUSH2 0x579 SWAP2 SWAP1 PUSH2 0x4CDD JUMP JUMPDEST PUSH1 0x40 MLOAD DUP1 SWAP2 SUB SWAP1 RETURN JUMPDEST CALLVALUE DUP1 ISZERO PUSH2 0x58E JUMPI PUSH1 0x0 DUP1 REVERT JUMPDEST POP PUSH2 0x597 PUSH2 0x1A93 JUMP JUMPDEST PUSH1 0x40 MLOAD PUSH2 0x5A4 SWAP2 SWAP1 PUSH2 0x4F9E JUMP JUMPDEST PUSH1 0x40 MLOAD DUP1 SWAP2 SUB SWAP1 RETURN JUMPDEST CALLVALUE DUP1 ISZERO PUSH2 0x5B9 JUMPI PUSH1 0x0 DUP1 REVERT JUMPDEST POP PUSH2 0x5C2 PUSH2 0x1ABD JUMP JUMPDEST STOP JUMPDEST CALLVALUE DUP1 ISZERO PUSH2 0x5D0 JUMPI PUSH1 0x0 DUP1 REVERT JUMPDEST POP PUSH2 0x5D9 PUSH2 0x1B25 JUMP JUMPDEST PUSH1 0x40 MLOAD PUSH2 0x5E6 SWAP2 SWAP1 PUSH2 0x4CDD JUMP JUMPDEST PUSH1 0x40 MLOAD DUP1 SWAP2 SUB SWAP1 RETURN JUMPDEST CALLVALUE DUP1 ISZERO PUSH2 0x5FB JUMPI PUSH1 0x0 DUP1 REVERT JUMPDEST POP PUSH2 0x604 PUSH2 0x1B2B JUMP JUMPDEST PUSH1 0x40 MLOAD PUSH2 0x611 SWAP2 SWAP1 PUSH2 0x4FE8 JUMP JUMPDEST PUSH1 0x40 MLOAD DUP1 SWAP2 SUB SWAP1 RETURN JUMPDEST CALLVALUE DUP1 ISZERO PUSH2 0x626 JUMPI PUSH1 0x0 DUP1 REVERT JUMPDEST POP PUSH2 0x641 PUSH1 0x4 DUP1 CALLDATASIZE SUB DUP2 ADD SWAP1 PUSH2 0x63C SWAP2 SWAP1 PUSH2 0x5003 JUMP JUMPDEST PUSH2 0x1B8D JUMP JUMPDEST PUSH1 0x40 MLOAD PUSH2 0x64E SWAP2 SWAP1 PUSH2 0x4CDD JUMP JUMPDEST PUSH1 0x40 MLOAD DUP1 SWAP2 SUB SWAP1 RETURN JUMPDEST CALLVALUE DUP1 ISZERO PUSH2 0x663 JUMPI PUSH1 0x0 DUP1 REVERT JUMPDEST POP PUSH2 0x67E PUSH1 0x4 DUP1 CALLDATASIZE SUB DUP2 ADD SWAP1 PUSH2 0x679 SWAP2 SWAP1 PUSH2 0x4C97 JUMP JUMPDEST PUSH2 0x1BA4 JUMP JUMPDEST PUSH1 0x40 MLOAD PUSH2 0x68B SWAP2 SWAP1 PUSH2 0x5085 JUMP JUMPDEST PUSH1 0x40 MLOAD DUP1 SWAP2 SUB SWAP1 RETURN JUMPDEST CALLVALUE DUP1 ISZERO PUSH2 0x6A0 JUMPI PUSH1 0x0 DUP1 REVERT JUMPDEST POP PUSH2 0x6BB PUSH1 0x4 DUP1 CALLDATASIZE SUB DUP2 ADD SWAP1 PUSH2 0x6B6 SWAP2 SWAP1 PUSH2 0x5003 JUMP JUMPDEST PUSH2 0x1C2A JUMP JUMPDEST PUSH1 0x40 MLOAD PUSH2 0x6C8 SWAP2 SWAP1 PUSH2 0x4CDD JUMP JUMPDEST PUSH1 0x40 MLOAD DUP1 SWAP2 SUB SWAP1 RETURN JUMPDEST CALLVALUE DUP1 ISZERO PUSH2 0x6DD JUMPI PUSH1 0x0 DUP1 REVERT JUMPDEST POP PUSH2 0x6E6 PUSH2 0x1DCB JUMP JUMPDEST STOP JUMPDEST CALLVALUE DUP1 ISZERO PUSH2 0x6F4 JUMPI PUSH1 0x0 DUP1 REVERT JUMPDEST POP PUSH2 0x6FD PUSH2 0x1F1A JUMP JUMPDEST PUSH1 0x40 MLOAD PUSH2 0x70A SWAP2 SWAP1 PUSH2 0x4CDD JUMP JUMPDEST PUSH1 0x40 MLOAD DUP1 SWAP2 SUB SWAP1 RETURN JUMPDEST CALLVALUE DUP1 ISZERO PUSH2 0x71F JUMPI PUSH1 0x0 DUP1 REVERT JUMPDEST POP PUSH2 0x728 PUSH2 0x1F20 JUMP JUMPDEST PUSH1 0x40 MLOAD PUSH2 0x736 SWAP3 SWAP2 SWAP1 PUSH2 0x50A0 JUMP JUMPDEST PUSH1 0x40 MLOAD DUP1 SWAP2 SUB SWAP1 RETURN JUMPDEST CALLVALUE DUP1 ISZERO PUSH2 0x74B JUMPI PUSH1 0x0 DUP1 REVERT JUMPDEST POP PUSH2 0x754 PUSH2 0x1F32 JUMP JUMPDEST PUSH1 0x40 MLOAD PUSH2 0x761 SWAP2 SWAP1 PUSH2 0x4CDD JUMP JUMPDEST PUSH1 0x40 MLOAD DUP1 SWAP2 SUB SWAP1 RETURN JUMPDEST CALLVALUE DUP1 ISZERO PUSH2 0x776 JUMPI PUSH1 0x0 DUP1 REVERT JUMPDEST POP PUSH2 0x791 PUSH1 0x4 DUP1 CALLDATASIZE SUB DUP2 ADD SWAP1 PUSH2 0x78C SWAP2 SWAP1 PUSH2 0x5003 JUMP JUMPDEST PUSH2 0x1FB5 JUMP JUMPDEST PUSH1 0x40 MLOAD PUSH2 0x79E SWAP2 SWAP1 PUSH2 0x4CDD JUMP JUMPDEST PUSH1 0x40 MLOAD DUP1 SWAP2 SUB SWAP1 RETURN JUMPDEST CALLVALUE DUP1 ISZERO PUSH2 0x7B3 JUMPI PUSH1 0x0 DUP1 REVERT JUMPDEST POP PUSH2 0x7BC PUSH2 0x1FCD JUMP JUMPDEST STOP JUMPDEST CALLVALUE DUP1 ISZERO PUSH2 0x7CA JUMPI PUSH1 0x0 DUP1 REVERT JUMPDEST POP PUSH2 0x7D3 PUSH2 0x20A8 JUMP JUMPDEST PUSH1 0x40 MLOAD PUSH2 0x7E0 SWAP2 SWAP1 PUSH2 0x4CDD JUMP JUMPDEST PUSH1 0x40 MLOAD DUP1 SWAP2 SUB SWAP1 RETURN JUMPDEST CALLVALUE DUP1 ISZERO PUSH2 0x7F5 JUMPI PUSH1 0x0 DUP1 REVERT JUMPDEST POP PUSH2 0x810 PUSH1 0x4 DUP1 CALLDATASIZE SUB DUP2 ADD SWAP1 PUSH2 0x80B SWAP2 SWAP1 PUSH2 0x4C97 JUMP JUMPDEST PUSH2 0x20AE JUMP JUMPDEST PUSH1 0x40 MLOAD PUSH2 0x826 SWAP11 SWAP10 SWAP9 SWAP8 SWAP7 SWAP6 SWAP5 SWAP4 SWAP3 SWAP2 SWAP1 PUSH2 0x50C9 JUMP JUMPDEST PUSH1 0x40 MLOAD DUP1 SWAP2 SUB SWAP1 RETURN JUMPDEST CALLVALUE DUP1 ISZERO PUSH2 0x83B JUMPI PUSH1 0x0 DUP1 REVERT JUMPDEST POP PUSH2 0x844 PUSH2 0x2122 JUMP JUMPDEST STOP JUMPDEST CALLVALUE DUP1 ISZERO PUSH2 0x852 JUMPI PUSH1 0x0 DUP1 REVERT JUMPDEST POP PUSH2 0x85B PUSH2 0x2134 JUMP JUMPDEST PUSH1 0x40 MLOAD PUSH2 0x868 SWAP2 SWAP1 PUSH2 0x4CDD JUMP JUMPDEST PUSH1 0x40 MLOAD DUP1 SWAP2 SUB SWAP1 RETURN JUMPDEST CALLVALUE DUP1 ISZERO PUSH2 0x87D JUMPI PUSH1 0x0 DUP1 REVERT JUMPDEST POP PUSH2 0x898 PUSH1 0x4 DUP1 CALLDATASIZE SUB DUP2 ADD SWAP1 PUSH2 0x893 SWAP2 SWAP1 PUSH2 0x4C97 JUMP JUMPDEST PUSH2 0x213A JUMP JUMPDEST STOP JUMPDEST PUSH1 0x0 PUSH1 0x9 PUSH1 0x0 DUP4 PUSH20 0xFFFFFFFFFFFFFFFFFFFFFFFFFFFFFFFFFFFFFFFF AND PUSH20 0xFFFFFFFFFFFFFFFFFFFFFFFFFFFFFFFFFFFFFFFF AND DUP2 MSTORE PUSH1 0x20 ADD SWAP1 DUP2 MSTORE PUSH1 0x20 ADD PUSH1 0x0 KECCAK256 SLOAD PUSH8 0xDE0B6B3A7640000 PUSH1 0x8 PUSH1 0x0 DUP6 PUSH20 0xFFFFFFFFFFFFFFFFFFFFFFFFFFFFFFFFFFFFFFFF AND PUSH20 0xFFFFFFFFFFFFFFFFFFFFFFFFFFFFFFFFFFFFFFFF AND DUP2 MSTORE PUSH1 0x20 ADD SWAP1 DUP2 MSTORE PUSH1 0x20 ADD PUSH1 0x0 KECCAK256 SLOAD PUSH2 0x92D PUSH2 0x1F32 JUMP JUMPDEST PUSH2 0x937 SWAP2 SWAP1 PUSH2 0x5194 JUMP JUMPDEST PUSH1 0xB PUSH1 0x0 DUP7 PUSH20 0xFFFFFFFFFFFFFFFFFFFFFFFFFFFFFFFFFFFFFFFF AND PUSH20 0xFFFFFFFFFFFFFFFFFFFFFFFFFFFFFFFFFFFFFFFF AND DUP2 MSTORE PUSH1 0x20 ADD SWAP1 DUP2 MSTORE PUSH1 0x20 ADD PUSH1 0x0 KECCAK256 SLOAD PUSH2 0x981 SWAP2 SWAP1 PUSH2 0x51C8 JUMP JUMPDEST PUSH2 0x98B SWAP2 SWAP1 PUSH2 0x5239 JUMP JUMPDEST PUSH2 0x995 SWAP2 SWAP1 PUSH2 0x526A JUMP JUMPDEST SWAP1 POP SWAP2 SWAP1 POP JUMP JUMPDEST PUSH1 0x9 PUSH1 0x20 MSTORE DUP1 PUSH1 0x0 MSTORE PUSH1 0x40 PUSH1 0x0 KECCAK256 PUSH1 0x0 SWAP2 POP SWAP1 POP SLOAD DUP2 JUMP JUMPDEST PUSH1 0x0 PUSH1 0x1F SLOAD SWAP1 POP SWAP1 JUMP JUMPDEST PUSH1 0x0 PUSH1 0x1A PUSH1 0x1 ADD PUSH1 0x0 SWAP1 SLOAD SWAP1 PUSH2 0x100 EXP SWAP1 DIV PUSH20 0xFFFFFFFFFFFFFFFFFFFFFFFFFFFFFFFFFFFFFFFF AND SWAP1 POP SWAP1 JUMP JUMPDEST PUSH1 0x19 PUSH1 0x20 MSTORE DUP1 PUSH1 0x0 MSTORE PUSH1 0x40 PUSH1 0x0 KECCAK256 PUSH1 0x0 SWAP2 POP SWAP1 POP SLOAD DUP2 JUMP JUMPDEST PUSH1 0x1A DUP1 PUSH1 0x0 ADD SLOAD SWAP1 DUP1 PUSH1 0x1 ADD PUSH1 0x0 SWAP1 SLOAD SWAP1 PUSH2 0x100 EXP SWAP1 DIV PUSH20 0xFFFFFFFFFFFFFFFFFFFFFFFFFFFFFFFFFFFFFFFF AND SWAP1 DUP1 PUSH1 0x2 ADD PUSH1 0x0 SWAP1 SLOAD SWAP1 PUSH2 0x100 EXP SWAP1 DIV PUSH20 0xFFFFFFFFFFFFFFFFFFFFFFFFFFFFFFFFFFFFFFFF AND SWAP1 DUP1 PUSH1 0x3 ADD SLOAD SWAP1 DUP1 PUSH1 0x4 ADD SLOAD SWAP1 POP DUP6 JUMP JUMPDEST PUSH1 0x0 PUSH2 0xA72 CALLER PUSH2 0x21F3 JUMP JUMPDEST SWAP1 POP PUSH1 0x0 DUP1 PUSH1 0x0 PUSH2 0xA84 PUSH1 0x3 CALLER PUSH2 0x223C JUMP JUMPDEST SWAP3 POP SWAP3 POP SWAP3 POP PUSH1 0x0 DUP1 PUSH1 0x0 PUSH2 0xA9A PUSH1 0x5 CALLER PUSH2 0x223C JUMP JUMPDEST SWAP3 POP SWAP3 POP SWAP3 POP PUSH2 0xAB4 DUP2 DUP6 PUSH2 0xAAF SWAP2 SWAP1 PUSH2 0x526A JUMP JUMPDEST PUSH2 0x24BD JUMP JUMPDEST PUSH2 0xAC8 DUP3 DUP7 PUSH2 0xAC3 SWAP2 SWAP1 PUSH2 0x526A JUMP JUMPDEST PUSH2 0x279D JUMP JUMPDEST CALLER PUSH20 0xFFFFFFFFFFFFFFFFFFFFFFFFFFFFFFFFFFFFFFFF AND PUSH2 0x8FC PUSH32 0x0 PUSH1 0x1A PUSH1 0x0 ADD SLOAD PUSH32 0x0 PUSH2 0xB34 SWAP2 SWAP1 PUSH2 0x5194 JUMP JUMPDEST DUP10 DUP8 PUSH2 0xB40 SWAP2 SWAP1 PUSH2 0x526A JUMP JUMPDEST PUSH2 0xB4A SWAP2 SWAP1 PUSH2 0x51C8 JUMP JUMPDEST PUSH2 0xB54 SWAP2 SWAP1 PUSH2 0x5239 JUMP JUMPDEST SWAP1 DUP2 ISZERO MUL SWAP1 PUSH1 0x40 MLOAD PUSH1 0x0 PUSH1 0x40 MLOAD DUP1 DUP4 SUB DUP2 DUP6 DUP9 DUP9 CALL SWAP4 POP POP POP POP ISZERO DUP1 ISZERO PUSH2 0xB7F JUMPI RETURNDATASIZE PUSH1 0x0 DUP1 RETURNDATACOPY RETURNDATASIZE PUSH1 0x0 REVERT JUMPDEST POP DUP6 DUP4 PUSH2 0xB8C SWAP2 SWAP1 PUSH2 0x526A JUMP JUMPDEST PUSH1 0x22 PUSH1 0x0 CALLER PUSH20 0xFFFFFFFFFFFFFFFFFFFFFFFFFFFFFFFFFFFFFFFF AND PUSH20 0xFFFFFFFFFFFFFFFFFFFFFFFFFFFFFFFFFFFFFFFF AND DUP2 MSTORE PUSH1 0x20 ADD SWAP1 DUP2 MSTORE PUSH1 0x20 ADD PUSH1 0x0 KECCAK256 PUSH1 0x0 DUP3 DUP3 SLOAD PUSH2 0xBDA SWAP2 SWAP1 PUSH2 0x5194 JUMP JUMPDEST SWAP3 POP POP DUP2 SWAP1 SSTORE POP DUP6 DUP4 PUSH2 0xBED SWAP2 SWAP1 PUSH2 0x526A JUMP JUMPDEST PUSH1 0x1F PUSH1 0x0 DUP3 DUP3 SLOAD PUSH2 0xBFE SWAP2 SWAP1 PUSH2 0x5194 JUMP JUMPDEST SWAP3 POP POP DUP2 SWAP1 SSTORE POP POP POP POP POP POP POP PUSH1 0x0 PUSH2 0xC16 CALLER PUSH2 0x21F3 JUMP JUMPDEST SWAP1 POP DUP1 DUP3 LT ISZERO PUSH2 0xC38 JUMPI PUSH2 0xC37 CALLER DUP4 DUP4 PUSH2 0xC30 SWAP2 SWAP1 PUSH2 0x5194 JUMP JUMPDEST PUSH1 0x1 PUSH2 0x2B55 JUMP JUMPDEST JUMPDEST DUP1 DUP3 GT ISZERO PUSH2 0xC58 JUMPI PUSH2 0xC57 CALLER DUP3 DUP5 PUSH2 0xC50 SWAP2 SWAP1 PUSH2 0x5194 JUMP JUMPDEST PUSH1 0x0 PUSH2 0x2B55 JUMP JUMPDEST JUMPDEST POP POP JUMP JUMPDEST PUSH2 0xC64 PUSH2 0x2CE5 JUMP JUMPDEST CALLER PUSH2 0xC6D PUSH2 0x1F32 JUMP JUMPDEST PUSH1 0x5 DUP2 SWAP1 SSTORE POP PUSH2 0xC7B PUSH2 0x1A55 JUMP JUMPDEST PUSH1 0x4 DUP2 SWAP1 SSTORE POP PUSH1 0x0 PUSH20 0xFFFFFFFFFFFFFFFFFFFFFFFFFFFFFFFFFFFFFFFF AND DUP2 PUSH20 0xFFFFFFFFFFFFFFFFFFFFFFFFFFFFFFFFFFFFFFFF AND EQ PUSH2 0xD48 JUMPI PUSH2 0xCBE DUP2 PUSH2 0x89A JUMP JUMPDEST PUSH1 0x9 PUSH1 0x0 DUP4 PUSH20 0xFFFFFFFFFFFFFFFFFFFFFFFFFFFFFFFFFFFFFFFF AND PUSH20 0xFFFFFFFFFFFFFFFFFFFFFFFFFFFFFFFFFFFFFFFF AND DUP2 MSTORE PUSH1 0x20 ADD SWAP1 DUP2 MSTORE PUSH1 0x20 ADD PUSH1 0x0 KECCAK256 DUP2 SWAP1 SSTORE POP PUSH1 0x5 SLOAD PUSH1 0x8 PUSH1 0x0 DUP4 PUSH20 0xFFFFFFFFFFFFFFFFFFFFFFFFFFFFFFFFFFFFFFFF AND PUSH20 0xFFFFFFFFFFFFFFFFFFFFFFFFFFFFFFFFFFFFFFFF AND DUP2 MSTORE PUSH1 0x20 ADD SWAP1 DUP2 MSTORE PUSH1 0x20 ADD PUSH1 0x0 KECCAK256 DUP2 SWAP1 SSTORE POP JUMPDEST PUSH1 0x0 PUSH1 0xA SLOAD SWAP1 POP PUSH1 0x0 PUSH1 0x3 SLOAD SWAP1 POP PUSH1 0x0 PUSH1 0x9 PUSH1 0x0 CALLER PUSH20 0xFFFFFFFFFFFFFFFFFFFFFFFFFFFFFFFFFFFFFFFF AND PUSH20 0xFFFFFFFFFFFFFFFFFFFFFFFFFFFFFFFFFFFFFFFF AND DUP2 MSTORE PUSH1 0x20 ADD SWAP1 DUP2 MSTORE PUSH1 0x20 ADD PUSH1 0x0 KECCAK256 SLOAD SWAP1 POP PUSH1 0x0 DUP2 GT ISZERO PUSH2 0xE5C JUMPI PUSH1 0x0 PUSH1 0x9 PUSH1 0x0 CALLER PUSH20 0xFFFFFFFFFFFFFFFFFFFFFFFFFFFFFFFFFFFFFFFF AND PUSH20 0xFFFFFFFFFFFFFFFFFFFFFFFFFFFFFFFFFFFFFFFF AND DUP2 MSTORE PUSH1 0x20 ADD SWAP1 DUP2 MSTORE PUSH1 0x20 ADD PUSH1 0x0 KECCAK256 DUP2 SWAP1 SSTORE POP DUP1 PUSH1 0x6 PUSH1 0x0 DUP3 DUP3 SLOAD PUSH2 0xDFA SWAP2 SWAP1 PUSH2 0x526A JUMP JUMPDEST SWAP3 POP POP DUP2 SWAP1 SSTORE POP PUSH2 0xE0D CALLER DUP3 PUSH1 0x1 PUSH2 0x2D34 JUMP JUMPDEST CALLER PUSH20 0xFFFFFFFFFFFFFFFFFFFFFFFFFFFFFFFFFFFFFFFF AND PUSH32 0xE2403640BA68FED3A2F88B7557551D1993F84B99BB10FF833F0CF8DB0C5E0486 DUP3 PUSH1 0x40 MLOAD PUSH2 0xE53 SWAP2 SWAP1 PUSH2 0x4CDD JUMP JUMPDEST PUSH1 0x40 MLOAD DUP1 SWAP2 SUB SWAP1 LOG2 JUMPDEST PUSH2 0xE6A PUSH1 0x3 SLOAD PUSH1 0x6 SLOAD PUSH2 0x2D90 JUMP JUMPDEST PUSH1 0x3 DUP2 SWAP1 SSTORE POP POP PUSH1 0x0 PUSH1 0x3 SLOAD SWAP1 POP PUSH1 0x0 PUSH1 0xA SLOAD SWAP1 POP DUP1 DUP5 EQ DUP1 ISZERO PUSH2 0xE8D JUMPI POP DUP2 DUP4 EQ JUMPDEST ISZERO PUSH2 0xE9B JUMPI POP POP POP POP PUSH2 0xFF0 JUMP JUMPDEST PUSH1 0x0 PUSH1 0x2 SLOAD SUB PUSH2 0xF0D JUMPI TIMESTAMP DUP3 DUP3 PUSH32 0x0 PUSH3 0x278D00 PUSH1 0x7 SLOAD PUSH2 0xEDA SWAP2 SWAP1 PUSH2 0x51C8 JUMP JUMPDEST PUSH2 0xEE4 SWAP2 SWAP1 PUSH2 0x51C8 JUMP JUMPDEST PUSH2 0xEEE SWAP2 SWAP1 PUSH2 0x5239 JUMP JUMPDEST PUSH2 0xEF8 SWAP2 SWAP1 PUSH2 0x5239 JUMP JUMPDEST PUSH2 0xF02 SWAP2 SWAP1 PUSH2 0x526A JUMP JUMPDEST PUSH1 0x2 DUP2 SWAP1 SSTORE POP PUSH2 0xFEB JUMP JUMPDEST TIMESTAMP PUSH1 0x2 SLOAD GT DUP1 ISZERO PUSH2 0xF1E JUMPI POP PUSH1 0x0 DUP2 EQ JUMPDEST ISZERO PUSH2 0xF93 JUMPI PUSH32 0x0 PUSH3 0x278D00 DUP6 DUP6 TIMESTAMP PUSH1 0x2 SLOAD PUSH2 0xF58 SWAP2 SWAP1 PUSH2 0x5194 JUMP JUMPDEST PUSH2 0xF62 SWAP2 SWAP1 PUSH2 0x51C8 JUMP JUMPDEST PUSH2 0xF6C SWAP2 SWAP1 PUSH2 0x51C8 JUMP JUMPDEST PUSH2 0xF76 SWAP2 SWAP1 PUSH2 0x5239 JUMP JUMPDEST PUSH2 0xF80 SWAP2 SWAP1 PUSH2 0x5239 JUMP JUMPDEST PUSH1 0x7 DUP2 SWAP1 SSTORE POP PUSH1 0x0 PUSH1 0x2 DUP2 SWAP1 SSTORE POP PUSH2 0xFEA JUMP JUMPDEST TIMESTAMP PUSH1 0x2 SLOAD GT ISZERO PUSH2 0xFE9 JUMPI TIMESTAMP DUP2 DUP4 DUP7 DUP7 TIMESTAMP PUSH1 0x2 SLOAD PUSH2 0xFB0 SWAP2 SWAP1 PUSH2 0x5194 JUMP JUMPDEST PUSH2 0xFBA SWAP2 SWAP1 PUSH2 0x51C8 JUMP JUMPDEST PUSH2 0xFC4 SWAP2 SWAP1 PUSH2 0x51C8 JUMP JUMPDEST PUSH2 0xFCE SWAP2 SWAP1 PUSH2 0x5239 JUMP JUMPDEST PUSH2 0xFD8 SWAP2 SWAP1 PUSH2 0x5239 JUMP JUMPDEST PUSH2 0xFE2 SWAP2 SWAP1 PUSH2 0x526A JUMP JUMPDEST PUSH1 0x2 DUP2 SWAP1 SSTORE POP JUMPDEST JUMPDEST JUMPDEST POP POP POP POP JUMPDEST POP PUSH2 0xFF9 PUSH2 0x3042 JUMP JUMPDEST JUMP JUMPDEST PUSH1 0x6 SLOAD DUP2 JUMP JUMPDEST PUSH1 0x0 PUSH1 0x13 PUSH1 0x0 CALLER PUSH20 0xFFFFFFFFFFFFFFFFFFFFFFFFFFFFFFFFFFFFFFFF AND PUSH20 0xFFFFFFFFFFFFFFFFFFFFFFFFFFFFFFFFFFFFFFFF AND DUP2 MSTORE PUSH1 0x20 ADD SWAP1 DUP2 MSTORE PUSH1 0x20 ADD PUSH1 0x0 KECCAK256 PUSH1 0x3 ADD SLOAD SWAP1 POP PUSH1 0x0 DUP2 GT ISZERO PUSH2 0x114D JUMPI PUSH1 0x0 PUSH1 0x13 PUSH1 0x0 CALLER PUSH20 0xFFFFFFFFFFFFFFFFFFFFFFFFFFFFFFFFFFFFFFFF AND PUSH20 0xFFFFFFFFFFFFFFFFFFFFFFFFFFFFFFFFFFFFFFFF AND DUP2 MSTORE PUSH1 0x20 ADD SWAP1 DUP2 MSTORE PUSH1 0x20 ADD PUSH1 0x0 KECCAK256 PUSH1 0x3 ADD DUP2 SWAP1 SSTORE POP DUP1 PUSH1 0x13 PUSH1 0x0 CALLER PUSH20 0xFFFFFFFFFFFFFFFFFFFFFFFFFFFFFFFFFFFFFFFF AND PUSH20 0xFFFFFFFFFFFFFFFFFFFFFFFFFFFFFFFFFFFFFFFF AND DUP2 MSTORE PUSH1 0x20 ADD SWAP1 DUP2 MSTORE PUSH1 0x20 ADD PUSH1 0x0 KECCAK256 PUSH1 0x4 ADD PUSH1 0x0 DUP3 DUP3 SLOAD PUSH2 0x10EB SWAP2 SWAP1 PUSH2 0x526A JUMP JUMPDEST SWAP3 POP POP DUP2 SWAP1 SSTORE POP PUSH2 0x10FE CALLER DUP3 PUSH1 0x0 PUSH2 0x2D34 JUMP JUMPDEST CALLER PUSH20 0xFFFFFFFFFFFFFFFFFFFFFFFFFFFFFFFFFFFFFFFF AND PUSH32 0x86B3E76754B7BD787A9B9ABAFF7CE3CFE51E64FC8B344BD2EFF5CDBD9580B7A DUP3 PUSH1 0x40 MLOAD PUSH2 0x1144 SWAP2 SWAP1 PUSH2 0x4CDD JUMP JUMPDEST PUSH1 0x40 MLOAD DUP1 SWAP2 SUB SWAP1 LOG2 JUMPDEST POP JUMP JUMPDEST PUSH1 0x0 PUSH1 0x1A PUSH1 0x2 ADD PUSH1 0x0 SWAP1 SLOAD SWAP1 PUSH2 0x100 EXP SWAP1 DIV PUSH20 0xFFFFFFFFFFFFFFFFFFFFFFFFFFFFFFFFFFFFFFFF AND SWAP1 POP SWAP1 JUMP JUMPDEST PUSH1 0x60 PUSH1 0x0 PUSH2 0x11DA PUSH1 0x23 PUSH1 0x0 DUP6 PUSH20 0xFFFFFFFFFFFFFFFFFFFFFFFFFFFFFFFFFFFFFFFF AND PUSH20 0xFFFFFFFFFFFFFFFFFFFFFFFFFFFFFFFFFFFFFFFF AND DUP2 MSTORE PUSH1 0x20 ADD SWAP1 DUP2 MSTORE PUSH1 0x20 ADD PUSH1 0x0 KECCAK256 PUSH1 0x0 PUSH1 0x3 DUP2 MSTORE PUSH1 0x20 ADD SWAP1 DUP2 MSTORE PUSH1 0x20 ADD PUSH1 0x0 KECCAK256 PUSH2 0x304C JUMP JUMPDEST SWAP1 POP PUSH1 0x0 PUSH2 0x1237 PUSH1 0x23 PUSH1 0x0 DUP7 PUSH20 0xFFFFFFFFFFFFFFFFFFFFFFFFFFFFFFFFFFFFFFFF AND PUSH20 0xFFFFFFFFFFFFFFFFFFFFFFFFFFFFFFFFFFFFFFFF AND DUP2 MSTORE PUSH1 0x20 ADD SWAP1 DUP2 MSTORE PUSH1 0x20 ADD PUSH1 0x0 KECCAK256 PUSH1 0x0 PUSH1 0x5 DUP2 MSTORE PUSH1 0x20 ADD SWAP1 DUP2 MSTORE PUSH1 0x20 ADD PUSH1 0x0 KECCAK256 PUSH2 0x304C JUMP JUMPDEST SWAP1 POP PUSH1 0x0 PUSH2 0x1294 PUSH1 0x23 PUSH1 0x0 DUP8 PUSH20 0xFFFFFFFFFFFFFFFFFFFFFFFFFFFFFFFFFFFFFFFF AND PUSH20 0xFFFFFFFFFFFFFFFFFFFFFFFFFFFFFFFFFFFFFFFF AND DUP2 MSTORE PUSH1 0x20 ADD SWAP1 DUP2 MSTORE PUSH1 0x20 ADD PUSH1 0x0 KECCAK256 PUSH1 0x0 PUSH1 0x5 DUP2 MSTORE PUSH1 0x20 ADD SWAP1 DUP2 MSTORE PUSH1 0x20 ADD PUSH1 0x0 KECCAK256 PUSH2 0x306D JUMP JUMPDEST PUSH2 0x12ED PUSH1 0x23 PUSH1 0x0 DUP9 PUSH20 0xFFFFFFFFFFFFFFFFFFFFFFFFFFFFFFFFFFFFFFFF AND PUSH20 0xFFFFFFFFFFFFFFFFFFFFFFFFFFFFFFFFFFFFFFFF AND DUP2 MSTORE PUSH1 0x20 ADD SWAP1 DUP2 MSTORE PUSH1 0x20 ADD PUSH1 0x0 KECCAK256 PUSH1 0x0 PUSH1 0x3 DUP2 MSTORE PUSH1 0x20 ADD SWAP1 DUP2 MSTORE PUSH1 0x20 ADD PUSH1 0x0 KECCAK256 PUSH2 0x306D JUMP JUMPDEST PUSH2 0x12F7 SWAP2 SWAP1 PUSH2 0x526A JUMP JUMPDEST PUSH8 0xFFFFFFFFFFFFFFFF DUP2 GT ISZERO PUSH2 0x1310 JUMPI PUSH2 0x130F PUSH2 0x529E JUMP JUMPDEST JUMPDEST PUSH1 0x40 MLOAD SWAP1 DUP1 DUP3 MSTORE DUP1 PUSH1 0x20 MUL PUSH1 0x20 ADD DUP3 ADD PUSH1 0x40 MSTORE DUP1 ISZERO PUSH2 0x1349 JUMPI DUP2 PUSH1 0x20 ADD JUMPDEST PUSH2 0x1336 PUSH2 0x4BD1 JUMP JUMPDEST DUP2 MSTORE PUSH1 0x20 ADD SWAP1 PUSH1 0x1 SWAP1 SUB SWAP1 DUP2 PUSH2 0x132E JUMPI SWAP1 POP JUMPDEST POP SWAP1 POP PUSH1 0x0 JUMPDEST DUP4 MLOAD DUP2 LT ISZERO PUSH2 0x143B JUMPI PUSH1 0x40 MLOAD DUP1 PUSH1 0x60 ADD PUSH1 0x40 MSTORE DUP1 DUP6 DUP4 DUP2 MLOAD DUP2 LT PUSH2 0x1376 JUMPI PUSH2 0x1375 PUSH2 0x52CD JUMP JUMPDEST JUMPDEST PUSH1 0x20 MUL PUSH1 0x20 ADD ADD MLOAD DUP2 MSTORE PUSH1 0x20 ADD PUSH2 0x1400 DUP7 DUP5 DUP2 MLOAD DUP2 LT PUSH2 0x1399 JUMPI PUSH2 0x1398 PUSH2 0x52CD JUMP JUMPDEST JUMPDEST PUSH1 0x20 MUL PUSH1 0x20 ADD ADD MLOAD PUSH1 0x23 PUSH1 0x0 DUP12 PUSH20 0xFFFFFFFFFFFFFFFFFFFFFFFFFFFFFFFFFFFFFFFF AND PUSH20 0xFFFFFFFFFFFFFFFFFFFFFFFFFFFFFFFFFFFFFFFF AND DUP2 MSTORE PUSH1 0x20 ADD SWAP1 DUP2 MSTORE PUSH1 0x20 ADD PUSH1 0x0 KECCAK256 PUSH1 0x0 PUSH1 0x3 DUP2 MSTORE PUSH1 0x20 ADD SWAP1 DUP2 MSTORE PUSH1 0x20 ADD PUSH1 0x0 KECCAK256 PUSH2 0x3082 SWAP1 SWAP2 SWAP1 PUSH4 0xFFFFFFFF AND JUMP JUMPDEST DUP2 MSTORE PUSH1 0x20 ADD PUSH1 0x3 DUP2 MSTORE POP DUP3 DUP3 DUP2 MLOAD DUP2 LT PUSH2 0x141D JUMPI PUSH2 0x141C PUSH2 0x52CD JUMP JUMPDEST JUMPDEST PUSH1 0x20 MUL PUSH1 0x20 ADD ADD DUP2 SWAP1 MSTORE POP DUP1 DUP1 PUSH2 0x1433 SWAP1 PUSH2 0x52FC JUMP JUMPDEST SWAP2 POP POP PUSH2 0x134F JUMP JUMPDEST PUSH1 0x0 JUMPDEST DUP4 MLOAD DUP2 LT ISZERO PUSH2 0x1535 JUMPI PUSH1 0x40 MLOAD DUP1 PUSH1 0x60 ADD PUSH1 0x40 MSTORE DUP1 DUP6 DUP4 DUP2 MLOAD DUP2 LT PUSH2 0x1465 JUMPI PUSH2 0x1464 PUSH2 0x52CD JUMP JUMPDEST JUMPDEST PUSH1 0x20 MUL PUSH1 0x20 ADD ADD MLOAD DUP2 MSTORE PUSH1 0x20 ADD PUSH2 0x14EF DUP7 DUP5 DUP2 MLOAD DUP2 LT PUSH2 0x1488 JUMPI PUSH2 0x1487 PUSH2 0x52CD JUMP JUMPDEST JUMPDEST PUSH1 0x20 MUL PUSH1 0x20 ADD ADD MLOAD PUSH1 0x23 PUSH1 0x0 DUP13 PUSH20 0xFFFFFFFFFFFFFFFFFFFFFFFFFFFFFFFFFFFFFFFF AND PUSH20 0xFFFFFFFFFFFFFFFFFFFFFFFFFFFFFFFFFFFFFFFF AND DUP2 MSTORE PUSH1 0x20 ADD SWAP1 DUP2 MSTORE PUSH1 0x20 ADD PUSH1 0x0 KECCAK256 PUSH1 0x0 PUSH1 0x5 DUP2 MSTORE PUSH1 0x20 ADD SWAP1 DUP2 MSTORE PUSH1 0x20 ADD PUSH1 0x0 KECCAK256 PUSH2 0x3082 SWAP1 SWAP2 SWAP1 PUSH4 0xFFFFFFFF AND JUMP JUMPDEST DUP2 MSTORE PUSH1 0x20 ADD PUSH1 0x5 DUP2 MSTORE POP DUP4 DUP4 DUP4 PUSH2 0x1506 SWAP2 SWAP1 PUSH2 0x526A JUMP JUMPDEST DUP2 MLOAD DUP2 LT PUSH2 0x1517 JUMPI PUSH2 0x1516 PUSH2 0x52CD JUMP JUMPDEST JUMPDEST PUSH1 0x20 MUL PUSH1 0x20 ADD ADD DUP2 SWAP1 MSTORE POP DUP1 DUP1 PUSH2 0x152D SWAP1 PUSH2 0x52FC JUMP JUMPDEST SWAP2 POP POP PUSH2 0x143E JUMP JUMPDEST POP DUP2 SWAP5 POP POP POP POP POP SWAP2 SWAP1 POP JUMP JUMPDEST PUSH1 0x7 SLOAD DUP2 JUMP JUMPDEST PUSH1 0x0 PUSH1 0x22 PUSH1 0x0 DUP4 PUSH20 0xFFFFFFFFFFFFFFFFFFFFFFFFFFFFFFFFFFFFFFFF AND PUSH20 0xFFFFFFFFFFFFFFFFFFFFFFFFFFFFFFFFFFFFFFFF AND DUP2 MSTORE PUSH1 0x20 ADD SWAP1 DUP2 MSTORE PUSH1 0x20 ADD PUSH1 0x0 KECCAK256 SLOAD SWAP1 POP SWAP2 SWAP1 POP JUMP JUMPDEST PUSH2 0x1599 PUSH2 0x309F JUMP JUMPDEST PUSH2 0x15A3 PUSH1 0x0 PUSH2 0x311D JUMP JUMPDEST JUMP JUMPDEST PUSH1 0x0 PUSH1 0x13 PUSH1 0x0 CALLER PUSH20 0xFFFFFFFFFFFFFFFFFFFFFFFFFFFFFFFFFFFFFFFF AND PUSH20 0xFFFFFFFFFFFFFFFFFFFFFFFFFFFFFFFFFFFFFFFF AND DUP2 MSTORE PUSH1 0x20 ADD SWAP1 DUP2 MSTORE PUSH1 0x20 ADD PUSH1 0x0 KECCAK256 PUSH1 0x7 ADD SLOAD SWAP1 POP PUSH1 0x0 DUP2 GT ISZERO PUSH2 0x16F1 JUMPI PUSH1 0x0 PUSH1 0x13 PUSH1 0x0 CALLER PUSH20 0xFFFFFFFFFFFFFFFFFFFFFFFFFFFFFFFFFFFFFFFF AND PUSH20 0xFFFFFFFFFFFFFFFFFFFFFFFFFFFFFFFFFFFFFFFF AND DUP2 MSTORE PUSH1 0x20 ADD SWAP1 DUP2 MSTORE PUSH1 0x20 ADD PUSH1 0x0 KECCAK256 PUSH1 0x7 ADD DUP2 SWAP1 SSTORE POP DUP1 PUSH1 0x13 PUSH1 0x0 CALLER PUSH20 0xFFFFFFFFFFFFFFFFFFFFFFFFFFFFFFFFFFFFFFFF AND PUSH20 0xFFFFFFFFFFFFFFFFFFFFFFFFFFFFFFFFFFFFFFFF AND DUP2 MSTORE PUSH1 0x20 ADD SWAP1 DUP2 MSTORE PUSH1 0x20 ADD PUSH1 0x0 KECCAK256 PUSH1 0x8 ADD PUSH1 0x0 DUP3 DUP3 SLOAD PUSH2 0x168F SWAP2 SWAP1 PUSH2 0x526A JUMP JUMPDEST SWAP3 POP POP DUP2 SWAP1 SSTORE POP PUSH2 0x16A2 CALLER DUP3 PUSH1 0x0 PUSH2 0x2D34 JUMP JUMPDEST CALLER PUSH20 0xFFFFFFFFFFFFFFFFFFFFFFFFFFFFFFFFFFFFFFFF AND PUSH32 0xE4CC98E15EAA87F9CA23BA0D792BD019CB64B34CC3A6F43CA50A8E205A040363 DUP3 PUSH1 0x40 MLOAD PUSH2 0x16E8 SWAP2 SWAP1 PUSH2 0x4CDD JUMP JUMPDEST PUSH1 0x40 MLOAD DUP1 SWAP2 SUB SWAP1 LOG2 JUMPDEST POP JUMP JUMPDEST PUSH1 0x0 PUSH2 0x16FF CALLER PUSH2 0x21F3 JUMP JUMPDEST SWAP1 POP PUSH2 0x1763 TIMESTAMP PUSH1 0x23 PUSH1 0x0 CALLER PUSH20 0xFFFFFFFFFFFFFFFFFFFFFFFFFFFFFFFFFFFFFFFF AND PUSH20 0xFFFFFFFFFFFFFFFFFFFFFFFFFFFFFFFFFFFFFFFF AND DUP2 MSTORE PUSH1 0x20 ADD SWAP1 DUP2 MSTORE PUSH1 0x20 ADD PUSH1 0x0 KECCAK256 PUSH1 0x0 DUP7 DUP2 MSTORE PUSH1 0x20 ADD SWAP1 DUP2 MSTORE PUSH1 0x20 ADD PUSH1 0x0 KECCAK256 PUSH2 0x31E3 SWAP1 SWAP2 SWAP1 PUSH4 0xFFFFFFFF AND JUMP JUMPDEST ISZERO PUSH2 0x17A3 JUMPI PUSH1 0x40 MLOAD PUSH32 0x8C379A000000000000000000000000000000000000000000000000000000000 DUP2 MSTORE PUSH1 0x4 ADD PUSH2 0x179A SWAP1 PUSH2 0x53A1 JUMP JUMPDEST PUSH1 0x40 MLOAD DUP1 SWAP2 SUB SWAP1 REVERT JUMPDEST PUSH1 0x0 CALLVALUE SWAP1 POP PUSH1 0x1A PUSH1 0x4 ADD SLOAD DUP2 LT ISZERO DUP1 ISZERO PUSH2 0x17C2 JUMPI POP PUSH1 0x1A PUSH1 0x3 ADD SLOAD DUP2 GT ISZERO JUMPDEST PUSH2 0x1801 JUMPI PUSH1 0x40 MLOAD PUSH32 0x8C379A000000000000000000000000000000000000000000000000000000000 DUP2 MSTORE PUSH1 0x4 ADD PUSH2 0x17F8 SWAP1 PUSH2 0x540D JUMP JUMPDEST PUSH1 0x40 MLOAD DUP1 SWAP2 SUB SWAP1 REVERT JUMPDEST PUSH2 0x180A DUP2 PUSH2 0x31FD JUMP JUMPDEST PUSH2 0x1814 DUP4 CALLER PUSH2 0x3364 JUMP JUMPDEST PUSH1 0x0 PUSH2 0x185D PUSH32 0x0 PUSH1 0x1A PUSH1 0x0 ADD SLOAD DUP5 PUSH2 0x184B SWAP2 SWAP1 PUSH2 0x51C8 JUMP JUMPDEST PUSH2 0x1855 SWAP2 SWAP1 PUSH2 0x5239 JUMP JUMPDEST PUSH2 0x36D1 PUSH2 0x3756 JUMP JUMPDEST SWAP3 POP POP POP PUSH2 0x18B3 PUSH32 0x0 PUSH1 0x20 PUSH1 0x0 DUP9 DUP2 MSTORE PUSH1 0x20 ADD SWAP1 DUP2 MSTORE PUSH1 0x20 ADD PUSH1 0x0 KECCAK256 SLOAD DUP5 PUSH2 0x18A4 SWAP2 SWAP1 PUSH2 0x51C8 JUMP JUMPDEST PUSH2 0x18AE SWAP2 SWAP1 PUSH2 0x5239 JUMP JUMPDEST PUSH2 0x3B24 JUMP JUMPDEST DUP2 PUSH1 0x1F PUSH1 0x0 DUP3 DUP3 SLOAD PUSH2 0x18C5 SWAP2 SWAP1 PUSH2 0x526A JUMP JUMPDEST SWAP3 POP POP DUP2 SWAP1 SSTORE POP DUP2 PUSH1 0x22 PUSH1 0x0 CALLER PUSH20 0xFFFFFFFFFFFFFFFFFFFFFFFFFFFFFFFFFFFFFFFF AND PUSH20 0xFFFFFFFFFFFFFFFFFFFFFFFFFFFFFFFFFFFFFFFF AND DUP2 MSTORE PUSH1 0x20 ADD SWAP1 DUP2 MSTORE PUSH1 0x20 ADD PUSH1 0x0 KECCAK256 PUSH1 0x0 DUP3 DUP3 SLOAD PUSH2 0x191B SWAP2 SWAP1 PUSH2 0x526A JUMP JUMPDEST SWAP3 POP POP DUP2 SWAP1 SSTORE POP PUSH2 0x19A4 PUSH1 0x21 PUSH1 0x0 DUP8 DUP2 MSTORE PUSH1 0x20 ADD SWAP1 DUP2 MSTORE PUSH1 0x20 ADD PUSH1 0x0 KECCAK256 SLOAD TIMESTAMP PUSH2 0x1944 SWAP2 SWAP1 PUSH2 0x526A JUMP JUMPDEST DUP4 PUSH1 0x23 PUSH1 0x0 CALLER PUSH20 0xFFFFFFFFFFFFFFFFFFFFFFFFFFFFFFFFFFFFFFFF AND PUSH20 0xFFFFFFFFFFFFFFFFFFFFFFFFFFFFFFFFFFFFFFFF AND DUP2 MSTORE PUSH1 0x20 ADD SWAP1 DUP2 MSTORE PUSH1 0x20 ADD PUSH1 0x0 KECCAK256 PUSH1 0x0 DUP10 DUP2 MSTORE PUSH1 0x20 ADD SWAP1 DUP2 MSTORE PUSH1 0x20 ADD PUSH1 0x0 KECCAK256 PUSH2 0x21BD SWAP1 SWAP3 SWAP2 SWAP1 PUSH4 0xFFFFFFFF AND JUMP JUMPDEST POP DUP1 PUSH1 0x24 PUSH1 0x0 CALLER PUSH20 0xFFFFFFFFFFFFFFFFFFFFFFFFFFFFFFFFFFFFFFFF AND PUSH20 0xFFFFFFFFFFFFFFFFFFFFFFFFFFFFFFFFFFFFFFFF AND DUP2 MSTORE PUSH1 0x20 ADD SWAP1 DUP2 MSTORE PUSH1 0x20 ADD PUSH1 0x0 KECCAK256 PUSH1 0x0 TIMESTAMP DUP2 MSTORE PUSH1 0x20 ADD SWAP1 DUP2 MSTORE PUSH1 0x20 ADD PUSH1 0x0 KECCAK256 DUP2 SWAP1 SSTORE POP POP POP PUSH1 0x0 PUSH2 0x1A07 CALLER PUSH2 0x21F3 JUMP JUMPDEST SWAP1 POP DUP1 DUP3 LT ISZERO PUSH2 0x1A29 JUMPI PUSH2 0x1A28 CALLER DUP4 DUP4 PUSH2 0x1A21 SWAP2 SWAP1 PUSH2 0x5194 JUMP JUMPDEST PUSH1 0x1 PUSH2 0x2B55 JUMP JUMPDEST JUMPDEST DUP1 DUP3 GT ISZERO PUSH2 0x1A49 JUMPI PUSH2 0x1A48 CALLER DUP3 DUP5 PUSH2 0x1A41 SWAP2 SWAP1 PUSH2 0x5194 JUMP JUMPDEST PUSH1 0x0 PUSH2 0x2B55 JUMP JUMPDEST JUMPDEST POP POP POP POP JUMP JUMPDEST PUSH1 0x3 SLOAD DUP2 JUMP JUMPDEST PUSH1 0x0 DUP1 PUSH1 0x2 SLOAD EQ DUP1 PUSH2 0x1A68 JUMPI POP PUSH1 0x2 SLOAD TIMESTAMP LT JUMPDEST PUSH2 0x1A74 JUMPI PUSH1 0x2 SLOAD PUSH2 0x1A76 JUMP JUMPDEST TIMESTAMP JUMPDEST SWAP1 POP SWAP1 JUMP JUMPDEST PUSH1 0x8 PUSH1 0x20 MSTORE DUP1 PUSH1 0x0 MSTORE PUSH1 0x40 PUSH1 0x0 KECCAK256 PUSH1 0x0 SWAP2 POP SWAP1 POP SLOAD DUP2 JUMP JUMPDEST PUSH1 0x0 PUSH1 0x1 PUSH1 0x0 SWAP1 SLOAD SWAP1 PUSH2 0x100 EXP SWAP1 DIV PUSH20 0xFFFFFFFFFFFFFFFFFFFFFFFFFFFFFFFFFFFFFFFF AND SWAP1 POP SWAP1 JUMP JUMPDEST PUSH2 0x1AC5 PUSH2 0x309F JUMP JUMPDEST CALLER PUSH20 0xFFFFFFFFFFFFFFFFFFFFFFFFFFFFFFFFFFFFFFFF AND PUSH2 0x8FC ADDRESS PUSH20 0xFFFFFFFFFFFFFFFFFFFFFFFFFFFFFFFFFFFFFFFF AND BALANCE SWAP1 DUP2 ISZERO MUL SWAP1 PUSH1 0x40 MLOAD PUSH1 0x0 PUSH1 0x40 MLOAD DUP1 DUP4 SUB DUP2 DUP6 DUP9 DUP9 CALL SWAP4 POP POP POP POP ISZERO DUP1 ISZERO PUSH2 0x1B22 JUMPI RETURNDATASIZE PUSH1 0x0 DUP1 RETURNDATACOPY RETURNDATASIZE PUSH1 0x0 REVERT JUMPDEST POP JUMP JUMPDEST PUSH1 0x15 SLOAD DUP2 JUMP JUMPDEST PUSH2 0x1B33 PUSH2 0x4BF2 JUMP JUMPDEST PUSH1 0x40 MLOAD DUP1 PUSH1 0x40 ADD PUSH1 0x40 MSTORE DUP1 PUSH32 0x0 DUP2 MSTORE PUSH1 0x20 ADD PUSH32 0x0 DUP2 MSTORE POP SWAP1 POP SWAP1 JUMP JUMPDEST PUSH1 0x20 DUP1 MSTORE DUP1 PUSH1 0x0 MSTORE PUSH1 0x40 PUSH1 0x0 KECCAK256 PUSH1 0x0 SWAP2 POP SWAP1 POP SLOAD DUP2 JUMP JUMPDEST PUSH2 0x1BAC PUSH2 0x4C0C JUMP JUMPDEST PUSH1 0x40 MLOAD DUP1 PUSH1 0x80 ADD PUSH1 0x40 MSTORE DUP1 PUSH2 0x1BC0 DUP5 PUSH2 0x89A JUMP JUMPDEST DUP2 MSTORE PUSH1 0x20 ADD PUSH2 0x1BCE DUP5 PUSH2 0x1548 JUMP JUMPDEST DUP2 MSTORE PUSH1 0x20 ADD PUSH2 0x1BDB PUSH2 0x9B4 JUMP JUMPDEST DUP2 MSTORE PUSH1 0x20 ADD PUSH1 0x19 PUSH1 0x0 DUP6 PUSH20 0xFFFFFFFFFFFFFFFFFFFFFFFFFFFFFFFFFFFFFFFF AND PUSH20 0xFFFFFFFFFFFFFFFFFFFFFFFFFFFFFFFFFFFFFFFF AND DUP2 MSTORE PUSH1 0x20 ADD SWAP1 DUP2 MSTORE PUSH1 0x20 ADD PUSH1 0x0 KECCAK256 SLOAD DUP2 MSTORE POP SWAP1 POP SWAP2 SWAP1 POP JUMP JUMPDEST PUSH1 0x0 DUP1 PUSH2 0x1C35 PUSH2 0x9BE JUMP JUMPDEST PUSH20 0xFFFFFFFFFFFFFFFFFFFFFFFFFFFFFFFFFFFFFFFF AND PUSH4 0xDFE1681 PUSH1 0x40 MLOAD DUP2 PUSH4 0xFFFFFFFF AND PUSH1 0xE0 SHL DUP2 MSTORE PUSH1 0x4 ADD PUSH1 0x20 PUSH1 0x40 MLOAD DUP1 DUP4 SUB DUP2 DUP7 GAS STATICCALL ISZERO DUP1 ISZERO PUSH2 0x1C7F JUMPI RETURNDATASIZE PUSH1 0x0 DUP1 RETURNDATACOPY RETURNDATASIZE PUSH1 0x0 REVERT JUMPDEST POP POP POP POP PUSH1 0x40 MLOAD RETURNDATASIZE PUSH1 0x1F NOT PUSH1 0x1F DUP3 ADD AND DUP3 ADD DUP1 PUSH1 0x40 MSTORE POP DUP2 ADD SWAP1 PUSH2 0x1CA3 SWAP2 SWAP1 PUSH2 0x5442 JUMP JUMPDEST PUSH20 0xFFFFFFFFFFFFFFFFFFFFFFFFFFFFFFFFFFFFFFFF AND PUSH1 0x14 PUSH1 0x0 SWAP1 SLOAD SWAP1 PUSH2 0x100 EXP SWAP1 DIV PUSH20 0xFFFFFFFFFFFFFFFFFFFFFFFFFFFFFFFFFFFFFFFF AND PUSH20 0xFFFFFFFFFFFFFFFFFFFFFFFFFFFFFFFFFFFFFFFF AND EQ SWAP1 POP PUSH1 0x0 DUP1 PUSH2 0x1D00 PUSH2 0x9BE JUMP JUMPDEST PUSH20 0xFFFFFFFFFFFFFFFFFFFFFFFFFFFFFFFFFFFFFFFF AND PUSH4 0x902F1AC PUSH1 0x40 MLOAD DUP2 PUSH4 0xFFFFFFFF AND PUSH1 0xE0 SHL DUP2 MSTORE PUSH1 0x4 ADD PUSH1 0x60 PUSH1 0x40 MLOAD DUP1 DUP4 SUB DUP2 DUP7 GAS STATICCALL ISZERO DUP1 ISZERO PUSH2 0x1D4A JUMPI RETURNDATASIZE PUSH1 0x0 DUP1 RETURNDATACOPY RETURNDATASIZE PUSH1 0x0 REVERT JUMPDEST POP POP POP POP PUSH1 0x40 MLOAD RETURNDATASIZE PUSH1 0x1F NOT PUSH1 0x1F DUP3 ADD AND DUP3 ADD DUP1 PUSH1 0x40 MSTORE POP DUP2 ADD SWAP1 PUSH2 0x1D6E SWAP2 SWAP1 PUSH2 0x54F1 JUMP JUMPDEST POP PUSH14 0xFFFFFFFFFFFFFFFFFFFFFFFFFFFF AND SWAP2 POP PUSH14 0xFFFFFFFFFFFFFFFFFFFFFFFFFFFF AND SWAP2 POP DUP5 DUP4 PUSH2 0x1DAA JUMPI DUP2 DUP4 PUSH2 0x1DA5 SWAP2 SWAP1 PUSH2 0x5239 JUMP JUMPDEST PUSH2 0x1DB7 JUMP JUMPDEST DUP3 DUP3 PUSH2 0x1DB6 SWAP2 SWAP1 PUSH2 0x5239 JUMP JUMPDEST JUMPDEST PUSH2 0x1DC1 SWAP2 SWAP1 PUSH2 0x51C8 JUMP JUMPDEST SWAP4 POP POP POP POP SWAP2 SWAP1 POP JUMP JUMPDEST PUSH1 0x0 PUSH1 0x13 PUSH1 0x0 CALLER PUSH20 0xFFFFFFFFFFFFFFFFFFFFFFFFFFFFFFFFFFFFFFFF AND PUSH20 0xFFFFFFFFFFFFFFFFFFFFFFFFFFFFFFFFFFFFFFFF AND DUP2 MSTORE PUSH1 0x20 ADD SWAP1 DUP2 MSTORE PUSH1 0x20 ADD PUSH1 0x0 KECCAK256 PUSH1 0x5 ADD SLOAD SWAP1 POP PUSH1 0x0 DUP2 GT ISZERO PUSH2 0x1F17 JUMPI PUSH1 0x0 PUSH1 0x13 PUSH1 0x0 CALLER PUSH20 0xFFFFFFFFFFFFFFFFFFFFFFFFFFFFFFFFFFFFFFFF AND PUSH20 0xFFFFFFFFFFFFFFFFFFFFFFFFFFFFFFFFFFFFFFFF AND DUP2 MSTORE PUSH1 0x20 ADD SWAP1 DUP2 MSTORE PUSH1 0x20 ADD PUSH1 0x0 KECCAK256 PUSH1 0x5 ADD DUP2 SWAP1 SSTORE POP DUP1 PUSH1 0x13 PUSH1 0x0 CALLER PUSH20 0xFFFFFFFFFFFFFFFFFFFFFFFFFFFFFFFFFFFFFFFF AND PUSH20 0xFFFFFFFFFFFFFFFFFFFFFFFFFFFFFFFFFFFFFFFF AND DUP2 MSTORE PUSH1 0x20 ADD SWAP1 DUP2 MSTORE PUSH1 0x20 ADD PUSH1 0x0 KECCAK256 PUSH1 0x6 ADD PUSH1 0x0 DUP3 DUP3 SLOAD PUSH2 0x1EB5 SWAP2 SWAP1 PUSH2 0x526A JUMP JUMPDEST SWAP3 POP POP DUP2 SWAP1 SSTORE POP PUSH2 0x1EC8 CALLER DUP3 PUSH1 0x0 PUSH2 0x2D34 JUMP JUMPDEST CALLER PUSH20 0xFFFFFFFFFFFFFFFFFFFFFFFFFFFFFFFFFFFFFFFF AND PUSH32 0x894FBFBBD6C1B8FCA07D75A3E7CE66AC02EEFDBBF01AD90CE9F96E12993CCF29 DUP3 PUSH1 0x40 MLOAD PUSH2 0x1F0E SWAP2 SWAP1 PUSH2 0x4CDD JUMP JUMPDEST PUSH1 0x40 MLOAD DUP1 SWAP2 SUB SWAP1 LOG2 JUMPDEST POP JUMP JUMPDEST PUSH1 0x4 SLOAD DUP2 JUMP JUMPDEST PUSH1 0xF DUP1 PUSH1 0x0 ADD SLOAD SWAP1 DUP1 PUSH1 0x2 ADD SLOAD SWAP1 POP DUP3 JUMP JUMPDEST PUSH1 0x0 DUP1 PUSH1 0xA SLOAD SUB PUSH2 0x1F47 JUMPI PUSH1 0x5 SLOAD SWAP1 POP PUSH2 0x1FB2 JUMP JUMPDEST PUSH3 0x278D00 PUSH32 0x0 PUSH1 0x3 SLOAD PUSH1 0x4 SLOAD PUSH2 0x1F7A PUSH2 0x1A55 JUMP JUMPDEST PUSH2 0x1F84 SWAP2 SWAP1 PUSH2 0x5194 JUMP JUMPDEST PUSH2 0x1F8E SWAP2 SWAP1 PUSH2 0x51C8 JUMP JUMPDEST PUSH2 0x1F98 SWAP2 SWAP1 PUSH2 0x5239 JUMP JUMPDEST PUSH2 0x1FA2 SWAP2 SWAP1 PUSH2 0x5239 JUMP JUMPDEST PUSH1 0x5 SLOAD PUSH2 0x1FAF SWAP2 SWAP1 PUSH2 0x526A JUMP JUMPDEST SWAP1 POP JUMPDEST SWAP1 JUMP JUMPDEST PUSH1 0x21 PUSH1 0x20 MSTORE DUP1 PUSH1 0x0 MSTORE PUSH1 0x40 PUSH1 0x0 KECCAK256 PUSH1 0x0 SWAP2 POP SWAP1 POP SLOAD DUP2 JUMP JUMPDEST PUSH1 0x0 PUSH1 0x19 PUSH1 0x0 CALLER PUSH20 0xFFFFFFFFFFFFFFFFFFFFFFFFFFFFFFFFFFFFFFFF AND PUSH20 0xFFFFFFFFFFFFFFFFFFFFFFFFFFFFFFFFFFFFFFFF AND DUP2 MSTORE PUSH1 0x20 ADD SWAP1 DUP2 MSTORE PUSH1 0x20 ADD PUSH1 0x0 KECCAK256 SLOAD SWAP1 POP PUSH1 0x0 DUP2 GT PUSH2 0x2054 JUMPI PUSH1 0x40 MLOAD PUSH32 0x8C379A000000000000000000000000000000000000000000000000000000000 DUP2 MSTORE PUSH1 0x4 ADD PUSH2 0x204B SWAP1 PUSH2 0x5590 JUMP JUMPDEST PUSH1 0x40 MLOAD DUP1 SWAP2 SUB SWAP1 REVERT JUMPDEST PUSH1 0x0 PUSH1 0x19 PUSH1 0x0 CALLER PUSH20 0xFFFFFFFFFFFFFFFFFFFFFFFFFFFFFFFFFFFFFFFF AND PUSH20 0xFFFFFFFFFFFFFFFFFFFFFFFFFFFFFFFFFFFFFFFF AND DUP2 MSTORE PUSH1 0x20 ADD SWAP1 DUP2 MSTORE PUSH1 0x20 ADD PUSH1 0x0 KECCAK256 DUP2 SWAP1 SSTORE POP PUSH2 0x20A5 CALLER DUP3 PUSH1 0x0 PUSH2 0x2D34 JUMP JUMPDEST POP JUMP JUMPDEST PUSH1 0x5 SLOAD DUP2 JUMP JUMPDEST PUSH1 0x13 PUSH1 0x20 MSTORE DUP1 PUSH1 0x0 MSTORE PUSH1 0x40 PUSH1 0x0 KECCAK256 PUSH1 0x0 SWAP2 POP SWAP1 POP DUP1 PUSH1 0x0 ADD SLOAD SWAP1 DUP1 PUSH1 0x1 ADD SLOAD SWAP1 DUP1 PUSH1 0x2 ADD SLOAD SWAP1 DUP1 PUSH1 0x3 ADD SLOAD SWAP1 DUP1 PUSH1 0x4 ADD SLOAD SWAP1 DUP1 PUSH1 0x5 ADD SLOAD SWAP1 DUP1 PUSH1 0x6 ADD SLOAD SWAP1 DUP1 PUSH1 0x7 ADD SLOAD SWAP1 DUP1 PUSH1 0x8 ADD SLOAD SWAP1 DUP1 PUSH1 0x9 ADD PUSH1 0x0 SWAP1 SLOAD SWAP1 PUSH2 0x100 EXP SWAP1 DIV PUSH20 0xFFFFFFFFFFFFFFFFFFFFFFFFFFFFFFFFFFFFFFFF AND SWAP1 POP DUP11 JUMP JUMPDEST PUSH2 0x212A PUSH2 0xA67 JUMP JUMPDEST PUSH2 0x2132 PUSH2 0xC5C JUMP JUMPDEST JUMP JUMPDEST PUSH1 0x2 SLOAD DUP2 JUMP JUMPDEST PUSH2 0x2142 PUSH2 0x309F JUMP JUMPDEST PUSH1 0x0 PUSH20 0xFFFFFFFFFFFFFFFFFFFFFFFFFFFFFFFFFFFFFFFF AND DUP2 PUSH20 0xFFFFFFFFFFFFFFFFFFFFFFFFFFFFFFFFFFFFFFFF AND SUB PUSH2 0x21B1 JUMPI PUSH1 0x40 MLOAD PUSH32 0x8C379A000000000000000000000000000000000000000000000000000000000 DUP2 MSTORE PUSH1 0x4 ADD PUSH2 0x21A8 SWAP1 PUSH2 0x5622 JUMP JUMPDEST PUSH1 0x40 MLOAD DUP1 SWAP2 SUB SWAP1 REVERT JUMPDEST PUSH2 0x21BA DUP2 PUSH2 0x311D JUMP JUMPDEST POP JUMP JUMPDEST PUSH1 0x0 PUSH2 0x21D3 DUP5 PUSH1 0x0 ADD DUP5 PUSH1 0x0 SHL DUP5 PUSH1 0x0 SHL PUSH2 0x3EDC JUMP JUMPDEST SWAP1 POP SWAP4 SWAP3 POP POP POP JUMP JUMPDEST PUSH1 0x0 PUSH2 0x21EB DUP4 PUSH1 0x0 ADD DUP4 PUSH2 0x3F17 JUMP JUMPDEST SWAP1 POP SWAP3 SWAP2 POP POP JUMP JUMPDEST PUSH1 0x0 PUSH1 0x22 PUSH1 0x0 DUP4 PUSH20 0xFFFFFFFFFFFFFFFFFFFFFFFFFFFFFFFFFFFFFFFF AND PUSH20 0xFFFFFFFFFFFFFFFFFFFFFFFFFFFFFFFFFFFFFFFF AND DUP2 MSTORE PUSH1 0x20 ADD SWAP1 DUP2 MSTORE PUSH1 0x20 ADD PUSH1 0x0 KECCAK256 SLOAD SWAP1 POP SWAP2 SWAP1 POP JUMP JUMPDEST PUSH1 0x0 DUP1 PUSH1 0x0 DUP1 PUSH1 0x23 PUSH1 0x0 DUP7 PUSH20 0xFFFFFFFFFFFFFFFFFFFFFFFFFFFFFFFFFFFFFFFF AND PUSH20 0xFFFFFFFFFFFFFFFFFFFFFFFFFFFFFFFFFFFFFFFF AND DUP2 MSTORE PUSH1 0x20 ADD SWAP1 DUP2 MSTORE PUSH1 0x20 ADD PUSH1 0x0 KECCAK256 PUSH1 0x0 DUP8 DUP2 MSTORE PUSH1 0x20 ADD SWAP1 DUP2 MSTORE PUSH1 0x20 ADD PUSH1 0x0 KECCAK256 SWAP1 POP PUSH1 0x0 PUSH2 0x229F DUP3 PUSH2 0x304C JUMP JUMPDEST SWAP1 POP PUSH1 0x0 JUMPDEST DUP2 MLOAD DUP2 LT ISZERO PUSH2 0x24B3 JUMPI TIMESTAMP DUP3 DUP3 DUP2 MLOAD DUP2 LT PUSH2 0x22C1 JUMPI PUSH2 0x22C0 PUSH2 0x52CD JUMP JUMPDEST JUMPDEST PUSH1 0x20 MUL PUSH1 0x20 ADD ADD MLOAD GT PUSH2 0x24A0 JUMPI PUSH2 0x22FB DUP3 DUP3 DUP2 MLOAD DUP2 LT PUSH2 0x22E4 JUMPI PUSH2 0x22E3 PUSH2 0x52CD JUMP JUMPDEST JUMPDEST PUSH1 0x20 MUL PUSH1 0x20 ADD ADD MLOAD DUP5 PUSH2 0x3082 SWAP1 SWAP2 SWAP1 PUSH4 0xFFFFFFFF AND JUMP JUMPDEST DUP7 PUSH2 0x2306 SWAP2 SWAP1 PUSH2 0x526A JUMP JUMPDEST SWAP6 POP PUSH32 0x0 PUSH1 0x20 PUSH1 0x0 DUP11 DUP2 MSTORE PUSH1 0x20 ADD SWAP1 DUP2 MSTORE PUSH1 0x20 ADD PUSH1 0x0 KECCAK256 SLOAD PUSH2 0x236A DUP5 DUP5 DUP2 MLOAD DUP2 LT PUSH2 0x2353 JUMPI PUSH2 0x2352 PUSH2 0x52CD JUMP JUMPDEST JUMPDEST PUSH1 0x20 MUL PUSH1 0x20 ADD ADD MLOAD DUP7 PUSH2 0x3082 SWAP1 SWAP2 SWAP1 PUSH4 0xFFFFFFFF AND JUMP JUMPDEST PUSH2 0x2374 SWAP2 SWAP1 PUSH2 0x51C8 JUMP JUMPDEST PUSH2 0x237E SWAP2 SWAP1 PUSH2 0x5239 JUMP JUMPDEST DUP6 PUSH2 0x2389 SWAP2 SWAP1 PUSH2 0x526A JUMP JUMPDEST SWAP5 POP PUSH1 0x24 PUSH1 0x0 DUP9 PUSH20 0xFFFFFFFFFFFFFFFFFFFFFFFFFFFFFFFFFFFFFFFF AND PUSH20 0xFFFFFFFFFFFFFFFFFFFFFFFFFFFFFFFFFFFFFFFF AND DUP2 MSTORE PUSH1 0x20 ADD SWAP1 DUP2 MSTORE PUSH1 0x20 ADD PUSH1 0x0 KECCAK256 PUSH1 0x0 DUP4 DUP4 DUP2 MLOAD DUP2 LT PUSH2 0x23DF JUMPI PUSH2 0x23DE PUSH2 0x52CD JUMP JUMPDEST JUMPDEST PUSH1 0x20 MUL PUSH1 0x20 ADD ADD MLOAD DUP2 MSTORE PUSH1 0x20 ADD SWAP1 DUP2 MSTORE PUSH1 0x20 ADD PUSH1 0x0 KECCAK256 SLOAD DUP5 PUSH2 0x2401 SWAP2 SWAP1 PUSH2 0x526A JUMP JUMPDEST SWAP4 POP PUSH1 0x24 PUSH1 0x0 DUP9 PUSH20 0xFFFFFFFFFFFFFFFFFFFFFFFFFFFFFFFFFFFFFFFF AND PUSH20 0xFFFFFFFFFFFFFFFFFFFFFFFFFFFFFFFFFFFFFFFF AND DUP2 MSTORE PUSH1 0x20 ADD SWAP1 DUP2 MSTORE PUSH1 0x20 ADD PUSH1 0x0 KECCAK256 PUSH1 0x0 DUP4 DUP4 DUP2 MLOAD DUP2 LT PUSH2 0x2457 JUMPI PUSH2 0x2456 PUSH2 0x52CD JUMP JUMPDEST JUMPDEST PUSH1 0x20 MUL PUSH1 0x20 ADD ADD MLOAD DUP2 MSTORE PUSH1 0x20 ADD SWAP1 DUP2 MSTORE PUSH1 0x20 ADD PUSH1 0x0 KECCAK256 PUSH1 0x0 SWAP1 SSTORE PUSH2 0x249E DUP3 DUP3 DUP2 MLOAD DUP2 LT PUSH2 0x2487 JUMPI PUSH2 0x2486 PUSH2 0x52CD JUMP JUMPDEST JUMPDEST PUSH1 0x20 MUL PUSH1 0x20 ADD ADD MLOAD DUP5 PUSH2 0x3F87 SWAP1 SWAP2 SWAP1 PUSH4 0xFFFFFFFF AND JUMP JUMPDEST POP JUMPDEST DUP1 DUP1 PUSH2 0x24AB SWAP1 PUSH2 0x52FC JUMP JUMPDEST SWAP2 POP POP PUSH2 0x22A4 JUMP JUMPDEST POP POP POP SWAP3 POP SWAP3 POP SWAP3 JUMP JUMPDEST PUSH1 0x0 PUSH2 0x24C7 PUSH2 0x9BE JUMP JUMPDEST PUSH20 0xFFFFFFFFFFFFFFFFFFFFFFFFFFFFFFFFFFFFFFFF AND PUSH4 0xDFE1681 PUSH1 0x40 MLOAD DUP2 PUSH4 0xFFFFFFFF AND PUSH1 0xE0 SHL DUP2 MSTORE PUSH1 0x4 ADD PUSH1 0x20 PUSH1 0x40 MLOAD DUP1 DUP4 SUB DUP2 DUP7 GAS STATICCALL ISZERO DUP1 ISZERO PUSH2 0x2511 JUMPI RETURNDATASIZE PUSH1 0x0 DUP1 RETURNDATACOPY RETURNDATASIZE PUSH1 0x0 REVERT JUMPDEST POP POP POP POP PUSH1 0x40 MLOAD RETURNDATASIZE PUSH1 0x1F NOT PUSH1 0x1F DUP3 ADD AND DUP3 ADD DUP1 PUSH1 0x40 MSTORE POP DUP2 ADD SWAP1 PUSH2 0x2535 SWAP2 SWAP1 PUSH2 0x5442 JUMP JUMPDEST PUSH20 0xFFFFFFFFFFFFFFFFFFFFFFFFFFFFFFFFFFFFFFFF AND PUSH1 0x14 PUSH1 0x0 SWAP1 SLOAD SWAP1 PUSH2 0x100 EXP SWAP1 DIV PUSH20 0xFFFFFFFFFFFFFFFFFFFFFFFFFFFFFFFFFFFFFFFF AND PUSH20 0xFFFFFFFFFFFFFFFFFFFFFFFFFFFFFFFFFFFFFFFF AND EQ PUSH2 0x2604 JUMPI PUSH2 0x2591 PUSH2 0x9BE JUMP JUMPDEST PUSH20 0xFFFFFFFFFFFFFFFFFFFFFFFFFFFFFFFFFFFFFFFF AND PUSH4 0xDFE1681 PUSH1 0x40 MLOAD DUP2 PUSH4 0xFFFFFFFF AND PUSH1 0xE0 SHL DUP2 MSTORE PUSH1 0x4 ADD PUSH1 0x20 PUSH1 0x40 MLOAD DUP1 DUP4 SUB DUP2 DUP7 GAS STATICCALL ISZERO DUP1 ISZERO PUSH2 0x25DB JUMPI RETURNDATASIZE PUSH1 0x0 DUP1 RETURNDATACOPY RETURNDATASIZE PUSH1 0x0 REVERT JUMPDEST POP POP POP POP PUSH1 0x40 MLOAD RETURNDATASIZE PUSH1 0x1F NOT PUSH1 0x1F DUP3 ADD AND DUP3 ADD DUP1 PUSH1 0x40 MSTORE POP DUP2 ADD SWAP1 PUSH2 0x25FF SWAP2 SWAP1 PUSH2 0x5442 JUMP JUMPDEST PUSH2 0x267B JUMP JUMPDEST PUSH2 0x260C PUSH2 0x9BE JUMP JUMPDEST PUSH20 0xFFFFFFFFFFFFFFFFFFFFFFFFFFFFFFFFFFFFFFFF AND PUSH4 0xD21220A7 PUSH1 0x40 MLOAD DUP2 PUSH4 0xFFFFFFFF AND PUSH1 0xE0 SHL DUP2 MSTORE PUSH1 0x4 ADD PUSH1 0x20 PUSH1 0x40 MLOAD DUP1 DUP4 SUB DUP2 DUP7 GAS STATICCALL ISZERO DUP1 ISZERO PUSH2 0x2656 JUMPI RETURNDATASIZE PUSH1 0x0 DUP1 RETURNDATACOPY RETURNDATASIZE PUSH1 0x0 REVERT JUMPDEST POP POP POP POP PUSH1 0x40 MLOAD RETURNDATASIZE PUSH1 0x1F NOT PUSH1 0x1F DUP3 ADD AND DUP3 ADD DUP1 PUSH1 0x40 MSTORE POP DUP2 ADD SWAP1 PUSH2 0x267A SWAP2 SWAP1 PUSH2 0x5442 JUMP JUMPDEST JUMPDEST SWAP1 POP PUSH2 0x2685 PUSH2 0x9BE JUMP JUMPDEST PUSH20 0xFFFFFFFFFFFFFFFFFFFFFFFFFFFFFFFFFFFFFFFF AND PUSH4 0x95EA7B3 PUSH2 0x26A8 PUSH2 0x1150 JUMP JUMPDEST DUP5 PUSH1 0x40 MLOAD DUP4 PUSH4 0xFFFFFFFF AND PUSH1 0xE0 SHL DUP2 MSTORE PUSH1 0x4 ADD PUSH2 0x26C6 SWAP3 SWAP2 SWAP1 PUSH2 0x5642 JUMP JUMPDEST PUSH1 0x20 PUSH1 0x40 MLOAD DUP1 DUP4 SUB DUP2 PUSH1 0x0 DUP8 GAS CALL ISZERO DUP1 ISZERO PUSH2 0x26E5 JUMPI RETURNDATASIZE PUSH1 0x0 DUP1 RETURNDATACOPY RETURNDATASIZE PUSH1 0x0 REVERT JUMPDEST POP POP POP POP PUSH1 0x40 MLOAD RETURNDATASIZE PUSH1 0x1F NOT PUSH1 0x1F DUP3 ADD AND DUP3 ADD DUP1 PUSH1 0x40 MSTORE POP DUP2 ADD SWAP1 PUSH2 0x2709 SWAP2 SWAP1 PUSH2 0x56A3 JUMP JUMPDEST POP PUSH2 0x2712 PUSH2 0x1150 JUMP JUMPDEST PUSH20 0xFFFFFFFFFFFFFFFFFFFFFFFFFFFFFFFFFFFFFFFF AND PUSH4 0x2751CEC DUP3 DUP5 PUSH1 0x0 DUP1 CALLER TIMESTAMP PUSH1 0x40 MLOAD DUP8 PUSH4 0xFFFFFFFF AND PUSH1 0xE0 SHL DUP2 MSTORE PUSH1 0x4 ADD PUSH2 0x2755 SWAP7 SWAP6 SWAP5 SWAP4 SWAP3 SWAP2 SWAP1 PUSH2 0x570B JUMP JUMPDEST PUSH1 0x40 DUP1 MLOAD DUP1 DUP4 SUB DUP2 PUSH1 0x0 DUP8 GAS CALL ISZERO DUP1 ISZERO PUSH2 0x2773 JUMPI RETURNDATASIZE PUSH1 0x0 DUP1 RETURNDATACOPY RETURNDATASIZE PUSH1 0x0 REVERT JUMPDEST POP POP POP POP PUSH1 0x40 MLOAD RETURNDATASIZE PUSH1 0x1F NOT PUSH1 0x1F DUP3 ADD AND DUP3 ADD DUP1 PUSH1 0x40 MSTORE POP DUP2 ADD SWAP1 PUSH2 0x2797 SWAP2 SWAP1 PUSH2 0x5781 JUMP JUMPDEST POP POP POP POP JUMP JUMPDEST PUSH2 0x27A5 PUSH2 0x2CE5 JUMP JUMPDEST CALLER PUSH2 0x27AE PUSH2 0x1F32 JUMP JUMPDEST PUSH1 0x5 DUP2 SWAP1 SSTORE POP PUSH2 0x27BC PUSH2 0x1A55 JUMP JUMPDEST PUSH1 0x4 DUP2 SWAP1 SSTORE POP PUSH1 0x0 PUSH20 0xFFFFFFFFFFFFFFFFFFFFFFFFFFFFFFFFFFFFFFFF AND DUP2 PUSH20 0xFFFFFFFFFFFFFFFFFFFFFFFFFFFFFFFFFFFFFFFF AND EQ PUSH2 0x2889 JUMPI PUSH2 0x27FF DUP2 PUSH2 0x89A JUMP JUMPDEST PUSH1 0x9 PUSH1 0x0 DUP4 PUSH20 0xFFFFFFFFFFFFFFFFFFFFFFFFFFFFFFFFFFFFFFFF AND PUSH20 0xFFFFFFFFFFFFFFFFFFFFFFFFFFFFFFFFFFFFFFFF AND DUP2 MSTORE PUSH1 0x20 ADD SWAP1 DUP2 MSTORE PUSH1 0x20 ADD PUSH1 0x0 KECCAK256 DUP2 SWAP1 SSTORE POP PUSH1 0x5 SLOAD PUSH1 0x8 PUSH1 0x0 DUP4 PUSH20 0xFFFFFFFFFFFFFFFFFFFFFFFFFFFFFFFFFFFFFFFF AND PUSH20 0xFFFFFFFFFFFFFFFFFFFFFFFFFFFFFFFFFFFFFFFF AND DUP2 MSTORE PUSH1 0x20 ADD SWAP1 DUP2 MSTORE PUSH1 0x20 ADD PUSH1 0x0 KECCAK256 DUP2 SWAP1 SSTORE POP JUMPDEST PUSH1 0x0 PUSH1 0xA SLOAD SWAP1 POP PUSH1 0x0 PUSH1 0x3 SLOAD SWAP1 POP PUSH1 0x0 DUP5 GT PUSH2 0x28DA JUMPI PUSH1 0x40 MLOAD PUSH32 0x8C379A000000000000000000000000000000000000000000000000000000000 DUP2 MSTORE PUSH1 0x4 ADD PUSH2 0x28D1 SWAP1 PUSH2 0x580D JUMP JUMPDEST PUSH1 0x40 MLOAD DUP1 SWAP2 SUB SWAP1 REVERT JUMPDEST DUP4 PUSH1 0xA SLOAD PUSH2 0x28E8 SWAP2 SWAP1 PUSH2 0x5194 JUMP JUMPDEST PUSH1 0xA DUP2 SWAP1 SSTORE POP DUP4 PUSH1 0xB PUSH1 0x0 CALLER PUSH20 0xFFFFFFFFFFFFFFFFFFFFFFFFFFFFFFFFFFFFFFFF AND PUSH20 0xFFFFFFFFFFFFFFFFFFFFFFFFFFFFFFFFFFFFFFFF AND DUP2 MSTORE PUSH1 0x20 ADD SWAP1 DUP2 MSTORE PUSH1 0x20 ADD PUSH1 0x0 KECCAK256 SLOAD PUSH2 0x2939 SWAP2 SWAP1 PUSH2 0x5194 JUMP JUMPDEST PUSH1 0xB PUSH1 0x0 CALLER PUSH20 0xFFFFFFFFFFFFFFFFFFFFFFFFFFFFFFFFFFFFFFFF AND PUSH20 0xFFFFFFFFFFFFFFFFFFFFFFFFFFFFFFFFFFFFFFFF AND DUP2 MSTORE PUSH1 0x20 ADD SWAP1 DUP2 MSTORE PUSH1 0x20 ADD PUSH1 0x0 KECCAK256 DUP2 SWAP1 SSTORE POP CALLER PUSH20 0xFFFFFFFFFFFFFFFFFFFFFFFFFFFFFFFFFFFFFFFF AND PUSH32 0x7084F5476618D8E60B11EF0D7D3F06914655ADB8793E28FF7F018D4C76D505D5 DUP6 PUSH1 0x40 MLOAD PUSH2 0x29C2 SWAP2 SWAP1 PUSH2 0x4CDD JUMP JUMPDEST PUSH1 0x40 MLOAD DUP1 SWAP2 SUB SWAP1 LOG2 PUSH1 0x0 PUSH1 0x3 SLOAD SWAP1 POP PUSH1 0x0 PUSH1 0xA SLOAD SWAP1 POP DUP1 DUP5 EQ DUP1 ISZERO PUSH2 0x29E6 JUMPI POP DUP2 DUP4 EQ JUMPDEST ISZERO PUSH2 0x29F4 JUMPI POP POP POP POP PUSH2 0x2B49 JUMP JUMPDEST PUSH1 0x0 PUSH1 0x2 SLOAD SUB PUSH2 0x2A66 JUMPI TIMESTAMP DUP3 DUP3 PUSH32 0x0 PUSH3 0x278D00 PUSH1 0x7 SLOAD PUSH2 0x2A33 SWAP2 SWAP1 PUSH2 0x51C8 JUMP JUMPDEST PUSH2 0x2A3D SWAP2 SWAP1 PUSH2 0x51C8 JUMP JUMPDEST PUSH2 0x2A47 SWAP2 SWAP1 PUSH2 0x5239 JUMP JUMPDEST PUSH2 0x2A51 SWAP2 SWAP1 PUSH2 0x5239 JUMP JUMPDEST PUSH2 0x2A5B SWAP2 SWAP1 PUSH2 0x526A JUMP JUMPDEST PUSH1 0x2 DUP2 SWAP1 SSTORE POP PUSH2 0x2B44 JUMP JUMPDEST TIMESTAMP PUSH1 0x2 SLOAD GT DUP1 ISZERO PUSH2 0x2A77 JUMPI POP PUSH1 0x0 DUP2 EQ JUMPDEST ISZERO PUSH2 0x2AEC JUMPI PUSH32 0x0 PUSH3 0x278D00 DUP6 DUP6 TIMESTAMP PUSH1 0x2 SLOAD PUSH2 0x2AB1 SWAP2 SWAP1 PUSH2 0x5194 JUMP JUMPDEST PUSH2 0x2ABB SWAP2 SWAP1 PUSH2 0x51C8 JUMP JUMPDEST PUSH2 0x2AC5 SWAP2 SWAP1 PUSH2 0x51C8 JUMP JUMPDEST PUSH2 0x2ACF SWAP2 SWAP1 PUSH2 0x5239 JUMP JUMPDEST PUSH2 0x2AD9 SWAP2 SWAP1 PUSH2 0x5239 JUMP JUMPDEST PUSH1 0x7 DUP2 SWAP1 SSTORE POP PUSH1 0x0 PUSH1 0x2 DUP2 SWAP1 SSTORE POP PUSH2 0x2B43 JUMP JUMPDEST TIMESTAMP PUSH1 0x2 SLOAD GT ISZERO PUSH2 0x2B42 JUMPI TIMESTAMP DUP2 DUP4 DUP7 DUP7 TIMESTAMP PUSH1 0x2 SLOAD PUSH2 0x2B09 SWAP2 SWAP1 PUSH2 0x5194 JUMP JUMPDEST PUSH2 0x2B13 SWAP2 SWAP1 PUSH2 0x51C8 JUMP JUMPDEST PUSH2 0x2B1D SWAP2 SWAP1 PUSH2 0x51C8 JUMP JUMPDEST PUSH2 0x2B27 SWAP2 SWAP1 PUSH2 0x5239 JUMP JUMPDEST PUSH2 0x2B31 SWAP2 SWAP1 PUSH2 0x5239 JUMP JUMPDEST PUSH2 0x2B3B SWAP2 SWAP1 PUSH2 0x526A JUMP JUMPDEST PUSH1 0x2 DUP2 SWAP1 SSTORE POP JUMPDEST JUMPDEST JUMPDEST POP POP POP POP JUMPDEST POP PUSH2 0x2B52 PUSH2 0x3042 JUMP JUMPDEST POP JUMP JUMPDEST PUSH1 0x0 JUMPDEST PUSH1 0xF PUSH1 0x0 ADD SLOAD DUP2 LT ISZERO PUSH2 0x2CDE JUMPI PUSH1 0x0 PUSH20 0xFFFFFFFFFFFFFFFFFFFFFFFFFFFFFFFFFFFFFFFF AND DUP5 PUSH20 0xFFFFFFFFFFFFFFFFFFFFFFFFFFFFFFFFFFFFFFFF AND SUB PUSH2 0x2B9F JUMPI POP PUSH2 0x2CE0 JUMP JUMPDEST DUP2 ISZERO PUSH2 0x2C03 JUMPI DUP3 PUSH1 0x13 PUSH1 0x0 DUP7 PUSH20 0xFFFFFFFFFFFFFFFFFFFFFFFFFFFFFFFFFFFFFFFF AND PUSH20 0xFFFFFFFFFFFFFFFFFFFFFFFFFFFFFFFFFFFFFFFF AND DUP2 MSTORE PUSH1 0x20 ADD SWAP1 DUP2 MSTORE PUSH1 0x20 ADD PUSH1 0x0 KECCAK256 PUSH1 0x1 ADD PUSH1 0x0 DUP3 DUP3 SLOAD PUSH2 0x2BF7 SWAP2 SWAP1 PUSH2 0x526A JUMP JUMPDEST SWAP3 POP POP DUP2 SWAP1 SSTORE POP PUSH2 0x2C5D JUMP JUMPDEST DUP3 PUSH1 0x13 PUSH1 0x0 DUP7 PUSH20 0xFFFFFFFFFFFFFFFFFFFFFFFFFFFFFFFFFFFFFFFF AND PUSH20 0xFFFFFFFFFFFFFFFFFFFFFFFFFFFFFFFFFFFFFFFF AND DUP2 MSTORE PUSH1 0x20 ADD SWAP1 DUP2 MSTORE PUSH1 0x20 ADD PUSH1 0x0 KECCAK256 PUSH1 0x1 ADD PUSH1 0x0 DUP3 DUP3 SLOAD PUSH2 0x2C55 SWAP2 SWAP1 PUSH2 0x5194 JUMP JUMPDEST SWAP3 POP POP DUP2 SWAP1 SSTORE POP JUMPDEST PUSH2 0x2C66 DUP5 PUSH2 0x3FA1 JUMP JUMPDEST PUSH1 0x13 PUSH1 0x0 DUP6 PUSH20 0xFFFFFFFFFFFFFFFFFFFFFFFFFFFFFFFFFFFFFFFF AND PUSH20 0xFFFFFFFFFFFFFFFFFFFFFFFFFFFFFFFFFFFFFFFF AND DUP2 MSTORE PUSH1 0x20 ADD SWAP1 DUP2 MSTORE PUSH1 0x20 ADD PUSH1 0x0 KECCAK256 PUSH1 0x9 ADD PUSH1 0x0 SWAP1 SLOAD SWAP1 PUSH2 0x100 EXP SWAP1 DIV PUSH20 0xFFFFFFFFFFFFFFFFFFFFFFFFFFFFFFFFFFFFFFFF AND SWAP4 POP DUP1 DUP1 PUSH2 0x2CD6 SWAP1 PUSH2 0x52FC JUMP JUMPDEST SWAP2 POP POP PUSH2 0x2B58 JUMP JUMPDEST POP JUMPDEST POP POP POP JUMP JUMPDEST PUSH1 0x2 PUSH1 0x0 SLOAD SUB PUSH2 0x2D2A JUMPI PUSH1 0x40 MLOAD PUSH32 0x8C379A000000000000000000000000000000000000000000000000000000000 DUP2 MSTORE PUSH1 0x4 ADD PUSH2 0x2D21 SWAP1 PUSH2 0x5879 JUMP JUMPDEST PUSH1 0x40 MLOAD DUP1 SWAP2 SUB SWAP1 REVERT JUMPDEST PUSH1 0x2 PUSH1 0x0 DUP2 SWAP1 SSTORE POP JUMP JUMPDEST DUP3 PUSH20 0xFFFFFFFFFFFFFFFFFFFFFFFFFFFFFFFFFFFFFFFF AND PUSH2 0x8FC DUP4 SWAP1 DUP2 ISZERO MUL SWAP1 PUSH1 0x40 MLOAD PUSH1 0x0 PUSH1 0x40 MLOAD DUP1 DUP4 SUB DUP2 DUP6 DUP9 DUP9 CALL SWAP4 POP POP POP POP ISZERO DUP1 ISZERO PUSH2 0x2D7A JUMPI RETURNDATASIZE PUSH1 0x0 DUP1 RETURNDATACOPY RETURNDATASIZE PUSH1 0x0 REVERT JUMPDEST POP DUP1 ISZERO PUSH2 0x2D8B JUMPI PUSH2 0x2D8A DUP3 PUSH2 0x417F JUMP JUMPDEST JUMPDEST POP POP POP JUMP JUMPDEST PUSH1 0x0 DUP1 PUSH1 0x40 MLOAD DUP1 PUSH2 0x140 ADD PUSH1 0x40 MSTORE DUP1 PUSH32 0x0 PUSH3 0x2DC6C0 PUSH2 0x2DCE SWAP2 SWAP1 PUSH2 0x51C8 JUMP JUMPDEST DUP2 MSTORE PUSH1 0x20 ADD PUSH32 0x0 PUSH3 0x5B8D80 PUSH2 0x2E02 SWAP2 SWAP1 PUSH2 0x51C8 JUMP JUMPDEST DUP2 MSTORE PUSH1 0x20 ADD PUSH32 0x0 PUSH3 0x895440 PUSH2 0x2E36 SWAP2 SWAP1 PUSH2 0x51C8 JUMP JUMPDEST DUP2 MSTORE PUSH1 0x20 ADD PUSH32 0x0 PUSH3 0xB71B00 PUSH2 0x2E6A SWAP2 SWAP1 PUSH2 0x51C8 JUMP JUMPDEST DUP2 MSTORE PUSH1 0x20 ADD PUSH32 0x0 PUSH3 0xE4E1C0 PUSH2 0x2E9E SWAP2 SWAP1 PUSH2 0x51C8 JUMP JUMPDEST DUP2 MSTORE PUSH1 0x20 ADD PUSH32 0x0 PUSH4 0x1C9C380 PUSH2 0x2ED3 SWAP2 SWAP1 PUSH2 0x51C8 JUMP JUMPDEST DUP2 MSTORE PUSH1 0x20 ADD PUSH32 0x0 PUSH4 0x3938700 PUSH2 0x2F08 SWAP2 SWAP1 PUSH2 0x51C8 JUMP JUMPDEST DUP2 MSTORE PUSH1 0x20 ADD PUSH32 0x0 PUSH4 0x55D4A80 PUSH2 0x2F3D SWAP2 SWAP1 PUSH2 0x51C8 JUMP JUMPDEST DUP2 MSTORE PUSH1 0x20 ADD PUSH32 0x0 PUSH4 0x7270E00 PUSH2 0x2F72 SWAP2 SWAP1 PUSH2 0x51C8 JUMP JUMPDEST DUP2 MSTORE PUSH1 0x20 ADD PUSH32 0x0 PUSH4 0xBEBC200 PUSH2 0x2FA7 SWAP2 SWAP1 PUSH2 0x51C8 JUMP JUMPDEST DUP2 MSTORE POP SWAP1 POP PUSH1 0x0 DUP1 JUMPDEST PUSH1 0xA DUP2 LT ISZERO PUSH2 0x3005 JUMPI PUSH1 0x0 DUP4 PUSH1 0x1 PUSH1 0xA DUP2 LT PUSH2 0x2FCF JUMPI PUSH2 0x2FCE PUSH2 0x52CD JUMP JUMPDEST JUMPDEST PUSH1 0x20 MUL ADD MLOAD DUP7 PUSH2 0x2FDF SWAP2 SWAP1 PUSH2 0x5239 JUMP JUMPDEST GT ISZERO PUSH2 0x2FF2 JUMPI DUP2 PUSH2 0x2FEF SWAP1 PUSH2 0x52FC JUMP JUMPDEST SWAP2 POP JUMPDEST DUP1 DUP1 PUSH2 0x2FFD SWAP1 PUSH2 0x52FC JUMP JUMPDEST SWAP2 POP POP PUSH2 0x2FB0 JUMP JUMPDEST POP DUP1 PUSH1 0xA PUSH2 0x3013 SWAP2 SWAP1 PUSH2 0x59CC JUMP JUMPDEST DUP2 PUSH1 0x7 PUSH2 0x3020 SWAP2 SWAP1 PUSH2 0x59CC JUMP JUMPDEST DUP7 PUSH2 0x302B SWAP2 SWAP1 PUSH2 0x51C8 JUMP JUMPDEST PUSH2 0x3035 SWAP2 SWAP1 PUSH2 0x5239 JUMP JUMPDEST SWAP5 POP DUP5 SWAP3 POP POP POP SWAP3 SWAP2 POP POP JUMP JUMPDEST PUSH1 0x1 PUSH1 0x0 DUP2 SWAP1 SSTORE POP JUMP JUMPDEST PUSH1 0x60 PUSH1 0x0 PUSH2 0x305C DUP4 PUSH1 0x0 ADD PUSH2 0x4194 JUMP JUMPDEST SWAP1 POP PUSH1 0x60 DUP2 SWAP1 POP DUP1 SWAP3 POP POP POP SWAP2 SWAP1 POP JUMP JUMPDEST PUSH1 0x0 PUSH2 0x307B DUP3 PUSH1 0x0 ADD PUSH2 0x41A9 JUMP JUMPDEST SWAP1 POP SWAP2 SWAP1 POP JUMP JUMPDEST PUSH1 0x0 PUSH2 0x3094 DUP4 PUSH1 0x0 ADD DUP4 PUSH1 0x0 SHL PUSH2 0x41BE JUMP JUMPDEST PUSH1 0x0 SHR SWAP1 POP SWAP3 SWAP2 POP POP JUMP JUMPDEST PUSH2 0x30A7 PUSH2 0x423A JUMP JUMPDEST PUSH20 0xFFFFFFFFFFFFFFFFFFFFFFFFFFFFFFFFFFFFFFFF AND PUSH2 0x30C5 PUSH2 0x1A93 JUMP JUMPDEST PUSH20 0xFFFFFFFFFFFFFFFFFFFFFFFFFFFFFFFFFFFFFFFF AND EQ PUSH2 0x311B JUMPI PUSH1 0x40 MLOAD PUSH32 0x8C379A000000000000000000000000000000000000000000000000000000000 DUP2 MSTORE PUSH1 0x4 ADD PUSH2 0x3112 SWAP1 PUSH2 0x5A63 JUMP JUMPDEST PUSH1 0x40 MLOAD DUP1 SWAP2 SUB SWAP1 REVERT JUMPDEST JUMP JUMPDEST PUSH1 0x0 PUSH1 0x1 PUSH1 0x0 SWAP1 SLOAD SWAP1 PUSH2 0x100 EXP SWAP1 DIV PUSH20 0xFFFFFFFFFFFFFFFFFFFFFFFFFFFFFFFFFFFFFFFF AND SWAP1 POP DUP2 PUSH1 0x1 PUSH1 0x0 PUSH2 0x100 EXP DUP2 SLOAD DUP2 PUSH20 0xFFFFFFFFFFFFFFFFFFFFFFFFFFFFFFFFFFFFFFFF MUL NOT AND SWAP1 DUP4 PUSH20 0xFFFFFFFFFFFFFFFFFFFFFFFFFFFFFFFFFFFFFFFF AND MUL OR SWAP1 SSTORE POP DUP2 PUSH20 0xFFFFFFFFFFFFFFFFFFFFFFFFFFFFFFFFFFFFFFFF AND DUP2 PUSH20 0xFFFFFFFFFFFFFFFFFFFFFFFFFFFFFFFFFFFFFFFF AND PUSH32 0x8BE0079C531659141344CD1FD0A4F28419497F9722A3DAAFE3B4186F6B6457E0 PUSH1 0x40 MLOAD PUSH1 0x40 MLOAD DUP1 SWAP2 SUB SWAP1 LOG3 POP POP JUMP JUMPDEST PUSH1 0x0 PUSH2 0x31F5 DUP4 PUSH1 0x0 ADD DUP4 PUSH1 0x0 SHL PUSH2 0x4242 JUMP JUMPDEST SWAP1 POP SWAP3 SWAP2 POP POP JUMP JUMPDEST PUSH1 0x0 PUSH1 0x15 SLOAD SUB ISZERO PUSH2 0x3361 JUMPI PUSH1 0x0 DUP1 PUSH2 0x3215 PUSH1 0x16 PUSH2 0x304C JUMP JUMPDEST SWAP1 POP PUSH1 0x0 JUMPDEST DUP2 MLOAD DUP2 LT ISZERO PUSH2 0x3293 JUMPI DUP2 DUP2 DUP2 MLOAD DUP2 LT PUSH2 0x3236 JUMPI PUSH2 0x3235 PUSH2 0x52CD JUMP JUMPDEST JUMPDEST PUSH1 0x20 MUL PUSH1 0x20 ADD ADD MLOAD DUP5 LT PUSH2 0x3280 JUMPI PUSH2 0x3272 DUP3 DUP3 DUP2 MLOAD DUP2 LT PUSH2 0x325A JUMPI PUSH2 0x3259 PUSH2 0x52CD JUMP JUMPDEST JUMPDEST PUSH1 0x20 MUL PUSH1 0x20 ADD ADD MLOAD PUSH1 0x16 PUSH2 0x3082 SWAP1 SWAP2 SWAP1 PUSH4 0xFFFFFFFF AND JUMP JUMPDEST DUP4 PUSH2 0x327D SWAP2 SWAP1 PUSH2 0x526A JUMP JUMPDEST SWAP3 POP JUMPDEST DUP1 DUP1 PUSH2 0x328B SWAP1 PUSH2 0x52FC JUMP JUMPDEST SWAP2 POP POP PUSH2 0x321A JUMP JUMPDEST POP PUSH1 0x0 DUP3 SUB PUSH2 0x32A3 JUMPI POP POP PUSH2 0x3361 JUMP JUMPDEST PUSH1 0x0 PUSH32 0x0 DUP4 DUP6 PUSH2 0x32D2 SWAP2 SWAP1 PUSH2 0x51C8 JUMP JUMPDEST PUSH2 0x32DC SWAP2 SWAP1 PUSH2 0x5239 JUMP JUMPDEST SWAP1 POP PUSH1 0x15 SLOAD DUP2 GT ISZERO PUSH2 0x32EE JUMPI PUSH1 0x15 SLOAD SWAP1 POP JUMPDEST DUP1 PUSH1 0x15 PUSH1 0x0 DUP3 DUP3 SLOAD PUSH2 0x3300 SWAP2 SWAP1 PUSH2 0x5194 JUMP JUMPDEST SWAP3 POP POP DUP2 SWAP1 SSTORE POP DUP1 PUSH1 0x19 PUSH1 0x0 CALLER PUSH20 0xFFFFFFFFFFFFFFFFFFFFFFFFFFFFFFFFFFFFFFFF AND PUSH20 0xFFFFFFFFFFFFFFFFFFFFFFFFFFFFFFFFFFFFFFFF AND DUP2 MSTORE PUSH1 0x20 ADD SWAP1 DUP2 MSTORE PUSH1 0x20 ADD PUSH1 0x0 KECCAK256 PUSH1 0x0 DUP3 DUP3 SLOAD PUSH2 0x3356 SWAP2 SWAP1 PUSH2 0x526A JUMP JUMPDEST SWAP3 POP POP DUP2 SWAP1 SSTORE POP POP POP POP JUMPDEST POP JUMP JUMPDEST PUSH1 0x0 PUSH20 0xFFFFFFFFFFFFFFFFFFFFFFFFFFFFFFFFFFFFFFFF AND DUP3 PUSH20 0xFFFFFFFFFFFFFFFFFFFFFFFFFFFFFFFFFFFFFFFF AND EQ DUP1 PUSH2 0x33CB JUMPI POP PUSH1 0x0 PUSH20 0xFFFFFFFFFFFFFFFFFFFFFFFFFFFFFFFFFFFFFFFF AND DUP2 PUSH20 0xFFFFFFFFFFFFFFFFFFFFFFFFFFFFFFFFFFFFFFFF AND EQ JUMPDEST DUP1 PUSH2 0x3465 JUMPI POP PUSH1 0x0 PUSH20 0xFFFFFFFFFFFFFFFFFFFFFFFFFFFFFFFFFFFFFFFF AND PUSH1 0x13 PUSH1 0x0 DUP4 PUSH20 0xFFFFFFFFFFFFFFFFFFFFFFFFFFFFFFFFFFFFFFFF AND PUSH20 0xFFFFFFFFFFFFFFFFFFFFFFFFFFFFFFFFFFFFFFFF AND DUP2 MSTORE PUSH1 0x20 ADD SWAP1 DUP2 MSTORE PUSH1 0x20 ADD PUSH1 0x0 KECCAK256 PUSH1 0x9 ADD PUSH1 0x0 SWAP1 SLOAD SWAP1 PUSH2 0x100 EXP SWAP1 DIV PUSH20 0xFFFFFFFFFFFFFFFFFFFFFFFFFFFFFFFFFFFFFFFF AND PUSH20 0xFFFFFFFFFFFFFFFFFFFFFFFFFFFFFFFFFFFFFFFF AND EQ ISZERO JUMPDEST DUP1 PUSH2 0x34B3 JUMPI POP PUSH1 0x0 PUSH1 0x13 PUSH1 0x0 DUP4 PUSH20 0xFFFFFFFFFFFFFFFFFFFFFFFFFFFFFFFFFFFFFFFF AND PUSH20 0xFFFFFFFFFFFFFFFFFFFFFFFFFFFFFFFFFFFFFFFF AND DUP2 MSTORE PUSH1 0x20 ADD SWAP1 DUP2 MSTORE PUSH1 0x20 ADD PUSH1 0x0 KECCAK256 PUSH1 0x1 ADD SLOAD EQ ISZERO JUMPDEST PUSH2 0x36CD JUMPI DUP2 PUSH1 0x13 PUSH1 0x0 DUP4 PUSH20 0xFFFFFFFFFFFFFFFFFFFFFFFFFFFFFFFFFFFFFFFF AND PUSH20 0xFFFFFFFFFFFFFFFFFFFFFFFFFFFFFFFFFFFFFFFF AND DUP2 MSTORE PUSH1 0x20 ADD SWAP1 DUP2 MSTORE PUSH1 0x20 ADD PUSH1 0x0 KECCAK256 PUSH1 0x9 ADD PUSH1 0x0 PUSH2 0x100 EXP DUP2 SLOAD DUP2 PUSH20 0xFFFFFFFFFFFFFFFFFFFFFFFFFFFFFFFFFFFFFFFF MUL NOT AND SWAP1 DUP4 PUSH20 0xFFFFFFFFFFFFFFFFFFFFFFFFFFFFFFFFFFFFFFFF AND MUL OR SWAP1 SSTORE POP PUSH1 0x13 PUSH1 0x0 DUP4 PUSH20 0xFFFFFFFFFFFFFFFFFFFFFFFFFFFFFFFFFFFFFFFF AND PUSH20 0xFFFFFFFFFFFFFFFFFFFFFFFFFFFFFFFFFFFFFFFF AND DUP2 MSTORE PUSH1 0x20 ADD SWAP1 DUP2 MSTORE PUSH1 0x20 ADD PUSH1 0x0 KECCAK256 PUSH1 0xA ADD DUP2 SWAP1 DUP1 PUSH1 0x1 DUP2 SLOAD ADD DUP1 DUP3 SSTORE DUP1 SWAP2 POP POP PUSH1 0x1 SWAP1 SUB SWAP1 PUSH1 0x0 MSTORE PUSH1 0x20 PUSH1 0x0 KECCAK256 ADD PUSH1 0x0 SWAP1 SWAP2 SWAP1 SWAP2 SWAP1 SWAP2 PUSH2 0x100 EXP DUP2 SLOAD DUP2 PUSH20 0xFFFFFFFFFFFFFFFFFFFFFFFFFFFFFFFFFFFFFFFF MUL NOT AND SWAP1 DUP4 PUSH20 0xFFFFFFFFFFFFFFFFFFFFFFFFFFFFFFFFFFFFFFFF AND MUL OR SWAP1 SSTORE POP PUSH1 0x13 PUSH1 0x0 DUP4 PUSH20 0xFFFFFFFFFFFFFFFFFFFFFFFFFFFFFFFFFFFFFFFF AND PUSH20 0xFFFFFFFFFFFFFFFFFFFFFFFFFFFFFFFFFFFFFFFF AND DUP2 MSTORE PUSH1 0x20 ADD SWAP1 DUP2 MSTORE PUSH1 0x20 ADD PUSH1 0x0 KECCAK256 PUSH1 0xA ADD DUP1 SLOAD SWAP1 POP PUSH1 0x13 PUSH1 0x0 DUP5 PUSH20 0xFFFFFFFFFFFFFFFFFFFFFFFFFFFFFFFFFFFFFFFF AND PUSH20 0xFFFFFFFFFFFFFFFFFFFFFFFFFFFFFFFFFFFFFFFF AND DUP2 MSTORE PUSH1 0x20 ADD SWAP1 DUP2 MSTORE PUSH1 0x20 ADD PUSH1 0x0 KECCAK256 PUSH1 0x2 ADD DUP2 SWAP1 SSTORE POP DUP1 PUSH20 0xFFFFFFFFFFFFFFFFFFFFFFFFFFFFFFFFFFFFFFFF AND DUP3 PUSH20 0xFFFFFFFFFFFFFFFFFFFFFFFFFFFFFFFFFFFFFFFF AND PUSH32 0xF7D9B049880898D8A5CDC76CBB530774D26555D72225625FC63DCE6263408052 TIMESTAMP PUSH1 0x40 MLOAD PUSH2 0x36C4 SWAP2 SWAP1 PUSH2 0x4CDD JUMP JUMPDEST PUSH1 0x40 MLOAD DUP1 SWAP2 SUB SWAP1 LOG3 JUMPDEST POP POP JUMP JUMPDEST DUP2 PUSH20 0xFFFFFFFFFFFFFFFFFFFFFFFFFFFFFFFFFFFFFFFF AND PUSH4 0x23B872DD CALLER ADDRESS DUP5 PUSH1 0x40 MLOAD DUP5 PUSH4 0xFFFFFFFF AND PUSH1 0xE0 SHL DUP2 MSTORE PUSH1 0x4 ADD PUSH2 0x370E SWAP4 SWAP3 SWAP2 SWAP1 PUSH2 0x5A83 JUMP JUMPDEST PUSH1 0x20 PUSH1 0x40 MLOAD DUP1 DUP4 SUB DUP2 PUSH1 0x0 DUP8 GAS CALL ISZERO DUP1 ISZERO PUSH2 0x372D JUMPI RETURNDATASIZE PUSH1 0x0 DUP1 RETURNDATACOPY RETURNDATASIZE PUSH1 0x0 REVERT JUMPDEST POP POP POP POP PUSH1 0x40 MLOAD RETURNDATASIZE PUSH1 0x1F NOT PUSH1 0x1F DUP3 ADD AND DUP3 ADD DUP1 PUSH1 0x40 MSTORE POP DUP2 ADD SWAP1 PUSH2 0x3751 SWAP2 SWAP1 PUSH2 0x56A3 JUMP JUMPDEST POP POP POP JUMP JUMPDEST PUSH1 0x0 DUP1 PUSH1 0x0 DUP1 PUSH2 0x3764 PUSH2 0x9BE JUMP JUMPDEST PUSH20 0xFFFFFFFFFFFFFFFFFFFFFFFFFFFFFFFFFFFFFFFF AND PUSH4 0xDFE1681 PUSH1 0x40 MLOAD DUP2 PUSH4 0xFFFFFFFF AND PUSH1 0xE0 SHL DUP2 MSTORE PUSH1 0x4 ADD PUSH1 0x20 PUSH1 0x40 MLOAD DUP1 DUP4 SUB DUP2 DUP7 GAS STATICCALL ISZERO DUP1 ISZERO PUSH2 0x37AE JUMPI RETURNDATASIZE PUSH1 0x0 DUP1 RETURNDATACOPY RETURNDATASIZE PUSH1 0x0 REVERT JUMPDEST POP POP POP POP PUSH1 0x40 MLOAD RETURNDATASIZE PUSH1 0x1F NOT PUSH1 0x1F DUP3 ADD AND DUP3 ADD DUP1 PUSH1 0x40 MSTORE POP DUP2 ADD SWAP1 PUSH2 0x37D2 SWAP2 SWAP1 PUSH2 0x5442 JUMP JUMPDEST PUSH20 0xFFFFFFFFFFFFFFFFFFFFFFFFFFFFFFFFFFFFFFFF AND PUSH1 0x14 PUSH1 0x0 SWAP1 SLOAD SWAP1 PUSH2 0x100 EXP SWAP1 DIV PUSH20 0xFFFFFFFFFFFFFFFFFFFFFFFFFFFFFFFFFFFFFFFF AND PUSH20 0xFFFFFFFFFFFFFFFFFFFFFFFFFFFFFFFFFFFFFFFF AND EQ SWAP1 POP PUSH1 0x0 DUP2 PUSH2 0x38A6 JUMPI PUSH2 0x3833 PUSH2 0x9BE JUMP JUMPDEST PUSH20 0xFFFFFFFFFFFFFFFFFFFFFFFFFFFFFFFFFFFFFFFF AND PUSH4 0xDFE1681 PUSH1 0x40 MLOAD DUP2 PUSH4 0xFFFFFFFF AND PUSH1 0xE0 SHL DUP2 MSTORE PUSH1 0x4 ADD PUSH1 0x20 PUSH1 0x40 MLOAD DUP1 DUP4 SUB DUP2 DUP7 GAS STATICCALL ISZERO DUP1 ISZERO PUSH2 0x387D JUMPI RETURNDATASIZE PUSH1 0x0 DUP1 RETURNDATACOPY RETURNDATASIZE PUSH1 0x0 REVERT JUMPDEST POP POP POP POP PUSH1 0x40 MLOAD RETURNDATASIZE PUSH1 0x1F NOT PUSH1 0x1F DUP3 ADD AND DUP3 ADD DUP1 PUSH1 0x40 MSTORE POP DUP2 ADD SWAP1 PUSH2 0x38A1 SWAP2 SWAP1 PUSH2 0x5442 JUMP JUMPDEST PUSH2 0x391D JUMP JUMPDEST PUSH2 0x38AE PUSH2 0x9BE JUMP JUMPDEST PUSH20 0xFFFFFFFFFFFFFFFFFFFFFFFFFFFFFFFFFFFFFFFF AND PUSH4 0xD21220A7 PUSH1 0x40 MLOAD DUP2 PUSH4 0xFFFFFFFF AND PUSH1 0xE0 SHL DUP2 MSTORE PUSH1 0x4 ADD PUSH1 0x20 PUSH1 0x40 MLOAD DUP1 DUP4 SUB DUP2 DUP7 GAS STATICCALL ISZERO DUP1 ISZERO PUSH2 0x38F8 JUMPI RETURNDATASIZE PUSH1 0x0 DUP1 RETURNDATACOPY RETURNDATASIZE PUSH1 0x0 REVERT JUMPDEST POP POP POP POP PUSH1 0x40 MLOAD RETURNDATASIZE PUSH1 0x1F NOT PUSH1 0x1F DUP3 ADD AND DUP3 ADD DUP1 PUSH1 0x40 MSTORE POP DUP2 ADD SWAP1 PUSH2 0x391C SWAP2 SWAP1 PUSH2 0x5442 JUMP JUMPDEST JUMPDEST SWAP1 POP PUSH1 0x0 DUP1 PUSH2 0x392A PUSH2 0x9BE JUMP JUMPDEST PUSH20 0xFFFFFFFFFFFFFFFFFFFFFFFFFFFFFFFFFFFFFFFF AND PUSH4 0x902F1AC PUSH1 0x40 MLOAD DUP2 PUSH4 0xFFFFFFFF AND PUSH1 0xE0 SHL DUP2 MSTORE PUSH1 0x4 ADD PUSH1 0x60 PUSH1 0x40 MLOAD DUP1 DUP4 SUB DUP2 DUP7 GAS STATICCALL ISZERO DUP1 ISZERO PUSH2 0x3974 JUMPI RETURNDATASIZE PUSH1 0x0 DUP1 RETURNDATACOPY RETURNDATASIZE PUSH1 0x0 REVERT JUMPDEST POP POP POP POP PUSH1 0x40 MLOAD RETURNDATASIZE PUSH1 0x1F NOT PUSH1 0x1F DUP3 ADD AND DUP3 ADD DUP1 PUSH1 0x40 MSTORE POP DUP2 ADD SWAP1 PUSH2 0x3998 SWAP2 SWAP1 PUSH2 0x54F1 JUMP JUMPDEST POP PUSH14 0xFFFFFFFFFFFFFFFFFFFFFFFFFFFF AND SWAP2 POP PUSH14 0xFFFFFFFFFFFFFFFFFFFFFFFFFFFF AND SWAP2 POP PUSH1 0x0 DUP10 DUP6 PUSH2 0x39D6 JUMPI DUP3 DUP5 PUSH2 0x39D1 SWAP2 SWAP1 PUSH2 0x5239 JUMP JUMPDEST PUSH2 0x39E3 JUMP JUMPDEST DUP4 DUP4 PUSH2 0x39E2 SWAP2 SWAP1 PUSH2 0x5239 JUMP JUMPDEST JUMPDEST PUSH2 0x39ED SWAP2 SWAP1 PUSH2 0x51C8 JUMP JUMPDEST SWAP1 POP PUSH2 0x39FD DUP5 DUP3 DUP12 PUSH4 0xFFFFFFFF AND JUMP JUMPDEST DUP4 PUSH20 0xFFFFFFFFFFFFFFFFFFFFFFFFFFFFFFFFFFFFFFFF AND PUSH4 0x95EA7B3 PUSH2 0x3A21 PUSH2 0x1150 JUMP JUMPDEST DUP4 PUSH1 0x40 MLOAD DUP4 PUSH4 0xFFFFFFFF AND PUSH1 0xE0 SHL DUP2 MSTORE PUSH1 0x4 ADD PUSH2 0x3A3F SWAP3 SWAP2 SWAP1 PUSH2 0x5642 JUMP JUMPDEST PUSH1 0x20 PUSH1 0x40 MLOAD DUP1 DUP4 SUB DUP2 PUSH1 0x0 DUP8 GAS CALL ISZERO DUP1 ISZERO PUSH2 0x3A5E JUMPI RETURNDATASIZE PUSH1 0x0 DUP1 RETURNDATACOPY RETURNDATASIZE PUSH1 0x0 REVERT JUMPDEST POP POP POP POP PUSH1 0x40 MLOAD RETURNDATASIZE PUSH1 0x1F NOT PUSH1 0x1F DUP3 ADD AND DUP3 ADD DUP1 PUSH1 0x40 MSTORE POP DUP2 ADD SWAP1 PUSH2 0x3A82 SWAP2 SWAP1 PUSH2 0x56A3 JUMP JUMPDEST POP PUSH2 0x3A8B PUSH2 0x1150 JUMP JUMPDEST PUSH20 0xFFFFFFFFFFFFFFFFFFFFFFFFFFFFFFFFFFFFFFFF AND PUSH4 0xF305D719 DUP12 DUP7 DUP5 PUSH1 0x0 DUP1 ADDRESS TIMESTAMP PUSH1 0x40 MLOAD DUP9 PUSH4 0xFFFFFFFF AND PUSH1 0xE0 SHL DUP2 MSTORE PUSH1 0x4 ADD PUSH2 0x3ACF SWAP7 SWAP6 SWAP5 SWAP4 SWAP3 SWAP2 SWAP1 PUSH2 0x570B JUMP JUMPDEST PUSH1 0x60 PUSH1 0x40 MLOAD DUP1 DUP4 SUB DUP2 DUP6 DUP9 GAS CALL ISZERO DUP1 ISZERO PUSH2 0x3AED JUMPI RETURNDATASIZE PUSH1 0x0 DUP1 RETURNDATACOPY RETURNDATASIZE PUSH1 0x0 REVERT JUMPDEST POP POP POP POP POP PUSH1 0x40 MLOAD RETURNDATASIZE PUSH1 0x1F NOT PUSH1 0x1F DUP3 ADD AND DUP3 ADD DUP1 PUSH1 0x40 MSTORE POP DUP2 ADD SWAP1 PUSH2 0x3B12 SWAP2 SWAP1 PUSH2 0x5ABA JUMP JUMPDEST SWAP8 POP SWAP8 POP SWAP8 POP POP POP POP POP POP SWAP3 POP SWAP3 POP SWAP3 JUMP JUMPDEST PUSH2 0x3B2C PUSH2 0x2CE5 JUMP JUMPDEST CALLER PUSH2 0x3B35 PUSH2 0x1F32 JUMP JUMPDEST PUSH1 0x5 DUP2 SWAP1 SSTORE POP PUSH2 0x3B43 PUSH2 0x1A55 JUMP JUMPDEST PUSH1 0x4 DUP2 SWAP1 SSTORE POP PUSH1 0x0 PUSH20 0xFFFFFFFFFFFFFFFFFFFFFFFFFFFFFFFFFFFFFFFF AND DUP2 PUSH20 0xFFFFFFFFFFFFFFFFFFFFFFFFFFFFFFFFFFFFFFFF AND EQ PUSH2 0x3C10 JUMPI PUSH2 0x3B86 DUP2 PUSH2 0x89A JUMP JUMPDEST PUSH1 0x9 PUSH1 0x0 DUP4 PUSH20 0xFFFFFFFFFFFFFFFFFFFFFFFFFFFFFFFFFFFFFFFF AND PUSH20 0xFFFFFFFFFFFFFFFFFFFFFFFFFFFFFFFFFFFFFFFF AND DUP2 MSTORE PUSH1 0x20 ADD SWAP1 DUP2 MSTORE PUSH1 0x20 ADD PUSH1 0x0 KECCAK256 DUP2 SWAP1 SSTORE POP PUSH1 0x5 SLOAD PUSH1 0x8 PUSH1 0x0 DUP4 PUSH20 0xFFFFFFFFFFFFFFFFFFFFFFFFFFFFFFFFFFFFFFFF AND PUSH20 0xFFFFFFFFFFFFFFFFFFFFFFFFFFFFFFFFFFFFFFFF AND DUP2 MSTORE PUSH1 0x20 ADD SWAP1 DUP2 MSTORE PUSH1 0x20 ADD PUSH1 0x0 KECCAK256 DUP2 SWAP1 SSTORE POP JUMPDEST PUSH1 0x0 PUSH1 0xA SLOAD SWAP1 POP PUSH1 0x0 PUSH1 0x3 SLOAD SWAP1 POP PUSH1 0x0 DUP5 GT PUSH2 0x3C61 JUMPI PUSH1 0x40 MLOAD PUSH32 0x8C379A000000000000000000000000000000000000000000000000000000000 DUP2 MSTORE PUSH1 0x4 ADD PUSH2 0x3C58 SWAP1 PUSH2 0x5B59 JUMP JUMPDEST PUSH1 0x40 MLOAD DUP1 SWAP2 SUB SWAP1 REVERT JUMPDEST DUP4 PUSH1 0xA SLOAD PUSH2 0x3C6F SWAP2 SWAP1 PUSH2 0x526A JUMP JUMPDEST PUSH1 0xA DUP2 SWAP1 SSTORE POP DUP4 PUSH1 0xB PUSH1 0x0 CALLER PUSH20 0xFFFFFFFFFFFFFFFFFFFFFFFFFFFFFFFFFFFFFFFF AND PUSH20 0xFFFFFFFFFFFFFFFFFFFFFFFFFFFFFFFFFFFFFFFF AND DUP2 MSTORE PUSH1 0x20 ADD SWAP1 DUP2 MSTORE PUSH1 0x20 ADD PUSH1 0x0 KECCAK256 SLOAD PUSH2 0x3CC0 SWAP2 SWAP1 PUSH2 0x526A JUMP JUMPDEST PUSH1 0xB PUSH1 0x0 CALLER PUSH20 0xFFFFFFFFFFFFFFFFFFFFFFFFFFFFFFFFFFFFFFFF AND PUSH20 0xFFFFFFFFFFFFFFFFFFFFFFFFFFFFFFFFFFFFFFFF AND DUP2 MSTORE PUSH1 0x20 ADD SWAP1 DUP2 MSTORE PUSH1 0x20 ADD PUSH1 0x0 KECCAK256 DUP2 SWAP1 SSTORE POP CALLER PUSH20 0xFFFFFFFFFFFFFFFFFFFFFFFFFFFFFFFFFFFFFFFF AND PUSH32 0x9E71BC8EEA02A63969F509818F2DAFB9254532904319F9DBDA79B67BD34A5F3D DUP6 PUSH1 0x40 MLOAD PUSH2 0x3D49 SWAP2 SWAP1 PUSH2 0x4CDD JUMP JUMPDEST PUSH1 0x40 MLOAD DUP1 SWAP2 SUB SWAP1 LOG2 PUSH1 0x0 PUSH1 0x3 SLOAD SWAP1 POP PUSH1 0x0 PUSH1 0xA SLOAD SWAP1 POP DUP1 DUP5 EQ DUP1 ISZERO PUSH2 0x3D6D JUMPI POP DUP2 DUP4 EQ JUMPDEST ISZERO PUSH2 0x3D7B JUMPI POP POP POP POP PUSH2 0x3ED0 JUMP JUMPDEST PUSH1 0x0 PUSH1 0x2 SLOAD SUB PUSH2 0x3DED JUMPI TIMESTAMP DUP3 DUP3 PUSH32 0x0 PUSH3 0x278D00 PUSH1 0x7 SLOAD PUSH2 0x3DBA SWAP2 SWAP1 PUSH2 0x51C8 JUMP JUMPDEST PUSH2 0x3DC4 SWAP2 SWAP1 PUSH2 0x51C8 JUMP JUMPDEST PUSH2 0x3DCE SWAP2 SWAP1 PUSH2 0x5239 JUMP JUMPDEST PUSH2 0x3DD8 SWAP2 SWAP1 PUSH2 0x5239 JUMP JUMPDEST PUSH2 0x3DE2 SWAP2 SWAP1 PUSH2 0x526A JUMP JUMPDEST PUSH1 0x2 DUP2 SWAP1 SSTORE POP PUSH2 0x3ECB JUMP JUMPDEST TIMESTAMP PUSH1 0x2 SLOAD GT DUP1 ISZERO PUSH2 0x3DFE JUMPI POP PUSH1 0x0 DUP2 EQ JUMPDEST ISZERO PUSH2 0x3E73 JUMPI PUSH32 0x0 PUSH3 0x278D00 DUP6 DUP6 TIMESTAMP PUSH1 0x2 SLOAD PUSH2 0x3E38 SWAP2 SWAP1 PUSH2 0x5194 JUMP JUMPDEST PUSH2 0x3E42 SWAP2 SWAP1 PUSH2 0x51C8 JUMP JUMPDEST PUSH2 0x3E4C SWAP2 SWAP1 PUSH2 0x51C8 JUMP JUMPDEST PUSH2 0x3E56 SWAP2 SWAP1 PUSH2 0x5239 JUMP JUMPDEST PUSH2 0x3E60 SWAP2 SWAP1 PUSH2 0x5239 JUMP JUMPDEST PUSH1 0x7 DUP2 SWAP1 SSTORE POP PUSH1 0x0 PUSH1 0x2 DUP2 SWAP1 SSTORE POP PUSH2 0x3ECA JUMP JUMPDEST TIMESTAMP PUSH1 0x2 SLOAD GT ISZERO PUSH2 0x3EC9 JUMPI TIMESTAMP DUP2 DUP4 DUP7 DUP7 TIMESTAMP PUSH1 0x2 SLOAD PUSH2 0x3E90 SWAP2 SWAP1 PUSH2 0x5194 JUMP JUMPDEST PUSH2 0x3E9A SWAP2 SWAP1 PUSH2 0x51C8 JUMP JUMPDEST PUSH2 0x3EA4 SWAP2 SWAP1 PUSH2 0x51C8 JUMP JUMPDEST PUSH2 0x3EAE SWAP2 SWAP1 PUSH2 0x5239 JUMP JUMPDEST PUSH2 0x3EB8 SWAP2 SWAP1 PUSH2 0x5239 JUMP JUMPDEST PUSH2 0x3EC2 SWAP2 SWAP1 PUSH2 0x526A JUMP JUMPDEST PUSH1 0x2 DUP2 SWAP1 SSTORE POP JUMPDEST JUMPDEST JUMPDEST POP POP POP POP JUMPDEST POP PUSH2 0x3ED9 PUSH2 0x3042 JUMP JUMPDEST POP JUMP JUMPDEST PUSH1 0x0 DUP2 DUP5 PUSH1 0x2 ADD PUSH1 0x0 DUP6 DUP2 MSTORE PUSH1 0x20 ADD SWAP1 DUP2 MSTORE PUSH1 0x20 ADD PUSH1 0x0 KECCAK256 DUP2 SWAP1 SSTORE POP PUSH2 0x3F0E DUP4 DUP6 PUSH1 0x0 ADD PUSH2 0x21DC SWAP1 SWAP2 SWAP1 PUSH4 0xFFFFFFFF AND JUMP JUMPDEST SWAP1 POP SWAP4 SWAP3 POP POP POP JUMP JUMPDEST PUSH1 0x0 PUSH2 0x3F23 DUP4 DUP4 PUSH2 0x4262 JUMP JUMPDEST PUSH2 0x3F7C JUMPI DUP3 PUSH1 0x0 ADD DUP3 SWAP1 DUP1 PUSH1 0x1 DUP2 SLOAD ADD DUP1 DUP3 SSTORE DUP1 SWAP2 POP POP PUSH1 0x1 SWAP1 SUB SWAP1 PUSH1 0x0 MSTORE PUSH1 0x20 PUSH1 0x0 KECCAK256 ADD PUSH1 0x0 SWAP1 SWAP2 SWAP1 SWAP2 SWAP1 SWAP2 POP SSTORE DUP3 PUSH1 0x0 ADD DUP1 SLOAD SWAP1 POP DUP4 PUSH1 0x1 ADD PUSH1 0x0 DUP5 DUP2 MSTORE PUSH1 0x20 ADD SWAP1 DUP2 MSTORE PUSH1 0x20 ADD PUSH1 0x0 KECCAK256 DUP2 SWAP1 SSTORE POP PUSH1 0x1 SWAP1 POP PUSH2 0x3F81 JUMP JUMPDEST PUSH1 0x0 SWAP1 POP JUMPDEST SWAP3 SWAP2 POP POP JUMP JUMPDEST PUSH1 0x0 PUSH2 0x3F99 DUP4 PUSH1 0x0 ADD DUP4 PUSH1 0x0 SHL PUSH2 0x4285 JUMP JUMPDEST SWAP1 POP SWAP3 SWAP2 POP POP JUMP JUMPDEST PUSH1 0x0 DUP1 PUSH1 0x0 DUP1 PUSH1 0x13 PUSH1 0x0 DUP7 PUSH20 0xFFFFFFFFFFFFFFFFFFFFFFFFFFFFFFFFFFFFFFFF AND PUSH20 0xFFFFFFFFFFFFFFFFFFFFFFFFFFFFFFFFFFFFFFFF AND DUP2 MSTORE PUSH1 0x20 ADD SWAP1 DUP2 MSTORE PUSH1 0x20 ADD PUSH1 0x0 KECCAK256 PUSH1 0xA ADD DUP1 SLOAD DUP1 PUSH1 0x20 MUL PUSH1 0x20 ADD PUSH1 0x40 MLOAD SWAP1 DUP2 ADD PUSH1 0x40 MSTORE DUP1 SWAP3 SWAP2 SWAP1 DUP2 DUP2 MSTORE PUSH1 0x20 ADD DUP3 DUP1 SLOAD DUP1 ISZERO PUSH2 0x4069 JUMPI PUSH1 0x20 MUL DUP3 ADD SWAP2 SWAP1 PUSH1 0x0 MSTORE PUSH1 0x20 PUSH1 0x0 KECCAK256 SWAP1 JUMPDEST DUP2 PUSH1 0x0 SWAP1 SLOAD SWAP1 PUSH2 0x100 EXP SWAP1 DIV PUSH20 0xFFFFFFFFFFFFFFFFFFFFFFFFFFFFFFFFFFFFFFFF AND PUSH20 0xFFFFFFFFFFFFFFFFFFFFFFFFFFFFFFFFFFFFFFFF AND DUP2 MSTORE PUSH1 0x20 ADD SWAP1 PUSH1 0x1 ADD SWAP1 DUP1 DUP4 GT PUSH2 0x401F JUMPI JUMPDEST POP POP POP POP POP SWAP1 POP PUSH1 0x0 JUMPDEST DUP2 MLOAD DUP2 LT ISZERO PUSH2 0x4108 JUMPI PUSH1 0x13 PUSH1 0x0 DUP4 DUP4 DUP2 MLOAD DUP2 LT PUSH2 0x4093 JUMPI PUSH2 0x4092 PUSH2 0x52CD JUMP JUMPDEST JUMPDEST PUSH1 0x20 MUL PUSH1 0x20 ADD ADD MLOAD PUSH20 0xFFFFFFFFFFFFFFFFFFFFFFFFFFFFFFFFFFFFFFFF AND PUSH20 0xFFFFFFFFFFFFFFFFFFFFFFFFFFFFFFFFFFFFFFFF AND DUP2 MSTORE PUSH1 0x20 ADD SWAP1 DUP2 MSTORE PUSH1 0x20 ADD PUSH1 0x0 KECCAK256 PUSH1 0x1 ADD SLOAD SWAP3 POP DUP4 DUP4 GT ISZERO PUSH2 0x40E7 JUMPI DUP3 SWAP4 POP JUMPDEST DUP3 DUP6 PUSH2 0x40F3 SWAP2 SWAP1 PUSH2 0x526A JUMP JUMPDEST SWAP5 POP DUP1 DUP1 PUSH2 0x4100 SWAP1 PUSH2 0x52FC JUMP JUMPDEST SWAP2 POP POP PUSH2 0x4073 JUMP JUMPDEST POP DUP3 DUP5 PUSH2 0x4115 SWAP2 SWAP1 PUSH2 0x5194 JUMP JUMPDEST SWAP4 POP PUSH1 0x0 DUP5 SUB PUSH2 0x4128 JUMPI POP POP POP POP PUSH2 0x417C JUMP JUMPDEST PUSH2 0x4131 DUP5 PUSH2 0x42BE JUMP JUMPDEST PUSH1 0x13 PUSH1 0x0 DUP8 PUSH20 0xFFFFFFFFFFFFFFFFFFFFFFFFFFFFFFFFFFFFFFFF AND PUSH20 0xFFFFFFFFFFFFFFFFFFFFFFFFFFFFFFFFFFFFFFFF AND DUP2 MSTORE PUSH1 0x20 ADD SWAP1 DUP2 MSTORE PUSH1 0x20 ADD PUSH1 0x0 KECCAK256 PUSH1 0x0 ADD DUP2 SWAP1 SSTORE POP POP POP POP POP JUMPDEST POP JUMP JUMPDEST PUSH2 0x4188 DUP2 PUSH2 0x437F JUMP JUMPDEST PUSH2 0x4191 DUP2 PUSH2 0x4547 JUMP JUMPDEST POP JUMP JUMPDEST PUSH1 0x60 PUSH2 0x41A2 DUP3 PUSH1 0x0 ADD PUSH2 0x492C JUMP JUMPDEST SWAP1 POP SWAP2 SWAP1 POP JUMP JUMPDEST PUSH1 0x0 PUSH2 0x41B7 DUP3 PUSH1 0x0 ADD PUSH2 0x494D JUMP JUMPDEST SWAP1 POP SWAP2 SWAP1 POP JUMP JUMPDEST PUSH1 0x0 DUP1 DUP4 PUSH1 0x2 ADD PUSH1 0x0 DUP5 DUP2 MSTORE PUSH1 0x20 ADD SWAP1 DUP2 MSTORE PUSH1 0x20 ADD PUSH1 0x0 KECCAK256 SLOAD SWAP1 POP PUSH1 0x0 DUP1 SHL DUP2 EQ ISZERO DUP1 PUSH2 0x41F1 JUMPI POP PUSH2 0x41F0 DUP5 DUP5 PUSH2 0x4242 JUMP JUMPDEST JUMPDEST PUSH2 0x4230 JUMPI PUSH1 0x40 MLOAD PUSH32 0x8C379A000000000000000000000000000000000000000000000000000000000 DUP2 MSTORE PUSH1 0x4 ADD PUSH2 0x4227 SWAP1 PUSH2 0x5BC5 JUMP JUMPDEST PUSH1 0x40 MLOAD DUP1 SWAP2 SUB SWAP1 REVERT JUMPDEST DUP1 SWAP2 POP POP SWAP3 SWAP2 POP POP JUMP JUMPDEST PUSH1 0x0 CALLER SWAP1 POP SWAP1 JUMP JUMPDEST PUSH1 0x0 PUSH2 0x425A DUP3 DUP5 PUSH1 0x0 ADD PUSH2 0x4962 SWAP1 SWAP2 SWAP1 PUSH4 0xFFFFFFFF AND JUMP JUMPDEST SWAP1 POP SWAP3 SWAP2 POP POP JUMP JUMPDEST PUSH1 0x0 DUP1 DUP4 PUSH1 0x1 ADD PUSH1 0x0 DUP5 DUP2 MSTORE PUSH1 0x20 ADD SWAP1 DUP2 MSTORE PUSH1 0x20 ADD PUSH1 0x0 KECCAK256 SLOAD EQ ISZERO SWAP1 POP SWAP3 SWAP2 POP POP JUMP JUMPDEST PUSH1 0x0 DUP3 PUSH1 0x2 ADD PUSH1 0x0 DUP4 DUP2 MSTORE PUSH1 0x20 ADD SWAP1 DUP2 MSTORE PUSH1 0x20 ADD PUSH1 0x0 KECCAK256 PUSH1 0x0 SWAP1 SSTORE PUSH2 0x42B6 DUP3 DUP5 PUSH1 0x0 ADD PUSH2 0x4979 SWAP1 SWAP2 SWAP1 PUSH4 0xFFFFFFFF AND JUMP JUMPDEST SWAP1 POP SWAP3 SWAP2 POP POP JUMP JUMPDEST PUSH1 0x0 DUP1 PUSH2 0x42CB PUSH1 0xC PUSH2 0x304C JUMP JUMPDEST SWAP1 POP PUSH1 0x0 JUMPDEST DUP2 MLOAD DUP2 LT ISZERO PUSH2 0x4378 JUMPI DUP2 DUP2 DUP2 MLOAD DUP2 LT PUSH2 0x42EC JUMPI PUSH2 0x42EB PUSH2 0x52CD JUMP JUMPDEST JUMPDEST PUSH1 0x20 MUL PUSH1 0x20 ADD ADD MLOAD DUP5 LT ISZERO DUP1 ISZERO PUSH2 0x432F JUMPI POP PUSH2 0x432C DUP3 DUP3 DUP2 MLOAD DUP2 LT PUSH2 0x4314 JUMPI PUSH2 0x4313 PUSH2 0x52CD JUMP JUMPDEST JUMPDEST PUSH1 0x20 MUL PUSH1 0x20 ADD ADD MLOAD PUSH1 0xC PUSH2 0x3082 SWAP1 SWAP2 SWAP1 PUSH4 0xFFFFFFFF AND JUMP JUMPDEST DUP4 LT JUMPDEST ISZERO PUSH2 0x4365 JUMPI PUSH2 0x4362 DUP3 DUP3 DUP2 MLOAD DUP2 LT PUSH2 0x434A JUMPI PUSH2 0x4349 PUSH2 0x52CD JUMP JUMPDEST JUMPDEST PUSH1 0x20 MUL PUSH1 0x20 ADD ADD MLOAD PUSH1 0xC PUSH2 0x3082 SWAP1 SWAP2 SWAP1 PUSH4 0xFFFFFFFF AND JUMP JUMPDEST SWAP3 POP JUMPDEST DUP1 DUP1 PUSH2 0x4370 SWAP1 PUSH2 0x52FC JUMP JUMPDEST SWAP2 POP POP PUSH2 0x42D0 JUMP JUMPDEST POP POP SWAP2 SWAP1 POP JUMP JUMPDEST PUSH1 0x0 CALLER SWAP1 POP PUSH1 0x0 DUP1 JUMPDEST PUSH1 0xF PUSH1 0x1 ADD DUP1 SLOAD SWAP1 POP DUP2 LT ISZERO PUSH2 0x4540 JUMPI PUSH1 0x13 PUSH1 0x0 DUP5 PUSH20 0xFFFFFFFFFFFFFFFFFFFFFFFFFFFFFFFFFFFFFFFF AND PUSH20 0xFFFFFFFFFFFFFFFFFFFFFFFFFFFFFFFFFFFFFFFF AND DUP2 MSTORE PUSH1 0x20 ADD SWAP1 DUP2 MSTORE PUSH1 0x20 ADD PUSH1 0x0 KECCAK256 PUSH1 0x9 ADD PUSH1 0x0 SWAP1 SLOAD SWAP1 PUSH2 0x100 EXP SWAP1 DIV PUSH20 0xFFFFFFFFFFFFFFFFFFFFFFFFFFFFFFFFFFFFFFFF AND SWAP3 POP PUSH1 0x0 PUSH20 0xFFFFFFFFFFFFFFFFFFFFFFFFFFFFFFFFFFFFFFFF AND DUP4 PUSH20 0xFFFFFFFFFFFFFFFFFFFFFFFFFFFFFFFFFFFFFFFF AND SUB PUSH2 0x4439 JUMPI POP POP POP PUSH2 0x4544 JUMP JUMPDEST PUSH32 0x0 PUSH1 0xF PUSH1 0x1 ADD DUP3 DUP2 SLOAD DUP2 LT PUSH2 0x4471 JUMPI PUSH2 0x4470 PUSH2 0x52CD JUMP JUMPDEST JUMPDEST SWAP1 PUSH1 0x0 MSTORE PUSH1 0x20 PUSH1 0x0 KECCAK256 ADD SLOAD DUP6 PUSH2 0x4487 SWAP2 SWAP1 PUSH2 0x51C8 JUMP JUMPDEST PUSH2 0x4491 SWAP2 SWAP1 PUSH2 0x5239 JUMP JUMPDEST SWAP2 POP PUSH2 0x449C DUP4 PUSH2 0x21F3 JUMP JUMPDEST PUSH2 0x44A5 CALLER PUSH2 0x21F3 JUMP JUMPDEST LT PUSH2 0x44D4 JUMPI PUSH2 0x44B3 CALLER PUSH2 0x21F3 JUMP JUMPDEST PUSH2 0x44BC DUP5 PUSH2 0x21F3 JUMP JUMPDEST DUP4 PUSH2 0x44C7 SWAP2 SWAP1 PUSH2 0x51C8 JUMP JUMPDEST PUSH2 0x44D1 SWAP2 SWAP1 PUSH2 0x5239 JUMP JUMPDEST SWAP2 POP JUMPDEST DUP2 PUSH1 0x13 PUSH1 0x0 DUP6 PUSH20 0xFFFFFFFFFFFFFFFFFFFFFFFFFFFFFFFFFFFFFFFF AND PUSH20 0xFFFFFFFFFFFFFFFFFFFFFFFFFFFFFFFFFFFFFFFF AND DUP2 MSTORE PUSH1 0x20 ADD SWAP1 DUP2 MSTORE PUSH1 0x20 ADD PUSH1 0x0 KECCAK256 PUSH1 0x7 ADD PUSH1 0x0 DUP3 DUP3 SLOAD PUSH2 0x4526 SWAP2 SWAP1 PUSH2 0x526A JUMP JUMPDEST SWAP3 POP POP DUP2 SWAP1 SSTORE POP DUP1 DUP1 PUSH2 0x4538 SWAP1 PUSH2 0x52FC JUMP JUMPDEST SWAP2 POP POP PUSH2 0x4388 JUMP JUMPDEST POP POP POP JUMPDEST POP JUMP JUMPDEST PUSH1 0x0 CALLER SWAP1 POP PUSH1 0x0 PUSH1 0x13 PUSH1 0x0 DUP4 PUSH20 0xFFFFFFFFFFFFFFFFFFFFFFFFFFFFFFFFFFFFFFFF AND PUSH20 0xFFFFFFFFFFFFFFFFFFFFFFFFFFFFFFFFFFFFFFFF AND DUP2 MSTORE PUSH1 0x20 ADD SWAP1 DUP2 MSTORE PUSH1 0x20 ADD PUSH1 0x0 KECCAK256 PUSH1 0x0 ADD SLOAD SWAP1 POP PUSH1 0x0 DUP1 PUSH1 0x5 SWAP1 POP PUSH1 0x0 JUMPDEST PUSH1 0xF PUSH1 0x0 ADD SLOAD DUP2 LT ISZERO PUSH2 0x4923 JUMPI PUSH1 0x13 PUSH1 0x0 DUP7 PUSH20 0xFFFFFFFFFFFFFFFFFFFFFFFFFFFFFFFFFFFFFFFF AND PUSH20 0xFFFFFFFFFFFFFFFFFFFFFFFFFFFFFFFFFFFFFFFF AND DUP2 MSTORE PUSH1 0x20 ADD SWAP1 DUP2 MSTORE PUSH1 0x20 ADD PUSH1 0x0 KECCAK256 PUSH1 0x1 ADD SLOAD SWAP3 POP PUSH1 0x13 PUSH1 0x0 DUP7 PUSH20 0xFFFFFFFFFFFFFFFFFFFFFFFFFFFFFFFFFFFFFFFF AND PUSH20 0xFFFFFFFFFFFFFFFFFFFFFFFFFFFFFFFFFFFFFFFF AND DUP2 MSTORE PUSH1 0x20 ADD SWAP1 DUP2 MSTORE PUSH1 0x20 ADD PUSH1 0x0 KECCAK256 PUSH1 0x9 ADD PUSH1 0x0 SWAP1 SLOAD SWAP1 PUSH2 0x100 EXP SWAP1 DIV PUSH20 0xFFFFFFFFFFFFFFFFFFFFFFFFFFFFFFFFFFFFFFFF AND SWAP5 POP PUSH1 0x0 PUSH20 0xFFFFFFFFFFFFFFFFFFFFFFFFFFFFFFFFFFFFFFFF AND DUP6 PUSH20 0xFFFFFFFFFFFFFFFFFFFFFFFFFFFFFFFFFFFFFFFF AND SUB PUSH2 0x4692 JUMPI POP POP POP POP POP PUSH2 0x4929 JUMP JUMPDEST PUSH2 0x46DD PUSH1 0x13 PUSH1 0x0 DUP8 PUSH20 0xFFFFFFFFFFFFFFFFFFFFFFFFFFFFFFFFFFFFFFFF AND PUSH20 0xFFFFFFFFFFFFFFFFFFFFFFFFFFFFFFFFFFFFFFFF AND DUP2 MSTORE PUSH1 0x20 ADD SWAP1 DUP2 MSTORE PUSH1 0x20 ADD PUSH1 0x0 KECCAK256 PUSH1 0xA ADD DUP5 PUSH2 0x4990 JUMP JUMPDEST PUSH2 0x4910 JUMPI DUP4 PUSH1 0x13 PUSH1 0x0 DUP8 PUSH20 0xFFFFFFFFFFFFFFFFFFFFFFFFFFFFFFFFFFFFFFFF AND PUSH20 0xFFFFFFFFFFFFFFFFFFFFFFFFFFFFFFFFFFFFFFFF AND DUP2 MSTORE PUSH1 0x20 ADD SWAP1 DUP2 MSTORE PUSH1 0x20 ADD PUSH1 0x0 KECCAK256 PUSH1 0x0 ADD SLOAD EQ DUP1 ISZERO PUSH2 0x4732 JUMPI POP PUSH1 0x0 DUP3 GT JUMPDEST ISZERO PUSH2 0x47DA JUMPI PUSH32 0x0 PUSH1 0xF PUSH1 0x2 ADD SLOAD DUP8 PUSH2 0x4769 SWAP2 SWAP1 PUSH2 0x51C8 JUMP JUMPDEST PUSH2 0x4773 SWAP2 SWAP1 PUSH2 0x5239 JUMP JUMPDEST PUSH1 0x13 PUSH1 0x0 DUP8 PUSH20 0xFFFFFFFFFFFFFFFFFFFFFFFFFFFFFFFFFFFFFFFF AND PUSH20 0xFFFFFFFFFFFFFFFFFFFFFFFFFFFFFFFFFFFFFFFF AND DUP2 MSTORE PUSH1 0x20 ADD SWAP1 DUP2 MSTORE PUSH1 0x20 ADD PUSH1 0x0 KECCAK256 PUSH1 0x3 ADD PUSH1 0x0 DUP3 DUP3 SLOAD PUSH2 0x47C4 SWAP2 SWAP1 PUSH2 0x526A JUMP JUMPDEST SWAP3 POP POP DUP2 SWAP1 SSTORE POP DUP2 DUP1 PUSH2 0x47D6 SWAP1 PUSH2 0x5BE5 JUMP JUMPDEST SWAP3 POP POP JUMPDEST DUP4 PUSH1 0x13 PUSH1 0x0 DUP8 PUSH20 0xFFFFFFFFFFFFFFFFFFFFFFFFFFFFFFFFFFFFFFFF AND PUSH20 0xFFFFFFFFFFFFFFFFFFFFFFFFFFFFFFFFFFFFFFFF AND DUP2 MSTORE PUSH1 0x20 ADD SWAP1 DUP2 MSTORE PUSH1 0x20 ADD PUSH1 0x0 KECCAK256 PUSH1 0x0 ADD SLOAD GT ISZERO PUSH2 0x490F JUMPI PUSH1 0x13 PUSH1 0x0 DUP7 PUSH20 0xFFFFFFFFFFFFFFFFFFFFFFFFFFFFFFFFFFFFFFFF AND PUSH20 0xFFFFFFFFFFFFFFFFFFFFFFFFFFFFFFFFFFFFFFFF AND DUP2 MSTORE PUSH1 0x20 ADD SWAP1 DUP2 MSTORE PUSH1 0x20 ADD PUSH1 0x0 KECCAK256 PUSH1 0x0 ADD SLOAD SWAP4 POP PUSH32 0x0 PUSH1 0xF PUSH1 0x3 ADD PUSH1 0x0 DUP7 DUP2 MSTORE PUSH1 0x20 ADD SWAP1 DUP2 MSTORE PUSH1 0x20 ADD PUSH1 0x0 KECCAK256 SLOAD DUP8 PUSH2 0x48AC SWAP2 SWAP1 PUSH2 0x51C8 JUMP JUMPDEST PUSH2 0x48B6 SWAP2 SWAP1 PUSH2 0x5239 JUMP JUMPDEST PUSH1 0x13 PUSH1 0x0 DUP8 PUSH20 0xFFFFFFFFFFFFFFFFFFFFFFFFFFFFFFFFFFFFFFFF AND PUSH20 0xFFFFFFFFFFFFFFFFFFFFFFFFFFFFFFFFFFFFFFFF AND DUP2 MSTORE PUSH1 0x20 ADD SWAP1 DUP2 MSTORE PUSH1 0x20 ADD PUSH1 0x0 KECCAK256 PUSH1 0x5 ADD PUSH1 0x0 DUP3 DUP3 SLOAD PUSH2 0x4907 SWAP2 SWAP1 PUSH2 0x526A JUMP JUMPDEST SWAP3 POP POP DUP2 SWAP1 SSTORE POP JUMPDEST JUMPDEST DUP1 DUP1 PUSH2 0x491B SWAP1 PUSH2 0x52FC JUMP JUMPDEST SWAP2 POP POP PUSH2 0x459D JUMP JUMPDEST POP POP POP POP POP JUMPDEST POP JUMP JUMPDEST PUSH1 0x60 PUSH1 0x0 PUSH2 0x493C DUP4 PUSH1 0x0 ADD PUSH2 0x4A50 JUMP JUMPDEST SWAP1 POP PUSH1 0x60 DUP2 SWAP1 POP DUP1 SWAP3 POP POP POP SWAP2 SWAP1 POP JUMP JUMPDEST PUSH1 0x0 PUSH2 0x495B DUP3 PUSH1 0x0 ADD PUSH2 0x4AAC JUMP JUMPDEST SWAP1 POP SWAP2 SWAP1 POP JUMP JUMPDEST PUSH1 0x0 PUSH2 0x4971 DUP4 PUSH1 0x0 ADD DUP4 PUSH2 0x4262 JUMP JUMPDEST SWAP1 POP SWAP3 SWAP2 POP POP JUMP JUMPDEST PUSH1 0x0 PUSH2 0x4988 DUP4 PUSH1 0x0 ADD DUP4 PUSH2 0x4ABD JUMP JUMPDEST SWAP1 POP SWAP3 SWAP2 POP POP JUMP JUMPDEST PUSH1 0x0 DUP1 JUMPDEST DUP4 DUP1 SLOAD SWAP1 POP DUP2 LT ISZERO PUSH2 0x4A44 JUMPI DUP3 PUSH1 0x13 PUSH1 0x0 DUP7 DUP5 DUP2 SLOAD DUP2 LT PUSH2 0x49B8 JUMPI PUSH2 0x49B7 PUSH2 0x52CD JUMP JUMPDEST JUMPDEST SWAP1 PUSH1 0x0 MSTORE PUSH1 0x20 PUSH1 0x0 KECCAK256 ADD PUSH1 0x0 SWAP1 SLOAD SWAP1 PUSH2 0x100 EXP SWAP1 DIV PUSH20 0xFFFFFFFFFFFFFFFFFFFFFFFFFFFFFFFFFFFFFFFF AND PUSH20 0xFFFFFFFFFFFFFFFFFFFFFFFFFFFFFFFFFFFFFFFF AND PUSH20 0xFFFFFFFFFFFFFFFFFFFFFFFFFFFFFFFFFFFFFFFF AND DUP2 MSTORE PUSH1 0x20 ADD SWAP1 DUP2 MSTORE PUSH1 0x20 ADD PUSH1 0x0 KECCAK256 PUSH1 0x1 ADD SLOAD GT ISZERO PUSH2 0x4A31 JUMPI PUSH1 0x0 SWAP2 POP POP PUSH2 0x4A4A JUMP JUMPDEST DUP1 DUP1 PUSH2 0x4A3C SWAP1 PUSH2 0x52FC JUMP JUMPDEST SWAP2 POP POP PUSH2 0x4994 JUMP JUMPDEST POP PUSH1 0x1 SWAP1 POP JUMPDEST SWAP3 SWAP2 POP POP JUMP JUMPDEST PUSH1 0x60 DUP2 PUSH1 0x0 ADD DUP1 SLOAD DUP1 PUSH1 0x20 MUL PUSH1 0x20 ADD PUSH1 0x40 MLOAD SWAP1 DUP2 ADD PUSH1 0x40 MSTORE DUP1 SWAP3 SWAP2 SWAP1 DUP2 DUP2 MSTORE PUSH1 0x20 ADD DUP3 DUP1 SLOAD DUP1 ISZERO PUSH2 0x4AA0 JUMPI PUSH1 0x20 MUL DUP3 ADD SWAP2 SWAP1 PUSH1 0x0 MSTORE PUSH1 0x20 PUSH1 0x0 KECCAK256 SWAP1 JUMPDEST DUP2 SLOAD DUP2 MSTORE PUSH1 0x20 ADD SWAP1 PUSH1 0x1 ADD SWAP1 DUP1 DUP4 GT PUSH2 0x4A8C JUMPI JUMPDEST POP POP POP POP POP SWAP1 POP SWAP2 SWAP1 POP JUMP JUMPDEST PUSH1 0x0 DUP2 PUSH1 0x0 ADD DUP1 SLOAD SWAP1 POP SWAP1 POP SWAP2 SWAP1 POP JUMP JUMPDEST PUSH1 0x0 DUP1 DUP4 PUSH1 0x1 ADD PUSH1 0x0 DUP5 DUP2 MSTORE PUSH1 0x20 ADD SWAP1 DUP2 MSTORE PUSH1 0x20 ADD PUSH1 0x0 KECCAK256 SLOAD SWAP1 POP PUSH1 0x0 DUP2 EQ PUSH2 0x4BC5 JUMPI PUSH1 0x0 PUSH1 0x1 DUP3 PUSH2 0x4AEF SWAP2 SWAP1 PUSH2 0x5194 JUMP JUMPDEST SWAP1 POP PUSH1 0x0 PUSH1 0x1 DUP7 PUSH1 0x0 ADD DUP1 SLOAD SWAP1 POP PUSH2 0x4B07 SWAP2 SWAP1 PUSH2 0x5194 JUMP JUMPDEST SWAP1 POP DUP2 DUP2 EQ PUSH2 0x4B76 JUMPI PUSH1 0x0 DUP7 PUSH1 0x0 ADD DUP3 DUP2 SLOAD DUP2 LT PUSH2 0x4B28 JUMPI PUSH2 0x4B27 PUSH2 0x52CD JUMP JUMPDEST JUMPDEST SWAP1 PUSH1 0x0 MSTORE PUSH1 0x20 PUSH1 0x0 KECCAK256 ADD SLOAD SWAP1 POP DUP1 DUP8 PUSH1 0x0 ADD DUP5 DUP2 SLOAD DUP2 LT PUSH2 0x4B4C JUMPI PUSH2 0x4B4B PUSH2 0x52CD JUMP JUMPDEST JUMPDEST SWAP1 PUSH1 0x0 MSTORE PUSH1 0x20 PUSH1 0x0 KECCAK256 ADD DUP2 SWAP1 SSTORE POP DUP4 DUP8 PUSH1 0x1 ADD PUSH1 0x0 DUP4 DUP2 MSTORE PUSH1 0x20 ADD SWAP1 DUP2 MSTORE PUSH1 0x20 ADD PUSH1 0x0 KECCAK256 DUP2 SWAP1 SSTORE POP POP JUMPDEST DUP6 PUSH1 0x0 ADD DUP1 SLOAD DUP1 PUSH2 0x4B8A JUMPI PUSH2 0x4B89 PUSH2 0x5C0E JUMP JUMPDEST JUMPDEST PUSH1 0x1 SWAP1 SUB DUP2 DUP2 SWAP1 PUSH1 0x0 MSTORE PUSH1 0x20 PUSH1 0x0 KECCAK256 ADD PUSH1 0x0 SWAP1 SSTORE SWAP1 SSTORE DUP6 PUSH1 0x1 ADD PUSH1 0x0 DUP7 DUP2 MSTORE PUSH1 0x20 ADD SWAP1 DUP2 MSTORE PUSH1 0x20 ADD PUSH1 0x0 KECCAK256 PUSH1 0x0 SWAP1 SSTORE PUSH1 0x1 SWAP4 POP POP POP POP PUSH2 0x4BCB JUMP JUMPDEST PUSH1 0x0 SWAP2 POP POP JUMPDEST SWAP3 SWAP2 POP POP JUMP JUMPDEST PUSH1 0x40 MLOAD DUP1 PUSH1 0x60 ADD PUSH1 0x40 MSTORE DUP1 PUSH1 0x0 DUP2 MSTORE PUSH1 0x20 ADD PUSH1 0x0 DUP2 MSTORE PUSH1 0x20 ADD PUSH1 0x0 DUP2 MSTORE POP SWAP1 JUMP JUMPDEST PUSH1 0x40 MLOAD DUP1 PUSH1 0x40 ADD PUSH1 0x40 MSTORE DUP1 PUSH1 0x0 DUP2 MSTORE PUSH1 0x20 ADD PUSH1 0x0 DUP2 MSTORE POP SWAP1 JUMP JUMPDEST PUSH1 0x40 MLOAD DUP1 PUSH1 0x80 ADD PUSH1 0x40 MSTORE DUP1 PUSH1 0x0 DUP2 MSTORE PUSH1 0x20 ADD PUSH1 0x0 DUP2 MSTORE PUSH1 0x20 ADD PUSH1 0x0 DUP2 MSTORE PUSH1 0x20 ADD PUSH1 0x0 DUP2 MSTORE POP SWAP1 JUMP JUMPDEST PUSH1 0x0 DUP1 REVERT JUMPDEST PUSH1 0x0 PUSH20 0xFFFFFFFFFFFFFFFFFFFFFFFFFFFFFFFFFFFFFFFF DUP3 AND SWAP1 POP SWAP2 SWAP1 POP JUMP JUMPDEST PUSH1 0x0 PUSH2 0x4C64 DUP3 PUSH2 0x4C39 JUMP JUMPDEST SWAP1 POP SWAP2 SWAP1 POP JUMP JUMPDEST PUSH2 0x4C74 DUP2 PUSH2 0x4C59 JUMP JUMPDEST DUP2 EQ PUSH2 0x4C7F JUMPI PUSH1 0x0 DUP1 REVERT JUMPDEST POP JUMP JUMPDEST PUSH1 0x0 DUP2 CALLDATALOAD SWAP1 POP PUSH2 0x4C91 DUP2 PUSH2 0x4C6B JUMP JUMPDEST SWAP3 SWAP2 POP POP JUMP JUMPDEST PUSH1 0x0 PUSH1 0x20 DUP3 DUP5 SUB SLT ISZERO PUSH2 0x4CAD JUMPI PUSH2 0x4CAC PUSH2 0x4C34 JUMP JUMPDEST JUMPDEST PUSH1 0x0 PUSH2 0x4CBB DUP5 DUP3 DUP6 ADD PUSH2 0x4C82 JUMP JUMPDEST SWAP2 POP POP SWAP3 SWAP2 POP POP JUMP JUMPDEST PUSH1 0x0 DUP2 SWAP1 POP SWAP2 SWAP1 POP JUMP JUMPDEST PUSH2 0x4CD7 DUP2 PUSH2 0x4CC4 JUMP JUMPDEST DUP3 MSTORE POP POP JUMP JUMPDEST PUSH1 0x0 PUSH1 0x20 DUP3 ADD SWAP1 POP PUSH2 0x4CF2 PUSH1 0x0 DUP4 ADD DUP5 PUSH2 0x4CCE JUMP JUMPDEST SWAP3 SWAP2 POP POP JUMP JUMPDEST PUSH1 0x0 DUP2 SWAP1 POP SWAP2 SWAP1 POP JUMP JUMPDEST PUSH1 0x0 PUSH2 0x4D1D PUSH2 0x4D18 PUSH2 0x4D13 DUP5 PUSH2 0x4C39 JUMP JUMPDEST PUSH2 0x4CF8 JUMP JUMPDEST PUSH2 0x4C39 JUMP JUMPDEST SWAP1 POP SWAP2 SWAP1 POP JUMP JUMPDEST PUSH1 0x0 PUSH2 0x4D2F DUP3 PUSH2 0x4D02 JUMP JUMPDEST SWAP1 POP SWAP2 SWAP1 POP JUMP JUMPDEST PUSH1 0x0 PUSH2 0x4D41 DUP3 PUSH2 0x4D24 JUMP JUMPDEST SWAP1 POP SWAP2 SWAP1 POP JUMP JUMPDEST PUSH2 0x4D51 DUP2 PUSH2 0x4D36 JUMP JUMPDEST DUP3 MSTORE POP POP JUMP JUMPDEST PUSH1 0x0 PUSH1 0x20 DUP3 ADD SWAP1 POP PUSH2 0x4D6C PUSH1 0x0 DUP4 ADD DUP5 PUSH2 0x4D48 JUMP JUMPDEST SWAP3 SWAP2 POP POP JUMP JUMPDEST PUSH1 0x0 PUSH2 0x4D7D DUP3 PUSH2 0x4D24 JUMP JUMPDEST SWAP1 POP SWAP2 SWAP1 POP JUMP JUMPDEST PUSH2 0x4D8D DUP2 PUSH2 0x4D72 JUMP JUMPDEST DUP3 MSTORE POP POP JUMP JUMPDEST PUSH1 0x0 PUSH1 0xA0 DUP3 ADD SWAP1 POP PUSH2 0x4DA8 PUSH1 0x0 DUP4 ADD DUP9 PUSH2 0x4CCE JUMP JUMPDEST PUSH2 0x4DB5 PUSH1 0x20 DUP4 ADD DUP8 PUSH2 0x4D48 JUMP JUMPDEST PUSH2 0x4DC2 PUSH1 0x40 DUP4 ADD DUP7 PUSH2 0x4D84 JUMP JUMPDEST PUSH2 0x4DCF PUSH1 0x60 DUP4 ADD DUP6 PUSH2 0x4CCE JUMP JUMPDEST PUSH2 0x4DDC PUSH1 0x80 DUP4 ADD DUP5 PUSH2 0x4CCE JUMP JUMPDEST SWAP7 SWAP6 POP POP POP POP POP POP JUMP JUMPDEST PUSH1 0x0 PUSH1 0x20 DUP3 ADD SWAP1 POP PUSH2 0x4DFB PUSH1 0x0 DUP4 ADD DUP5 PUSH2 0x4D84 JUMP JUMPDEST SWAP3 SWAP2 POP POP JUMP JUMPDEST PUSH1 0x0 DUP2 MLOAD SWAP1 POP SWAP2 SWAP1 POP JUMP JUMPDEST PUSH1 0x0 DUP3 DUP3 MSTORE PUSH1 0x20 DUP3 ADD SWAP1 POP SWAP3 SWAP2 POP POP JUMP JUMPDEST PUSH1 0x0 DUP2 SWAP1 POP PUSH1 0x20 DUP3 ADD SWAP1 POP SWAP2 SWAP1 POP JUMP JUMPDEST PUSH2 0x4E36 DUP2 PUSH2 0x4CC4 JUMP JUMPDEST DUP3 MSTORE POP POP JUMP JUMPDEST PUSH1 0x60 DUP3 ADD PUSH1 0x0 DUP3 ADD MLOAD PUSH2 0x4E52 PUSH1 0x0 DUP6 ADD DUP3 PUSH2 0x4E2D JUMP JUMPDEST POP PUSH1 0x20 DUP3 ADD MLOAD PUSH2 0x4E65 PUSH1 0x20 DUP6 ADD DUP3 PUSH2 0x4E2D JUMP JUMPDEST POP PUSH1 0x40 DUP3 ADD MLOAD PUSH2 0x4E78 PUSH1 0x40 DUP6 ADD DUP3 PUSH2 0x4E2D JUMP JUMPDEST POP POP POP POP JUMP JUMPDEST PUSH1 0x0 PUSH2 0x4E8A DUP4 DUP4 PUSH2 0x4E3C JUMP JUMPDEST PUSH1 0x60 DUP4 ADD SWAP1 POP SWAP3 SWAP2 POP POP JUMP JUMPDEST PUSH1 0x0 PUSH1 0x20 DUP3 ADD SWAP1 POP SWAP2 SWAP1 POP JUMP JUMPDEST PUSH1 0x0 PUSH2 0x4EAE DUP3 PUSH2 0x4E01 JUMP JUMPDEST PUSH2 0x4EB8 DUP2 DUP6 PUSH2 0x4E0C JUMP JUMPDEST SWAP4 POP PUSH2 0x4EC3 DUP4 PUSH2 0x4E1D JUMP JUMPDEST DUP1 PUSH1 0x0 JUMPDEST DUP4 DUP2 LT ISZERO PUSH2 0x4EF4 JUMPI DUP2 MLOAD PUSH2 0x4EDB DUP9 DUP3 PUSH2 0x4E7E JUMP JUMPDEST SWAP8 POP PUSH2 0x4EE6 DUP4 PUSH2 0x4E96 JUMP JUMPDEST SWAP3 POP POP PUSH1 0x1 DUP2 ADD SWAP1 POP PUSH2 0x4EC7 JUMP JUMPDEST POP DUP6 SWAP4 POP POP POP POP SWAP3 SWAP2 POP POP JUMP JUMPDEST PUSH1 0x0 PUSH1 0x20 DUP3 ADD SWAP1 POP DUP2 DUP2 SUB PUSH1 0x0 DUP4 ADD MSTORE PUSH2 0x4F1B DUP2 DUP5 PUSH2 0x4EA3 JUMP JUMPDEST SWAP1 POP SWAP3 SWAP2 POP POP JUMP JUMPDEST PUSH2 0x4F2C DUP2 PUSH2 0x4CC4 JUMP JUMPDEST DUP2 EQ PUSH2 0x4F37 JUMPI PUSH1 0x0 DUP1 REVERT JUMPDEST POP JUMP JUMPDEST PUSH1 0x0 DUP2 CALLDATALOAD SWAP1 POP PUSH2 0x4F49 DUP2 PUSH2 0x4F23 JUMP JUMPDEST SWAP3 SWAP2 POP POP JUMP JUMPDEST PUSH1 0x0 DUP1 PUSH1 0x40 DUP4 DUP6 SUB SLT ISZERO PUSH2 0x4F66 JUMPI PUSH2 0x4F65 PUSH2 0x4C34 JUMP JUMPDEST JUMPDEST PUSH1 0x0 PUSH2 0x4F74 DUP6 DUP3 DUP7 ADD PUSH2 0x4F3A JUMP JUMPDEST SWAP3 POP POP PUSH1 0x20 PUSH2 0x4F85 DUP6 DUP3 DUP7 ADD PUSH2 0x4C82 JUMP JUMPDEST SWAP2 POP POP SWAP3 POP SWAP3 SWAP1 POP JUMP JUMPDEST PUSH2 0x4F98 DUP2 PUSH2 0x4C59 JUMP JUMPDEST DUP3 MSTORE POP POP JUMP JUMPDEST PUSH1 0x0 PUSH1 0x20 DUP3 ADD SWAP1 POP PUSH2 0x4FB3 PUSH1 0x0 DUP4 ADD DUP5 PUSH2 0x4F8F JUMP JUMPDEST SWAP3 SWAP2 POP POP JUMP JUMPDEST PUSH1 0x40 DUP3 ADD PUSH1 0x0 DUP3 ADD MLOAD PUSH2 0x4FCF PUSH1 0x0 DUP6 ADD DUP3 PUSH2 0x4E2D JUMP JUMPDEST POP PUSH1 0x20 DUP3 ADD MLOAD PUSH2 0x4FE2 PUSH1 0x20 DUP6 ADD DUP3 PUSH2 0x4E2D JUMP JUMPDEST POP POP POP POP JUMP JUMPDEST PUSH1 0x0 PUSH1 0x40 DUP3 ADD SWAP1 POP PUSH2 0x4FFD PUSH1 0x0 DUP4 ADD DUP5 PUSH2 0x4FB9 JUMP JUMPDEST SWAP3 SWAP2 POP POP JUMP JUMPDEST PUSH1 0x0 PUSH1 0x20 DUP3 DUP5 SUB SLT ISZERO PUSH2 0x5019 JUMPI PUSH2 0x5018 PUSH2 0x4C34 JUMP JUMPDEST JUMPDEST PUSH1 0x0 PUSH2 0x5027 DUP5 DUP3 DUP6 ADD PUSH2 0x4F3A JUMP JUMPDEST SWAP2 POP POP SWAP3 SWAP2 POP POP JUMP JUMPDEST PUSH1 0x80 DUP3 ADD PUSH1 0x0 DUP3 ADD MLOAD PUSH2 0x5046 PUSH1 0x0 DUP6 ADD DUP3 PUSH2 0x4E2D JUMP JUMPDEST POP PUSH1 0x20 DUP3 ADD MLOAD PUSH2 0x5059 PUSH1 0x20 DUP6 ADD DUP3 PUSH2 0x4E2D JUMP JUMPDEST POP PUSH1 0x40 DUP3 ADD MLOAD PUSH2 0x506C PUSH1 0x40 DUP6 ADD DUP3 PUSH2 0x4E2D JUMP JUMPDEST POP PUSH1 0x60 DUP3 ADD MLOAD PUSH2 0x507F PUSH1 0x60 DUP6 ADD DUP3 PUSH2 0x4E2D JUMP JUMPDEST POP POP POP POP JUMP JUMPDEST PUSH1 0x0 PUSH1 0x80 DUP3 ADD SWAP1 POP PUSH2 0x509A PUSH1 0x0 DUP4 ADD DUP5 PUSH2 0x5030 JUMP JUMPDEST SWAP3 SWAP2 POP POP JUMP JUMPDEST PUSH1 0x0 PUSH1 0x40 DUP3 ADD SWAP1 POP PUSH2 0x50B5 PUSH1 0x0 DUP4 ADD DUP6 PUSH2 0x4CCE JUMP JUMPDEST PUSH2 0x50C2 PUSH1 0x20 DUP4 ADD DUP5 PUSH2 0x4CCE JUMP JUMPDEST SWAP4 SWAP3 POP POP POP JUMP JUMPDEST PUSH1 0x0 PUSH2 0x140 DUP3 ADD SWAP1 POP PUSH2 0x50DF PUSH1 0x0 DUP4 ADD DUP14 PUSH2 0x4CCE JUMP JUMPDEST PUSH2 0x50EC PUSH1 0x20 DUP4 ADD DUP13 PUSH2 0x4CCE JUMP JUMPDEST PUSH2 0x50F9 PUSH1 0x40 DUP4 ADD DUP12 PUSH2 0x4CCE JUMP JUMPDEST PUSH2 0x5106 PUSH1 0x60 DUP4 ADD DUP11 PUSH2 0x4CCE JUMP JUMPDEST PUSH2 0x5113 PUSH1 0x80 DUP4 ADD DUP10 PUSH2 0x4CCE JUMP JUMPDEST PUSH2 0x5120 PUSH1 0xA0 DUP4 ADD DUP9 PUSH2 0x4CCE JUMP JUMPDEST PUSH2 0x512D PUSH1 0xC0 DUP4 ADD DUP8 PUSH2 0x4CCE JUMP JUMPDEST PUSH2 0x513A PUSH1 0xE0 DUP4 ADD DUP7 PUSH2 0x4CCE JUMP JUMPDEST PUSH2 0x5148 PUSH2 0x100 DUP4 ADD DUP6 PUSH2 0x4CCE JUMP JUMPDEST PUSH2 0x5156 PUSH2 0x120 DUP4 ADD DUP5 PUSH2 0x4F8F JUMP JUMPDEST SWAP12 SWAP11 POP POP POP POP POP POP POP POP POP POP POP JUMP JUMPDEST PUSH32 0x4E487B7100000000000000000000000000000000000000000000000000000000 PUSH1 0x0 MSTORE PUSH1 0x11 PUSH1 0x4 MSTORE PUSH1 0x24 PUSH1 0x0 REVERT JUMPDEST PUSH1 0x0 PUSH2 0x519F DUP3 PUSH2 0x4CC4 JUMP JUMPDEST SWAP2 POP PUSH2 0x51AA DUP4 PUSH2 0x4CC4 JUMP JUMPDEST SWAP3 POP DUP3 DUP3 SUB SWAP1 POP DUP2 DUP2 GT ISZERO PUSH2 0x51C2 JUMPI PUSH2 0x51C1 PUSH2 0x5165 JUMP JUMPDEST JUMPDEST SWAP3 SWAP2 POP POP JUMP JUMPDEST PUSH1 0x0 PUSH2 0x51D3 DUP3 PUSH2 0x4CC4 JUMP JUMPDEST SWAP2 POP PUSH2 0x51DE DUP4 PUSH2 0x4CC4 JUMP JUMPDEST SWAP3 POP DUP3 DUP3 MUL PUSH2 0x51EC DUP2 PUSH2 0x4CC4 JUMP JUMPDEST SWAP2 POP DUP3 DUP3 DIV DUP5 EQ DUP4 ISZERO OR PUSH2 0x5203 JUMPI PUSH2 0x5202 PUSH2 0x5165 JUMP JUMPDEST JUMPDEST POP SWAP3 SWAP2 POP POP JUMP JUMPDEST PUSH32 0x4E487B7100000000000000000000000000000000000000000000000000000000 PUSH1 0x0 MSTORE PUSH1 0x12 PUSH1 0x4 MSTORE PUSH1 0x24 PUSH1 0x0 REVERT JUMPDEST PUSH1 0x0 PUSH2 0x5244 DUP3 PUSH2 0x4CC4 JUMP JUMPDEST SWAP2 POP PUSH2 0x524F DUP4 PUSH2 0x4CC4 JUMP JUMPDEST SWAP3 POP DUP3 PUSH2 0x525F JUMPI PUSH2 0x525E PUSH2 0x520A JUMP JUMPDEST JUMPDEST DUP3 DUP3 DIV SWAP1 POP SWAP3 SWAP2 POP POP JUMP JUMPDEST PUSH1 0x0 PUSH2 0x5275 DUP3 PUSH2 0x4CC4 JUMP JUMPDEST SWAP2 POP PUSH2 0x5280 DUP4 PUSH2 0x4CC4 JUMP JUMPDEST SWAP3 POP DUP3 DUP3 ADD SWAP1 POP DUP1 DUP3 GT ISZERO PUSH2 0x5298 JUMPI PUSH2 0x5297 PUSH2 0x5165 JUMP JUMPDEST JUMPDEST SWAP3 SWAP2 POP POP JUMP JUMPDEST PUSH32 0x4E487B7100000000000000000000000000000000000000000000000000000000 PUSH1 0x0 MSTORE PUSH1 0x41 PUSH1 0x4 MSTORE PUSH1 0x24 PUSH1 0x0 REVERT JUMPDEST PUSH32 0x4E487B7100000000000000000000000000000000000000000000000000000000 PUSH1 0x0 MSTORE PUSH1 0x32 PUSH1 0x4 MSTORE PUSH1 0x24 PUSH1 0x0 REVERT JUMPDEST PUSH1 0x0 PUSH2 0x5307 DUP3 PUSH2 0x4CC4 JUMP JUMPDEST SWAP2 POP PUSH32 0xFFFFFFFFFFFFFFFFFFFFFFFFFFFFFFFFFFFFFFFFFFFFFFFFFFFFFFFFFFFFFFFF DUP3 SUB PUSH2 0x5339 JUMPI PUSH2 0x5338 PUSH2 0x5165 JUMP JUMPDEST JUMPDEST PUSH1 0x1 DUP3 ADD SWAP1 POP SWAP2 SWAP1 POP JUMP JUMPDEST PUSH1 0x0 DUP3 DUP3 MSTORE PUSH1 0x20 DUP3 ADD SWAP1 POP SWAP3 SWAP2 POP POP JUMP JUMPDEST PUSH32 0x6572726F72000000000000000000000000000000000000000000000000000000 PUSH1 0x0 DUP3 ADD MSTORE POP JUMP JUMPDEST PUSH1 0x0 PUSH2 0x538B PUSH1 0x5 DUP4 PUSH2 0x5344 JUMP JUMPDEST SWAP2 POP PUSH2 0x5396 DUP3 PUSH2 0x5355 JUMP JUMPDEST PUSH1 0x20 DUP3 ADD SWAP1 POP SWAP2 SWAP1 POP JUMP JUMPDEST PUSH1 0x0 PUSH1 0x20 DUP3 ADD SWAP1 POP DUP2 DUP2 SUB PUSH1 0x0 DUP4 ADD MSTORE PUSH2 0x53BA DUP2 PUSH2 0x537E JUMP JUMPDEST SWAP1 POP SWAP2 SWAP1 POP JUMP JUMPDEST PUSH32 0x496E766573746D656E74206C696D697400000000000000000000000000000000 PUSH1 0x0 DUP3 ADD MSTORE POP JUMP JUMPDEST PUSH1 0x0 PUSH2 0x53F7 PUSH1 0x10 DUP4 PUSH2 0x5344 JUMP JUMPDEST SWAP2 POP PUSH2 0x5402 DUP3 PUSH2 0x53C1 JUMP JUMPDEST PUSH1 0x20 DUP3 ADD SWAP1 POP SWAP2 SWAP1 POP JUMP JUMPDEST PUSH1 0x0 PUSH1 0x20 DUP3 ADD SWAP1 POP DUP2 DUP2 SUB PUSH1 0x0 DUP4 ADD MSTORE PUSH2 0x5426 DUP2 PUSH2 0x53EA JUMP JUMPDEST SWAP1 POP SWAP2 SWAP1 POP JUMP JUMPDEST PUSH1 0x0 DUP2 MLOAD SWAP1 POP PUSH2 0x543C DUP2 PUSH2 0x4C6B JUMP JUMPDEST SWAP3 SWAP2 POP POP JUMP JUMPDEST PUSH1 0x0 PUSH1 0x20 DUP3 DUP5 SUB SLT ISZERO PUSH2 0x5458 JUMPI PUSH2 0x5457 PUSH2 0x4C34 JUMP JUMPDEST JUMPDEST PUSH1 0x0 PUSH2 0x5466 DUP5 DUP3 DUP6 ADD PUSH2 0x542D JUMP JUMPDEST SWAP2 POP POP SWAP3 SWAP2 POP POP JUMP JUMPDEST PUSH1 0x0 PUSH14 0xFFFFFFFFFFFFFFFFFFFFFFFFFFFF DUP3 AND SWAP1 POP SWAP2 SWAP1 POP JUMP JUMPDEST PUSH2 0x5492 DUP2 PUSH2 0x546F JUMP JUMPDEST DUP2 EQ PUSH2 0x549D JUMPI PUSH1 0x0 DUP1 REVERT JUMPDEST POP JUMP JUMPDEST PUSH1 0x0 DUP2 MLOAD SWAP1 POP PUSH2 0x54AF DUP2 PUSH2 0x5489 JUMP JUMPDEST SWAP3 SWAP2 POP POP JUMP JUMPDEST PUSH1 0x0 PUSH4 0xFFFFFFFF DUP3 AND SWAP1 POP SWAP2 SWAP1 POP JUMP JUMPDEST PUSH2 0x54CE DUP2 PUSH2 0x54B5 JUMP JUMPDEST DUP2 EQ PUSH2 0x54D9 JUMPI PUSH1 0x0 DUP1 REVERT JUMPDEST POP JUMP JUMPDEST PUSH1 0x0 DUP2 MLOAD SWAP1 POP PUSH2 0x54EB DUP2 PUSH2 0x54C5 JUMP JUMPDEST SWAP3 SWAP2 POP POP JUMP JUMPDEST PUSH1 0x0 DUP1 PUSH1 0x0 PUSH1 0x60 DUP5 DUP7 SUB SLT ISZERO PUSH2 0x550A JUMPI PUSH2 0x5509 PUSH2 0x4C34 JUMP JUMPDEST JUMPDEST PUSH1 0x0 PUSH2 0x5518 DUP7 DUP3 DUP8 ADD PUSH2 0x54A0 JUMP JUMPDEST SWAP4 POP POP PUSH1 0x20 PUSH2 0x5529 DUP7 DUP3 DUP8 ADD PUSH2 0x54A0 JUMP JUMPDEST SWAP3 POP POP PUSH1 0x40 PUSH2 0x553A DUP7 DUP3 DUP8 ADD PUSH2 0x54DC JUMP JUMPDEST SWAP2 POP POP SWAP3 POP SWAP3 POP SWAP3 JUMP JUMPDEST PUSH32 0x726577617264203C203000000000000000000000000000000000000000000000 PUSH1 0x0 DUP3 ADD MSTORE POP JUMP JUMPDEST PUSH1 0x0 PUSH2 0x557A PUSH1 0xA DUP4 PUSH2 0x5344 JUMP JUMPDEST SWAP2 POP PUSH2 0x5585 DUP3 PUSH2 0x5544 JUMP JUMPDEST PUSH1 0x20 DUP3 ADD SWAP1 POP SWAP2 SWAP1 POP JUMP JUMPDEST PUSH1 0x0 PUSH1 0x20 DUP3 ADD SWAP1 POP DUP2 DUP2 SUB PUSH1 0x0 DUP4 ADD MSTORE PUSH2 0x55A9 DUP2 PUSH2 0x556D JUMP JUMPDEST SWAP1 POP SWAP2 SWAP1 POP JUMP JUMPDEST PUSH32 0x4F776E61626C653A206E6577206F776E657220697320746865207A65726F2061 PUSH1 0x0 DUP3 ADD MSTORE PUSH32 0x6464726573730000000000000000000000000000000000000000000000000000 PUSH1 0x20 DUP3 ADD MSTORE POP JUMP JUMPDEST PUSH1 0x0 PUSH2 0x560C PUSH1 0x26 DUP4 PUSH2 0x5344 JUMP JUMPDEST SWAP2 POP PUSH2 0x5617 DUP3 PUSH2 0x55B0 JUMP JUMPDEST PUSH1 0x40 DUP3 ADD SWAP1 POP SWAP2 SWAP1 POP JUMP JUMPDEST PUSH1 0x0 PUSH1 0x20 DUP3 ADD SWAP1 POP DUP2 DUP2 SUB PUSH1 0x0 DUP4 ADD MSTORE PUSH2 0x563B DUP2 PUSH2 0x55FF JUMP JUMPDEST SWAP1 POP SWAP2 SWAP1 POP JUMP JUMPDEST PUSH1 0x0 PUSH1 0x40 DUP3 ADD SWAP1 POP PUSH2 0x5657 PUSH1 0x0 DUP4 ADD DUP6 PUSH2 0x4F8F JUMP JUMPDEST PUSH2 0x5664 PUSH1 0x20 DUP4 ADD DUP5 PUSH2 0x4CCE JUMP JUMPDEST SWAP4 SWAP3 POP POP POP JUMP JUMPDEST PUSH1 0x0 DUP2 ISZERO ISZERO SWAP1 POP SWAP2 SWAP1 POP JUMP JUMPDEST PUSH2 0x5680 DUP2 PUSH2 0x566B JUMP JUMPDEST DUP2 EQ PUSH2 0x568B JUMPI PUSH1 0x0 DUP1 REVERT JUMPDEST POP JUMP JUMPDEST PUSH1 0x0 DUP2 MLOAD SWAP1 POP PUSH2 0x569D DUP2 PUSH2 0x5677 JUMP JUMPDEST SWAP3 SWAP2 POP POP JUMP JUMPDEST PUSH1 0x0 PUSH1 0x20 DUP3 DUP5 SUB SLT ISZERO PUSH2 0x56B9 JUMPI PUSH2 0x56B8 PUSH2 0x4C34 JUMP JUMPDEST JUMPDEST PUSH1 0x0 PUSH2 0x56C7 DUP5 DUP3 DUP6 ADD PUSH2 0x568E JUMP JUMPDEST SWAP2 POP POP SWAP3 SWAP2 POP POP JUMP JUMPDEST PUSH1 0x0 DUP2 SWAP1 POP SWAP2 SWAP1 POP JUMP JUMPDEST PUSH1 0x0 PUSH2 0x56F5 PUSH2 0x56F0 PUSH2 0x56EB DUP5 PUSH2 0x56D0 JUMP JUMPDEST PUSH2 0x4CF8 JUMP JUMPDEST PUSH2 0x4CC4 JUMP JUMPDEST SWAP1 POP SWAP2 SWAP1 POP JUMP JUMPDEST PUSH2 0x5705 DUP2 PUSH2 0x56DA JUMP JUMPDEST DUP3 MSTORE POP POP JUMP JUMPDEST PUSH1 0x0 PUSH1 0xC0 DUP3 ADD SWAP1 POP PUSH2 0x5720 PUSH1 0x0 DUP4 ADD DUP10 PUSH2 0x4F8F JUMP JUMPDEST PUSH2 0x572D PUSH1 0x20 DUP4 ADD DUP9 PUSH2 0x4CCE JUMP JUMPDEST PUSH2 0x573A PUSH1 0x40 DUP4 ADD DUP8 PUSH2 0x56FC JUMP JUMPDEST PUSH2 0x5747 PUSH1 0x60 DUP4 ADD DUP7 PUSH2 0x56FC JUMP JUMPDEST PUSH2 0x5754 PUSH1 0x80 DUP4 ADD DUP6 PUSH2 0x4F8F JUMP JUMPDEST PUSH2 0x5761 PUSH1 0xA0 DUP4 ADD DUP5 PUSH2 0x4CCE JUMP JUMPDEST SWAP8 SWAP7 POP POP POP POP POP POP POP JUMP JUMPDEST PUSH1 0x0 DUP2 MLOAD SWAP1 POP PUSH2 0x577B DUP2 PUSH2 0x4F23 JUMP JUMPDEST SWAP3 SWAP2 POP POP JUMP JUMPDEST PUSH1 0x0 DUP1 PUSH1 0x40 DUP4 DUP6 SUB SLT ISZERO PUSH2 0x5798 JUMPI PUSH2 0x5797 PUSH2 0x4C34 JUMP JUMPDEST JUMPDEST PUSH1 0x0 PUSH2 0x57A6 DUP6 DUP3 DUP7 ADD PUSH2 0x576C JUMP JUMPDEST SWAP3 POP POP PUSH1 0x20 PUSH2 0x57B7 DUP6 DUP3 DUP7 ADD PUSH2 0x576C JUMP JUMPDEST SWAP2 POP POP SWAP3 POP SWAP3 SWAP1 POP JUMP JUMPDEST PUSH32 0x43616E6E6F742077697468647261772030000000000000000000000000000000 PUSH1 0x0 DUP3 ADD MSTORE POP JUMP JUMPDEST PUSH1 0x0 PUSH2 0x57F7 PUSH1 0x11 DUP4 PUSH2 0x5344 JUMP JUMPDEST SWAP2 POP PUSH2 0x5802 DUP3 PUSH2 0x57C1 JUMP JUMPDEST PUSH1 0x20 DUP3 ADD SWAP1 POP SWAP2 SWAP1 POP JUMP JUMPDEST PUSH1 0x0 PUSH1 0x20 DUP3 ADD SWAP1 POP DUP2 DUP2 SUB PUSH1 0x0 DUP4 ADD MSTORE PUSH2 0x5826 DUP2 PUSH2 0x57EA JUMP JUMPDEST SWAP1 POP SWAP2 SWAP1 POP JUMP JUMPDEST PUSH32 0x5265656E7472616E637947756172643A207265656E7472616E742063616C6C00 PUSH1 0x0 DUP3 ADD MSTORE POP JUMP JUMPDEST PUSH1 0x0 PUSH2 0x5863 PUSH1 0x1F DUP4 PUSH2 0x5344 JUMP JUMPDEST SWAP2 POP PUSH2 0x586E DUP3 PUSH2 0x582D JUMP JUMPDEST PUSH1 0x20 DUP3 ADD SWAP1 POP SWAP2 SWAP1 POP JUMP JUMPDEST PUSH1 0x0 PUSH1 0x20 DUP3 ADD SWAP1 POP DUP2 DUP2 SUB PUSH1 0x0 DUP4 ADD MSTORE PUSH2 0x5892 DUP2 PUSH2 0x5856 JUMP JUMPDEST SWAP1 POP SWAP2 SWAP1 POP JUMP JUMPDEST PUSH1 0x0 DUP2 PUSH1 0x1 SHR SWAP1 POP SWAP2 SWAP1 POP JUMP JUMPDEST PUSH1 0x0 DUP1 DUP3 SWAP2 POP DUP4 SWAP1 POP JUMPDEST PUSH1 0x1 DUP6 GT ISZERO PUSH2 0x58F0 JUMPI DUP1 DUP7 DIV DUP2 GT ISZERO PUSH2 0x58CC JUMPI PUSH2 0x58CB PUSH2 0x5165 JUMP JUMPDEST JUMPDEST PUSH1 0x1 DUP6 AND ISZERO PUSH2 0x58DB JUMPI DUP1 DUP3 MUL SWAP2 POP JUMPDEST DUP1 DUP2 MUL SWAP1 POP PUSH2 0x58E9 DUP6 PUSH2 0x5899 JUMP JUMPDEST SWAP5 POP PUSH2 0x58B0 JUMP JUMPDEST SWAP5 POP SWAP5 SWAP3 POP POP POP JUMP JUMPDEST PUSH1 0x0 DUP3 PUSH2 0x5909 JUMPI PUSH1 0x1 SWAP1 POP PUSH2 0x59C5 JUMP JUMPDEST DUP2 PUSH2 0x5917 JUMPI PUSH1 0x0 SWAP1 POP PUSH2 0x59C5 JUMP JUMPDEST DUP2 PUSH1 0x1 DUP2 EQ PUSH2 0x592D JUMPI PUSH1 0x2 DUP2 EQ PUSH2 0x5937 JUMPI PUSH2 0x5966 JUMP JUMPDEST PUSH1 0x1 SWAP2 POP POP PUSH2 0x59C5 JUMP JUMPDEST PUSH1 0xFF DUP5 GT ISZERO PUSH2 0x5949 JUMPI PUSH2 0x5948 PUSH2 0x5165 JUMP JUMPDEST JUMPDEST DUP4 PUSH1 0x2 EXP SWAP2 POP DUP5 DUP3 GT ISZERO PUSH2 0x5960 JUMPI PUSH2 0x595F PUSH2 0x5165 JUMP JUMPDEST JUMPDEST POP PUSH2 0x59C5 JUMP JUMPDEST POP PUSH1 0x20 DUP4 LT PUSH2 0x133 DUP4 LT AND PUSH1 0x4E DUP5 LT PUSH1 0xB DUP5 LT AND OR ISZERO PUSH2 0x599B JUMPI DUP3 DUP3 EXP SWAP1 POP DUP4 DUP2 GT ISZERO PUSH2 0x5996 JUMPI PUSH2 0x5995 PUSH2 0x5165 JUMP JUMPDEST JUMPDEST PUSH2 0x59C5 JUMP JUMPDEST PUSH2 0x59A8 DUP5 DUP5 DUP5 PUSH1 0x1 PUSH2 0x58A6 JUMP JUMPDEST SWAP3 POP SWAP1 POP DUP2 DUP5 DIV DUP2 GT ISZERO PUSH2 0x59BF JUMPI PUSH2 0x59BE PUSH2 0x5165 JUMP JUMPDEST JUMPDEST DUP2 DUP2 MUL SWAP1 POP JUMPDEST SWAP4 SWAP3 POP POP POP JUMP JUMPDEST PUSH1 0x0 PUSH2 0x59D7 DUP3 PUSH2 0x4CC4 JUMP JUMPDEST SWAP2 POP PUSH2 0x59E2 DUP4 PUSH2 0x4CC4 JUMP JUMPDEST SWAP3 POP PUSH2 0x5A0F PUSH32 0xFFFFFFFFFFFFFFFFFFFFFFFFFFFFFFFFFFFFFFFFFFFFFFFFFFFFFFFFFFFFFFFF DUP5 DUP5 PUSH2 0x58F9 JUMP JUMPDEST SWAP1 POP SWAP3 SWAP2 POP POP JUMP JUMPDEST PUSH32 0x4F776E61626C653A2063616C6C6572206973206E6F7420746865206F776E6572 PUSH1 0x0 DUP3 ADD MSTORE POP JUMP JUMPDEST PUSH1 0x0 PUSH2 0x5A4D PUSH1 0x20 DUP4 PUSH2 0x5344 JUMP JUMPDEST SWAP2 POP PUSH2 0x5A58 DUP3 PUSH2 0x5A17 JUMP JUMPDEST PUSH1 0x20 DUP3 ADD SWAP1 POP SWAP2 SWAP1 POP JUMP JUMPDEST PUSH1 0x0 PUSH1 0x20 DUP3 ADD SWAP1 POP DUP2 DUP2 SUB PUSH1 0x0 DUP4 ADD MSTORE PUSH2 0x5A7C DUP2 PUSH2 0x5A40 JUMP JUMPDEST SWAP1 POP SWAP2 SWAP1 POP JUMP JUMPDEST PUSH1 0x0 PUSH1 0x60 DUP3 ADD SWAP1 POP PUSH2 0x5A98 PUSH1 0x0 DUP4 ADD DUP7 PUSH2 0x4F8F JUMP JUMPDEST PUSH2 0x5AA5 PUSH1 0x20 DUP4 ADD DUP6 PUSH2 0x4F8F JUMP JUMPDEST PUSH2 0x5AB2 PUSH1 0x40 DUP4 ADD DUP5 PUSH2 0x4CCE JUMP JUMPDEST SWAP5 SWAP4 POP POP POP POP JUMP JUMPDEST PUSH1 0x0 DUP1 PUSH1 0x0 PUSH1 0x60 DUP5 DUP7 SUB SLT ISZERO PUSH2 0x5AD3 JUMPI PUSH2 0x5AD2 PUSH2 0x4C34 JUMP JUMPDEST JUMPDEST PUSH1 0x0 PUSH2 0x5AE1 DUP7 DUP3 DUP8 ADD PUSH2 0x576C JUMP JUMPDEST SWAP4 POP POP PUSH1 0x20 PUSH2 0x5AF2 DUP7 DUP3 DUP8 ADD PUSH2 0x576C JUMP JUMPDEST SWAP3 POP POP PUSH1 0x40 PUSH2 0x5B03 DUP7 DUP3 DUP8 ADD PUSH2 0x576C JUMP JUMPDEST SWAP2 POP POP SWAP3 POP SWAP3 POP SWAP3 JUMP JUMPDEST PUSH32 0x43616E6E6F74207374616B652030000000000000000000000000000000000000 PUSH1 0x0 DUP3 ADD MSTORE POP JUMP JUMPDEST PUSH1 0x0 PUSH2 0x5B43 PUSH1 0xE DUP4 PUSH2 0x5344 JUMP JUMPDEST SWAP2 POP PUSH2 0x5B4E DUP3 PUSH2 0x5B0D JUMP JUMPDEST PUSH1 0x20 DUP3 ADD SWAP1 POP SWAP2 SWAP1 POP JUMP JUMPDEST PUSH1 0x0 PUSH1 0x20 DUP3 ADD SWAP1 POP DUP2 DUP2 SUB PUSH1 0x0 DUP4 ADD MSTORE PUSH2 0x5B72 DUP2 PUSH2 0x5B36 JUMP JUMPDEST SWAP1 POP SWAP2 SWAP1 POP JUMP JUMPDEST PUSH32 0x456E756D657261626C654D61703A206E6F6E6578697374656E74206B65790000 PUSH1 0x0 DUP3 ADD MSTORE POP JUMP JUMPDEST PUSH1 0x0 PUSH2 0x5BAF PUSH1 0x1E DUP4 PUSH2 0x5344 JUMP JUMPDEST SWAP2 POP PUSH2 0x5BBA DUP3 PUSH2 0x5B79 JUMP JUMPDEST PUSH1 0x20 DUP3 ADD SWAP1 POP SWAP2 SWAP1 POP JUMP JUMPDEST PUSH1 0x0 PUSH1 0x20 DUP3 ADD SWAP1 POP DUP2 DUP2 SUB PUSH1 0x0 DUP4 ADD MSTORE PUSH2 0x5BDE DUP2 PUSH2 0x5BA2 JUMP JUMPDEST SWAP1 POP SWAP2 SWAP1 POP JUMP JUMPDEST PUSH1 0x0 PUSH2 0x5BF0 DUP3 PUSH2 0x4CC4 JUMP JUMPDEST SWAP2 POP PUSH1 0x0 DUP3 SUB PUSH2 0x5C03 JUMPI PUSH2 0x5C02 PUSH2 0x5165 JUMP JUMPDEST JUMPDEST PUSH1 0x1 DUP3 SUB SWAP1 POP SWAP2 SWAP1 POP JUMP JUMPDEST PUSH32 0x4E487B7100000000000000000000000000000000000000000000000000000000 PUSH1 0x0 MSTORE PUSH1 0x31 PUSH1 0x4 MSTORE PUSH1 0x24 PUSH1 0x0 REVERT INVALID LOG2 PUSH5 0x6970667358 0x22 SLT KECCAK256 0xCD PUSH13 0x502D68467F700BF3A60CF71D9E PUSH28 0xF6064D750913C82DE84FC014CC7C735A64736F6C6343000811003300 "
		},
		"gasEstimates": {
			"creation": {
				"codeDepositCost": "4733400",
				"executionCost": "infinite",
				"totalCost": "infinite"
			},
			"external": {
				"aTotal()": "2541",
				"airDorpReward(address)": "2860",
				"balanceOf(address)": "2975",
				"earned(address)": "infinite",
				"exit()": "infinite",
				"getAirDorpReward()": "infinite",
				"getBaseParam()": "infinite",
				"getReward()": "infinite",
				"getRewardGratitude()": "infinite",
				"getRewardInvite()": "infinite",
				"getRewardStar()": "infinite",
				"getUniswapV2Pair()": "infinite",
				"getUniswapV2Router02()": "infinite",
				"info()": "infinite",
				"jackpot()": "2541",
				"lastTimeRewardApplicable()": "6831",
				"lastUpdateTime()": "2474",
				"lockDate(uint256)": "infinite",
				"lockLog(address)": "infinite",
				"needAmount(uint256)": "infinite",
				"owner()": "2590",
				"pInfo()": "infinite",
				"payed()": "2563",
				"periodFinish()": "2539",
				"players(address)": "infinite",
				"proportion(uint256)": "infinite",
				"renounceOwnership()": "30443",
				"rewardPerToken()": "infinite",
				"rewardPerTokenStored()": "2473",
				"rewardRate()": "2540",
				"rewards(address)": "2883",
				"stake(uint256,address)": "infinite",
				"totalSupply()": "2528",
				"transferOwnership(address)": "30876",
				"userRewardPerTokenPaid(address)": "2860",
				"viewData(address)": "infinite",
				"withdraw()": "infinite",
				"withdrawEth()": "infinite"
			},
			"internal": {
				"_invested(address)": "2224",
				"_obtainingFunds(contract IERC20,uint256)": "infinite",
				"_sendReward(address,uint256,bool)": "infinite",
				"_sumUnlockAmount(uint256,address)": "infinite"
			}
		},
		"methodIdentifiers": {
			"aTotal()": "a79b7a66",
			"airDorpReward(address)": "1b85c5f4",
			"balanceOf(address)": "70a08231",
			"earned(address)": "008cc262",
			"exit()": "e9fad8ee",
			"getAirDorpReward()": "d1337f3f",
			"getBaseParam()": "b3321881",
			"getReward()": "3d18b912",
			"getRewardGratitude()": "5a711fe9",
			"getRewardInvite()": "76a5b275",
			"getRewardStar()": "c7e979ec",
			"getUniswapV2Pair()": "1abfa629",
			"getUniswapV2Router02()": "6434ee0e",
			"info()": "370158ea",
			"jackpot()": "6b31ee01",
			"lastTimeRewardApplicable()": "80faa57d",
			"lastUpdateTime()": "c8f33c91",
			"lockDate(uint256)": "d037a6eb",
			"lockLog(address)": "6aed3616",
			"needAmount(uint256)": "c4a15dbe",
			"owner()": "8da5cb5b",
			"pInfo()": "cb6cd705",
			"payed()": "56e4bc1f",
			"periodFinish()": "ebe2b12b",
			"players(address)": "e2eb41ff",
			"proportion(uint256)": "b6a53112",
			"renounceOwnership()": "715018a6",
			"rewardPerToken()": "cd3daf9d",
			"rewardPerTokenStored()": "df136d65",
			"rewardRate()": "7b0a47ee",
			"rewards(address)": "0700037d",
			"stake(uint256,address)": "7acb7757",
			"totalSupply()": "18160ddd",
			"transferOwnership(address)": "f2fde38b",
			"userRewardPerTokenPaid(address)": "8b876347",
			"viewData(address)": "bac61db7",
			"withdraw()": "3ccfd60b",
			"withdrawEth()": "a0ef91df"
		}
	},
	"abi": [
		{
			"inputs": [
				{
					"internalType": "address",
					"name": "WETH",
					"type": "address"
				},
				{
					"internalType": "address",
					"name": "pair",
					"type": "address"
				},
				{
					"internalType": "address",
					"name": "router",
					"type": "address"
				}
			],
			"stateMutability": "nonpayable",
			"type": "constructor"
		},
		{
			"anonymous": false,
			"inputs": [
				{
					"indexed": true,
					"internalType": "address",
					"name": "referral",
					"type": "address"
				},
				{
					"indexed": true,
					"internalType": "address",
					"name": "account",
					"type": "address"
				},
				{
					"indexed": false,
					"internalType": "uint256",
					"name": "time",
					"type": "uint256"
				}
			],
			"name": "Binding",
			"type": "event"
		},
		{
			"anonymous": false,
			"inputs": [
				{
					"indexed": true,
					"internalType": "address",
					"name": "previousOwner",
					"type": "address"
				},
				{
					"indexed": true,
					"internalType": "address",
					"name": "newOwner",
					"type": "address"
				}
			],
			"name": "OwnershipTransferred",
			"type": "event"
		},
		{
			"anonymous": false,
			"inputs": [
				{
					"indexed": false,
					"internalType": "address",
					"name": "token",
					"type": "address"
				},
				{
					"indexed": false,
					"internalType": "uint256",
					"name": "amount",
					"type": "uint256"
				}
			],
			"name": "Recovered",
			"type": "event"
		},
		{
			"anonymous": false,
			"inputs": [
				{
					"indexed": true,
					"internalType": "address",
					"name": "account",
					"type": "address"
				},
				{
					"indexed": false,
					"internalType": "uint256",
					"name": "amount",
					"type": "uint256"
				}
			],
			"name": "RewardGratitude",
			"type": "event"
		},
		{
			"anonymous": false,
			"inputs": [
				{
					"indexed": true,
					"internalType": "address",
					"name": "account",
					"type": "address"
				},
				{
					"indexed": false,
					"internalType": "uint256",
					"name": "amount",
					"type": "uint256"
				}
			],
			"name": "RewardInvite",
			"type": "event"
		},
		{
			"anonymous": false,
			"inputs": [
				{
					"indexed": true,
					"internalType": "address",
					"name": "user",
					"type": "address"
				},
				{
					"indexed": false,
					"internalType": "uint256",
					"name": "reward",
					"type": "uint256"
				}
			],
			"name": "RewardPaid",
			"type": "event"
		},
		{
			"anonymous": false,
			"inputs": [
				{
					"indexed": false,
					"internalType": "uint256",
					"name": "reward",
					"type": "uint256"
				}
			],
			"name": "RewardRateUpdate",
			"type": "event"
		},
		{
			"anonymous": false,
			"inputs": [
				{
					"indexed": true,
					"internalType": "address",
					"name": "account",
					"type": "address"
				},
				{
					"indexed": false,
					"internalType": "uint256",
					"name": "amount",
					"type": "uint256"
				}
			],
			"name": "RewardStar",
			"type": "event"
		},
		{
			"anonymous": false,
			"inputs": [
				{
					"indexed": false,
					"internalType": "uint256",
					"name": "newDuration",
					"type": "uint256"
				}
			],
			"name": "RewardsDurationUpdated",
			"type": "event"
		},
		{
			"anonymous": false,
			"inputs": [
				{
					"indexed": true,
					"internalType": "address",
					"name": "user",
					"type": "address"
				},
				{
					"indexed": false,
					"internalType": "uint256",
					"name": "amount",
					"type": "uint256"
				}
			],
			"name": "Staked",
			"type": "event"
		},
		{
			"anonymous": false,
			"inputs": [
				{
					"indexed": true,
					"internalType": "address",
					"name": "user",
					"type": "address"
				},
				{
					"indexed": false,
					"internalType": "uint256",
					"name": "amount",
					"type": "uint256"
				}
			],
			"name": "Withdrawn",
			"type": "event"
		},
		{
			"inputs": [],
			"name": "aTotal",
			"outputs": [
				{
					"internalType": "uint256",
					"name": "",
					"type": "uint256"
				}
			],
			"stateMutability": "view",
			"type": "function"
		},
		{
			"inputs": [
				{
					"internalType": "address",
					"name": "",
					"type": "address"
				}
			],
			"name": "airDorpReward",
			"outputs": [
				{
					"internalType": "uint256",
					"name": "",
					"type": "uint256"
				}
			],
			"stateMutability": "view",
			"type": "function"
		},
		{
			"inputs": [
				{
					"internalType": "address",
					"name": "account",
					"type": "address"
				}
			],
			"name": "balanceOf",
			"outputs": [
				{
					"internalType": "uint256",
					"name": "",
					"type": "uint256"
				}
			],
			"stateMutability": "view",
			"type": "function"
		},
		{
			"inputs": [
				{
					"internalType": "address",
					"name": "account",
					"type": "address"
				}
			],
			"name": "earned",
			"outputs": [
				{
					"internalType": "uint256",
					"name": "",
					"type": "uint256"
				}
			],
			"stateMutability": "view",
			"type": "function"
		},
		{
			"inputs": [],
			"name": "exit",
			"outputs": [],
			"stateMutability": "nonpayable",
			"type": "function"
		},
		{
			"inputs": [],
			"name": "getAirDorpReward",
			"outputs": [],
			"stateMutability": "nonpayable",
			"type": "function"
		},
		{
			"inputs": [],
			"name": "getBaseParam",
			"outputs": [
				{
					"components": [
						{
							"internalType": "uint256",
							"name": "baseDecimals",
							"type": "uint256"
						},
						{
							"internalType": "uint256",
							"name": "baseProportion",
							"type": "uint256"
						}
					],
					"internalType": "struct BaseParam.BInfo",
					"name": "",
					"type": "tuple"
				}
			],
			"stateMutability": "pure",
			"type": "function"
		},
		{
			"inputs": [],
			"name": "getReward",
			"outputs": [],
			"stateMutability": "nonpayable",
			"type": "function"
		},
		{
			"inputs": [],
			"name": "getRewardGratitude",
			"outputs": [],
			"stateMutability": "nonpayable",
			"type": "function"
		},
		{
			"inputs": [],
			"name": "getRewardInvite",
			"outputs": [],
			"stateMutability": "nonpayable",
			"type": "function"
		},
		{
			"inputs": [],
			"name": "getRewardStar",
			"outputs": [],
			"stateMutability": "nonpayable",
			"type": "function"
		},
		{
			"inputs": [],
			"name": "getUniswapV2Pair",
			"outputs": [
				{
					"internalType": "contract IUniswapV2Pair",
					"name": "",
					"type": "address"
				}
			],
			"stateMutability": "view",
			"type": "function"
		},
		{
			"inputs": [],
			"name": "getUniswapV2Router02",
			"outputs": [
				{
					"internalType": "contract IUniswapV2Router02",
					"name": "",
					"type": "address"
				}
			],
			"stateMutability": "view",
			"type": "function"
		},
		{
			"inputs": [],
			"name": "info",
			"outputs": [
				{
					"internalType": "uint256",
					"name": "addLiquidityProportion",
					"type": "uint256"
				},
				{
					"internalType": "contract IUniswapV2Pair",
					"name": "uniswapV2Pair",
					"type": "address"
				},
				{
					"internalType": "contract IUniswapV2Router02",
					"name": "uniswapV2Router02",
					"type": "address"
				},
				{
					"internalType": "uint256",
					"name": "max",
					"type": "uint256"
				},
				{
					"internalType": "uint256",
					"name": "min",
					"type": "uint256"
				}
			],
			"stateMutability": "view",
			"type": "function"
		},
		{
			"inputs": [],
			"name": "jackpot",
			"outputs": [
				{
					"internalType": "uint256",
					"name": "",
					"type": "uint256"
				}
			],
			"stateMutability": "view",
			"type": "function"
		},
		{
			"inputs": [],
			"name": "lastTimeRewardApplicable",
			"outputs": [
				{
					"internalType": "uint256",
					"name": "",
					"type": "uint256"
				}
			],
			"stateMutability": "view",
			"type": "function"
		},
		{
			"inputs": [],
			"name": "lastUpdateTime",
			"outputs": [
				{
					"internalType": "uint256",
					"name": "",
					"type": "uint256"
				}
			],
			"stateMutability": "view",
			"type": "function"
		},
		{
			"inputs": [
				{
					"internalType": "uint256",
					"name": "",
					"type": "uint256"
				}
			],
			"name": "lockDate",
			"outputs": [
				{
					"internalType": "uint256",
					"name": "",
					"type": "uint256"
				}
			],
			"stateMutability": "view",
			"type": "function"
		},
		{
			"inputs": [
				{
					"internalType": "address",
					"name": "account",
					"type": "address"
				}
			],
			"name": "lockLog",
			"outputs": [
				{
					"components": [
						{
							"internalType": "uint256",
							"name": "unlockTime",
							"type": "uint256"
						},
						{
							"internalType": "uint256",
							"name": "amount",
							"type": "uint256"
						},
						{
							"internalType": "uint256",
							"name": "year",
							"type": "uint256"
						}
					],
					"internalType": "struct ENC.UnLockLog[]",
					"name": "",
					"type": "tuple[]"
				}
			],
			"stateMutability": "view",
			"type": "function"
		},
		{
			"inputs": [
				{
					"internalType": "uint256",
					"name": "amount0",
					"type": "uint256"
				}
			],
			"name": "needAmount",
			"outputs": [
				{
					"internalType": "uint256",
					"name": "amount",
					"type": "uint256"
				}
			],
			"stateMutability": "view",
			"type": "function"
		},
		{
			"inputs": [],
			"name": "owner",
			"outputs": [
				{
					"internalType": "address",
					"name": "",
					"type": "address"
				}
			],
			"stateMutability": "view",
			"type": "function"
		},
		{
			"inputs": [],
			"name": "pInfo",
			"outputs": [
				{
					"internalType": "uint256",
					"name": "depth",
					"type": "uint256"
				},
				{
					"internalType": "uint256",
					"name": "gratitudeProportion",
					"type": "uint256"
				}
			],
			"stateMutability": "view",
			"type": "function"
		},
		{
			"inputs": [],
			"name": "payed",
			"outputs": [
				{
					"internalType": "uint256",
					"name": "",
					"type": "uint256"
				}
			],
			"stateMutability": "view",
			"type": "function"
		},
		{
			"inputs": [],
			"name": "periodFinish",
			"outputs": [
				{
					"internalType": "uint256",
					"name": "",
					"type": "uint256"
				}
			],
			"stateMutability": "view",
			"type": "function"
		},
		{
			"inputs": [
				{
					"internalType": "address",
					"name": "",
					"type": "address"
				}
			],
			"name": "players",
			"outputs": [
				{
					"internalType": "uint256",
					"name": "level",
					"type": "uint256"
				},
				{
					"internalType": "uint256",
					"name": "totalInvested",
					"type": "uint256"
				},
				{
					"internalType": "uint256",
					"name": "totalplayer",
					"type": "uint256"
				},
				{
					"internalType": "uint256",
					"name": "rewardGratitude",
					"type": "uint256"
				},
				{
					"internalType": "uint256",
					"name": "rewardPayedGratitude",
					"type": "uint256"
				},
				{
					"internalType": "uint256",
					"name": "rewardLevel",
					"type": "uint256"
				},
				{
					"internalType": "uint256",
					"name": "rewardPayedLevel",
					"type": "uint256"
				},
				{
					"internalType": "uint256",
					"name": "rewardInvite",
					"type": "uint256"
				},
				{
					"internalType": "uint256",
					"name": "rewardPayedInvite",
					"type": "uint256"
				},
				{
					"internalType": "address",
					"name": "referral",
					"type": "address"
				}
			],
			"stateMutability": "view",
			"type": "function"
		},
		{
			"inputs": [
				{
					"internalType": "uint256",
					"name": "",
					"type": "uint256"
				}
			],
			"name": "proportion",
			"outputs": [
				{
					"internalType": "uint256",
					"name": "",
					"type": "uint256"
				}
			],
			"stateMutability": "view",
			"type": "function"
		},
		{
			"inputs": [],
			"name": "renounceOwnership",
			"outputs": [],
			"stateMutability": "nonpayable",
			"type": "function"
		},
		{
			"inputs": [],
			"name": "rewardPerToken",
			"outputs": [
				{
					"internalType": "uint256",
					"name": "",
					"type": "uint256"
				}
			],
			"stateMutability": "view",
			"type": "function"
		},
		{
			"inputs": [],
			"name": "rewardPerTokenStored",
			"outputs": [
				{
					"internalType": "uint256",
					"name": "",
					"type": "uint256"
				}
			],
			"stateMutability": "view",
			"type": "function"
		},
		{
			"inputs": [],
			"name": "rewardRate",
			"outputs": [
				{
					"internalType": "uint256",
					"name": "",
					"type": "uint256"
				}
			],
			"stateMutability": "view",
			"type": "function"
		},
		{
			"inputs": [
				{
					"internalType": "address",
					"name": "",
					"type": "address"
				}
			],
			"name": "rewards",
			"outputs": [
				{
					"internalType": "uint256",
					"name": "",
					"type": "uint256"
				}
			],
			"stateMutability": "view",
			"type": "function"
		},
		{
			"inputs": [
				{
					"internalType": "uint256",
					"name": "year",
					"type": "uint256"
				},
				{
					"internalType": "address",
					"name": "referral",
					"type": "address"
				}
			],
			"name": "stake",
			"outputs": [],
			"stateMutability": "payable",
			"type": "function"
		},
		{
			"inputs": [],
			"name": "totalSupply",
			"outputs": [
				{
					"internalType": "uint256",
					"name": "",
					"type": "uint256"
				}
			],
			"stateMutability": "view",
			"type": "function"
		},
		{
			"inputs": [
				{
					"internalType": "address",
					"name": "newOwner",
					"type": "address"
				}
			],
			"name": "transferOwnership",
			"outputs": [],
			"stateMutability": "nonpayable",
			"type": "function"
		},
		{
			"inputs": [
				{
					"internalType": "address",
					"name": "",
					"type": "address"
				}
			],
			"name": "userRewardPerTokenPaid",
			"outputs": [
				{
					"internalType": "uint256",
					"name": "",
					"type": "uint256"
				}
			],
			"stateMutability": "view",
			"type": "function"
		},
		{
			"inputs": [
				{
					"internalType": "address",
					"name": "account",
					"type": "address"
				}
			],
			"name": "viewData",
			"outputs": [
				{
					"components": [
						{
							"internalType": "uint256",
							"name": "reward",
							"type": "uint256"
						},
						{
							"internalType": "uint256",
							"name": "balance",
							"type": "uint256"
						},
						{
							"internalType": "uint256",
							"name": "total",
							"type": "uint256"
						},
						{
							"internalType": "uint256",
							"name": "airDorpReward",
							"type": "uint256"
						}
					],
					"internalType": "struct ENC.Data",
					"name": "",
					"type": "tuple"
				}
			],
			"stateMutability": "view",
			"type": "function"
		},
		{
			"inputs": [],
			"name": "withdraw",
			"outputs": [],
			"stateMutability": "nonpayable",
			"type": "function"
		},
		{
			"inputs": [],
			"name": "withdrawEth",
			"outputs": [],
			"stateMutability": "nonpayable",
			"type": "function"
		}
	]
}